:1000000002048D02E5840122023DB602E5DF7D2374
:10001000023AE402E627220247FC2202E5E4C21685
:100020002222FF0220E27D437F1080071B447A0BCF
:10003000B00B144D4478F5220001010000010100CD
:100040000257ED02585A026038FFFF020E160000F8
:1000500000000000000000000000FF02E7F901FFBF
:100060000000000001FF74010260F902E973026DF3
:1000700038FFFF02247C40332D241E18100A0A0E7C
:10008000151E242B32352F28221A130A03000104CF
:100090000A121B252C310900000204080F19202721
:1000A0002B2D2E2E2E2C2C2D2E32353B434D565DD6
:1000B00062676A6D6E70DAE1FF5501020408102074
:1000C000408001020304040302010102030404034B
:1000D00002010102030405040302010102030405F5
:1000E00004030201FF00010200FF01020001FF0200
:1000F000000102FF740F7AB36F947AB36F9522FFF9
:10010000F4540BABE28E1D715EEEA111847B1BE4F7
:10011000FFFFFFFF0BF4FFFFFFFFC639FFFFF006F5
:10012000708F00FF847B01AA486302A900000000D1
:1001300000000000000000000000000000000000BF
:100140004A32320000000000000000000000000001
:10015000000000000000000000000000000000009F
:100160005869616F6D690000000000000000000028
:100170000100010101010101010101000101010171
:1001800001010101010000000808102410240000F2
:10019000010000000000000000000000000000005E
:1001A000000000000000000000000000000000004F
:1001B00000000000000102030405060708090A0BFD
:1001C0000C0D0E0F00000120012000000000012492
:1001D00001200048009100DA01230048009100DA74
:1001E00001231A050707000804001A05070701087C
:1001F00004001A050707020604001A05070703088A
:100200000301010A1E081400640DAC00C80190012E
:100210002C012C012C09C407D007D0019001900AB1
:1002200000022601050C213C000000000000000037
:10023000000000000000000000000000190B000199
:100240008701001B01840007001801020100010161
:100250000000000000000000000000001D00000081
:100260000000FF0064000000000000000000FFFF2D
:10027000000000000000000000000000000000017D
:10028000C6A50200000000000000000000000240BF
:1002900004800438021C3C3C019A01E0010001008A
:1002A000092404924141020801A401000100100048
:1002B000B40168021C000007A800640048000201A5
:1002C0000500960BB80A05060078015E01C21F40C2
:1002D00028025800C80014001A0018001103200159
:1002E00090064005DC040F0F005003E8005008D4CE
:1002F000000A019A019A032000C80043001E0080F2
:10030000021C00DC003C03E80492021C003C03E8F1
:100310000020041800000924006400A000A006408A
:10032000012C0000C2D57CB430E708B2D56E24FFA2
:10033000FF0B247CB630E712B2D56E34FFFF0B34CE
:100340008D326E24FFFF0B2480028D3230D5066E75
:1003500034FFFF0B34227D51AD037D027D21AD05BD
:100360002D12AD352D21227D02AD31AD102D212272
:100370006D0074104D00780B4D2278278D317D1261
:100380006D22227D437D326D222F112D445002A516
:100390000FBF1040049F100B901478ED7F016D2269
:1003A0007D34227D417D138D247D022F004004BDCC
:1003B0000440049D040B141478F17D237D317D10DD
:1003C0006D0022C2D57CB030E708B2D59F229F20B5
:1003D0007F027CB430E713B2D59F229F217F121297
:1003E00003729F229F207F02800312037230D50682
:1003F0009F229F217F12226CAA4D11681A1E5468F9
:100400000E0B38201B18200B350B151B5478F2509F
:10041000067E39407A1940226CAABE080000682086
:100420001E540B5450167E1B807A0B800B1C0B0C39
:10043000800A0B1A401B0A400B1D0B0D1B5478F24F
:10044000226CAA4D11681E1E54500C7E1B007A1996
:100450000068120B1C0B140B1A001B18000B1D0B51
:10046000151B5478F2226CAABE080000681E1E54A8
:10047000500C7E39407A0B4068120B340B0C0B3851
:10048000201B0A200B350B0D1B5478F222758401BA
:100490007E449FFFE47A49B01B4478F97EF88EE8E9
:1004A000C227C228C231C221C222C223C219C21A23
:1004B000C21BC21C755700C224C225C226C232D23A
:1004C00033C229C22AC21DC21EC21FD220C22BC2E1
:1004D0002C755906C234C20BC20CC20DC20EC20F1B
:1004E000C210D211C212C213C218C235C22DC22EFE
:1004F000C236C237D22FC2307E0400FF7E140559A7
:100500000B0A405D44681A692000020B0E0B448000
:100510000A7E0BB07A29B00B240B0C1B4478F280B6
:10052000DF0208B4CAF87F20800A7E1BF07A2BF025
:100530000B340B5469FFFFFC7DEF1BE479EFFFFCEC
:100540004DFF78E67F10DAF8227D23BE24000048B4
:10055000037D32226D339D322200018E930500010E
:100560008E940000018E990000018E9B0300018E85
:100570009C0000018EAC0000018EBB00000159FF01
:100580000100018E130000015939FF000201000033
:10059000000001019E0000010276000001027700C8
:1005A000001459CB01010101010101010101010008
:1005B0000000000202020202001459EB03030000D3
:1005C000000303000000030300000001010101011A
:1005D00000018EE60000018E140000028E1500005E
:1005E000003C8E1800000000000000000000000029
:1005F00000000000000000000000000000000000FB
:1006000000000000000000000000000000000000EA
:1006100000000000000000000000000000000000DA
:1006200000018E540000018E551100018E5600000D
:10063000018D1700000171FBFF00017865000002C9
:1006400078B60000000278C2000000018ECE0100E2
:10065000018EDC0000018EDD0100018EDE00000154
:1006600039F800000639FA10000000000000018986
:1006700071FF000139560000013957FF0001395858
:10068000FF0001395B640001395C0000018E5D00F0
:1006900000028E60002100018E640100018E67045B
:1006A00000018E880100018E8B0000028E8C0020DC
:1006B00000018E8E0000018E8F0000018E910000DF
:1006C000018E920000018EBEFF00028EC20000006B
:1006D0000481730000C1200004817C0000C100007F
:1006E0000200128180000200148380000103E600F2
:1006F0000002858285840001894402000289450048
:10070000000001896F000004001A000000000001D1
:100710008EE20100028EE3C30000048ECF0000C50C
:100720000000047A420000D00000047A460000A0D5
:100730000000047D240000B00000048ED40000C43A
:100740000000048ED80000C2000000001400680001
:10075000AC00EF0131017401B701FA023D028002E1
:10076000C303060349038C03D00424001D00670063
:10077000AA00EB012B016C01AC01ED022D026E020F
:10078000AE02EF032F037003B003F10431047204CF
:10079000B204F30533057405B405F506350676068F
:1007A000B606F70737077807B807F90839087A084F
:1007B000BC09100014006F00AC00EF01310174019E
:1007C000B701FA023D028002C303060349038C030A
:1007D000CF042300220100230B0101020123010E9B
:1007E00023FF0F01FF0F22FF0F23F5000105002358
:1007F000F60100F90101050F01050F23F6001108AC
:10080000090110070A020F060B030E050C040D0464
:100810000D000F0708010E0609020D050A030C045E
:100820000B000000000BB80BB80BB80BB80BB80BE3
:10083000B80BB80BB80BB80BB80BB80BB80BB80BA0
:10084000B80BB80BB80BB80BB8F448F448F448F43C
:1008500048F448F448F448F448F448F448F448F4B8
:1008600048F448F448F448F448F448F448000000D8
:100870006C00B500FE012200D9009000470047003F
:100880009000D9012200FE00B5006C0000000000BD
:100890000000000000000000000000000000000058
:1008A000000000000012F2DCE47AB38DB07AB38E5F
:1008B000130200F41230AB1253131208E21253C6A3
:1008C000123FC71208A5120C5F1251BA7EB35962CB
:1008D00024FD68090BB178F4120B7780EF1228A57C
:1008E00080EA7E34020D120971120B597A73593B5A
:1008F0007E34020F120971120B6C7A73593C7E34EC
:100900000215120971120B597A73593D12096D12B1
:100910000B6C7A73593EE47AB3593F7E34021F124E
:100920000971120B597A7359407E34006ACA397EB4
:100930003402237E2400FF7E0859411205241BFD4A
:1009400074027AB3594874AA7AB3596FE47AB359E6
:100950005874037AB3595974027AB35957227E34C2
:1009600002157E2400FF0B1A307A3769827E34022A
:10097000177E2400FF0B1A3022900203E4937AB30F
:10098000697A12F3127E34020D1209717A37697C8A
:100990007E34020F1209717A37697E7E3402111299
:1009A0000971120A4E7A37698012095E7A376984B2
:1009B0007E340219120971120A4E7A3769867E3422
:1009C000021B120971120FFD120971120A4E7A37B9
:1009D000698A90024FE4937AB3698E900206E49399
:1009E0007AB3698FBEB014500674147AB3698F7EDF
:1009F0003402071209717A3769907E34021F120996
:100A0000717A37698CE47AB369927AB36993227EFA
:100A100034020D1209717A37697C7E340221120981
:100A2000717A37010012F3127E34020F1209717AC3
:100A300037697E7E34021B120971120FFD12097193
:100A4000120A4E120B51120B647A73593C226E3407
:100A5000FFFF0B34227EB3598B600A120A0FE47A2F
:100A6000B38EE7803412CADB7E3402111209711290
:100A70000A4E7A3769807EB36998701D7EB38EE71F
:100A800070177E340221120971BE37676C280A7E06
:100A9000B3696E70047A37697C7EB3594760447ECF
:100AA000B359581BB1680D0478397E37697C7D13C2
:100AB0003E14800A7E37697C7E140003AD137E04E9
:100AC000000A8D109D317A37697C7D232E240032F7
:100AD0007A2701009E3400327A37697E120A4E7AF4
:100AE0003769807EB3594660577E27697C7E340023
:100AF0000AAD32120B5D7A37697C7D232E240064A7
:100B00007A2701007E57697E7E04000AAD507D255C
:100B10000E240E240E247A27697E7E176988AD1074
:100B20007D210E240E240E247A2769886D229E27AB
:100B300069887A27698A120B59120B647A73593CB7
:100B40007EB3593FBEB0AA680712095E7A3769843E
:100B5000227A37698A7E37697C1E341E341E341E21
:100B6000341E34227A73593B7E37697E0E340E343C
:100B70000E340E340E342230240F7EB359A9B40142
:100B80000874017AB36F93800312532EC224D28665
:100B9000120C5F7EB38EC9B4010280028120125311
:100BA0001C125035E4125FF812EA1A12266212295A
:100BB000657E34020B120971122B2B127AC2122A93
:100BC00023129068124DBD40CA1295A67EB3595F9C
:100BD000B40102D2867EB369937006120A5512CC14
:100BE00076128887124E3D124DBD40A77401120C3B
:100BF000341217781297111292557402120C341293
:100C00001CC17403120C3412A7ED7404120C3412BC
:100C1000EB9A120066124FF712EACE120FF46193AC
:100C2000D204122943124816020C2B7E7359627AA1
:100C3000738EC92224FD680A0BB17822E47AB36965
:100C4000772212A85C12B29C12B35A7AB369791255
:100C5000B5081286A612A71A126F77026A5F22CA17
:100C6000797EB38EACBEB0017802A19B7E1F8ED47C
:100C700069A100065EA408006802A18C6CEE120E49
:100C8000077E34F4B17E087D287E240006120D9E76
:100C90007DB3BEB4000678040BE080070BF0BEF015
:100CA0000340DEBEB4000678106CFF120FED197A17
:100CB0008EAF0BF0BEF00678F2120E077E34F31200
:100CC0007E087D287E240009120D9E7DB3BEB400EF
:100CD0000978040BE080070BF0BEF00340DEBEB4E1
:100CE000000978106CFF120FED197A8E9D0BF0BE83
:100CF000F00978F2120E077E34D2027E087D287E3B
:100D0000240002120D9E7DB3BEB4000278040BE0F5
:100D100080070BF0BEF00340DEBEB4000278106C1A
:100D2000FF120FED197A8EB70BF0BEF00278F212B7
:100D30000E077E34F39012F1F6BEB4000178040B76
:100D4000E080070BF0BEF00340E8BEB40001780875
:100D50007E737D287A738E9C120E077E34F3B31255
:100D6000F1F6BEB4000178040BE080070BF0BEF092
:100D70000340E8BEB4000178087E737D287A738E44
:100D800094BEE005780674017AB38EAC7EB38EAC67
:100D9000B401087E738E9C7A73596CDA792212EF53
:100DA0009C804D6D337E2F8ECF7932000A12EEC5B6
:100DB00012F3E47AB38ED3800E12F1795E3400011F
:100DC0006805122FE5800512EFFD68ED12F2047E32
:100DD0006F8ECF693600045E34000278F27EB38EE7
:100DE000D370116936000A6C667A7B700BF41B14A1
:100DF0004D1178AF020DF76D337E2F8ECF1B2A3049
:100E0000C2CC7D329D31227E087D287E340009E4EB
:100E10001200266CFF22CA7BCA6BCA5BCA4BCA2B64
:100E2000CA1BCA0B120FB15E34004068530B0A3064
:100E30005E340040684A7E340040793000027EB360
:100E40008E62BEB0016803B4041312672F300D0820
:100E50007E738E5B7A738E59E47AB38E627E1F8EB8
:100E6000D46931000A5E340FC0120B591E347A73F4
:100E70008E5EE47AB38EBE7EB38EE8047AB38EE8DB
:100E8000120FB15E34000868110B0A305E3400089E
:100E900068087E34000879300002120FB15E340019
:100EA0001068170B0A305E340010680E7E34001094
:100EB0007930000274027AB38EBE120FB15E340034
:100EC0002068170B0A305E340020680E7E34002044
:100ED0007930000274017AB38EBE120FB15E3440D5
:100EE00000682E0B0A305E34400068257E344000D6
:100EF00079300002D20C7EB38E5ABEB0C8500504C1
:100F00007AB38E5A7EB38E5AB401031200F412469D
:100F1000CF120FB15E34200068160B0A305E342009
:100F200000680D7E34200079300002D20C1246CFCA
:100F3000120FB15E34100068470B0A307D235E2427
:100F40001000683C5E3408002E34FFFF920F6930B9
:100F500000067D235E240001680C5E3404002E34FC
:100F6000FFFF720F920F7E34080079300002C2300A
:100F700012E9781243D71257847805C2081226E77F
:100F8000120FB15E34000468190B0A305E3400049D
:100F900068107E340004793000027EB3596070021C
:100FA000D212DA0BDA1BDA2BDA4BDA5BDA6BDA7B8A
:100FB000327E0F8ED469300004227E3402B91209C9
:100FC000717A37677F7E3402BB1209717A37678185
:100FD0007E3402BD12097112F1BF9002C0E4937A0F
:100FE000B36786E47AB3678A7AB3678B220AAF095C
:100FF0007A7D282212CD2912CD22020C2B7A376954
:10100000887E34021D227C2BA5BA0003024681A5EE
:10101000BA5F057EB38E0F22BE205C38070A320904
:10102000B38DB022BE206A6804A5BA6B1D7E378ED0
:10103000977D230B247A278E972E378EBC7E3930EE
:10104000A5BA6B03751F6A7CB322BE206E6804A527
:10105000BA6F2D7E076F96BE078E957E378E9528C8
:10106000081211095E303F80031211097E078E9528
:101070000B047A078E95A5BA6F03751F6E7CB32299
:10108000BE2070400ABE207F38057CB2022FFDBE14
:1010900020816804A5BA82207EA38DC70A3A2E3427
:1010A00001201211117C3B7CBA047AB38DC7A5BA1A
:1010B0008203751F817CB322BE20926804A5BA9377
:1010C000137EB38E9A0A3B09338EAFA5BA9303758C
:1010D0001F92801ABE20946804A5BA95197EB38E1B
:1010E0009A0A3B09338E9DA5BA9503751F94047A1D
:1010F000B38E9A7CB322A5BAFE0D7E238E88740827
:10110000ACB209B559AB22E4222E378EB57E393008
:10111000227A71827A6183E493227C7BC423541FF8
:101120000A2B09A265DC7CB754070A3B2E3400BAAF
:101130001211115CBA22CA796CFF6CEE80317CBE50
:1011400012111A60287E340002CA39AC7E2E346532
:10115000646D227E3002AC3F2E1465646D00120572
:10116000241BFD7CBF7E7001125B870BF00BE0122D
:101170005FEA38CA7AF36766DA7922CA3BC201129B
:10118000C6E46CDD4133D2007CBD1287E07DE3BE56
:10119000E4033408024131128FD5F52809C365658F
:1011A0000EE40EE4BEE4005058047EE40050BEC0DD
:1011B00002501E1217191212D72804C200803212D0
:1011C00017191212437DD3BED400082824C2008010
:1011D000200ACE1BC50AFCBDFC48161217191212B4
:1011E000D72804C200800A1217191212D72802C287
:1011F00000300035E528BEB00250121212CA280491
:10120000C20080251212CA2820C200801C0ACF1BEF
:10121000C5E5280AFBBDFC48101212CA2804C2000A
:1012200080071212CA2802C2002000057CBD125D90
:10123000010BD012C6D528022186300103121136C7
:10124000DA3B22CA797C937CE47CF57C8B7DF3A528
:10125000BA00357A81297A812A7C18800A12F33AF9
:10126000080A7A112A1B10BE100058F17A81297CD5
:10127000081A580B547C1B800912F33A083D7C0174
:101280000B10BCE118F380337AF1297AF12A7C1F24
:10129000800A12F330080A7A112A1B10BE10005877
:1012A000F17AF1297C0F1A5F0B547C1B800912F331
:1012B0003008087C010B10BC9118F3E52A0A2B0AB0
:1012C000309D320B340A37DA79227D3EE5287C5C8A
:1012D0007C4F7C3E7E20011212437DD3BED4000A97
:1012E000227CB07C711288587D133E140212EF7E6E
:1012F0001F2D2E2D310B1A3022CAD8CA79C2007E7A
:10130000B3696E600261976CFF807F12F2454CEE0C
:10131000781CBED0237817E412139C581174011264
:10132000139C580A74017E702312139F4822BEE05A
:101330000F7855BED0237850740E12139C58497400
:101340000F12139C5842740E7E702312139F58384C
:101350007CBE7C7D7E60011291A67F61125FF17D73
:10136000131A021A007F169F107E0800031203C38F
:101370007F71125FF17DD31A361AC62F67BE680BD4
:10138000B858057CBF125C3B0BF0125F6F280261FE
:101390000B300003121136DA79DAD8227E7022126D
:1013A00012E5BE3400FA227F717F607C5B7E700D97
:1013B000AC7509A3679E09B3679FF5397EB3699D34
:1013C0007C7B1E700A370A4ABD43580B753A00757C
:1013D0003B01753C0280180A3B1B347CB7F53A0A86
:1013E0003B7D231B247CB5F53B1B357CB7F53C7C52
:1013F000BA7E71391212E57D137D010E047DB10EA6
:10140000B40EB42DB07DA12EA4000A6C996C006CB2
:1014100011D201D202D2037E81398045300111E51B
:101420003A1214D25808BDA108040B908002C201E0
:10143000300211E53B1214D25808BDA108040B007C
:101440008002C20230030F1214D05808BDA1080454
:101450000B108002C2032001062002033003071B89
:1014600080BE800058B6D201D202D203E5390A3BD1
:101470000B347C878045300111E53A1214D25808AC
:10148000BDA108040B908002C201300211E53B129D
:1014900014D25808BDA108040B008002C202300318
:1014A0000F1214D05808BDA108040B108002C2030B
:1014B00020010620020330030A0B807E73699EBC64
:1014C0007818B37A6B907A7B007E1D357A1B1022D8
:1014D000E53C7C781212E57D13BDB122CA3B7CC687
:1014E0007CD77CEB7C7D1212E57A3531BEC0017869
:1014F000377CFDBED00028117CBE7C7D1B7012178E
:101500000808060A3D1B347CF77E73699E0A271B78
:10151000240A3DBD3258407CBE7C7D0B70121708FA
:1015200008350A7D0B74802F7CFEBEE000280E7CFF
:10153000BE1412170608060A3E1B347CF77E736938
:101540009D0A271B240A3EBD32580C7CBE0412178C
:101550000608040A7E0B747CBFDA3B22CA3B7CD7A8
:101560007CCB7C7D1212E57A352D7A352F7E1800E2
:101570002C12F44C12176E1217127E18002B12F454
:101580004C12174BBEB003280AE52ABEB00328034D
:10159000E4C1186CEEE52ABEB12950417AD12C1273
:1015A00017127CFC800C121755BEB00338090BE0F3
:1015B0001BF0BEF00058EF7AD12C1217127CFC8081
:1015C0000C121755BEB003380C0BE00BF07E73699C
:1015D0009DBC7F18EC4CEE683D1BE0803912170F64
:1015E0007CFD800C121735BEB00338090BE01BF0F0
:1015F000BEF00058EF12170F7CFD800C121735BE9D
:10160000B003380C0BE00BF07E73699EBC7F18ECC6
:101610004CEE68021BE07CBEDA3B22CA3B7A0D31FD
:101620007CD77CCB7AC13D7C7DE53D12F02D580303
:1016300012F4447AC139800F121726581112F0D0D3
:10164000580312F26C1539E539BEB00058EA0A5C4D
:101650000B54F539800F121726581312F0D0580387
:1016600012F26C05397E73699DBE713918E812F467
:101670003C5803753AFF12F105BE253B480512F4AC
:10168000340803753AFE12F056DA3B22CA3B7A0D53
:10169000317CC77CDB7AC13D7E713D12F02D580351
:1016A00012F4447AC13980147CBD7E713912172A34
:1016B000581112F0D0580312F26C1539E539BEB04A
:1016C0000058E50A5C0B54F53980147CBD7E7139F5
:1016D00012172A581312F0D0580312F26C05397EF3
:1016E00073699EBE713918E312F43C5803753AFFD2
:1016F00012F105BE253B480512F4340803753AFE85
:1017000012F056DA3B227C7D1212E5BE3531227A88
:10171000C12B7E352D7A352F227D3EE5287C5C7CE1
:101720004F7C3E6C2222E5397C7D1212E57D737E72
:10173000353EBD3722E52B7C7F6C661214DCF52B21
:101740007E18002B7A1D35E52B7C7F7E08002F123A
:10175000161BF529227CBF7E712C7E60011214DCE1
:10176000F52C7E18002C7A1D357CBF7E712C7E08EE
:10177000002F12168CF52A22125DFF1212F9125C4C
:1017800043125BC21259801211361281B112113606
:10179000128E1B121136125C9912117B125D7002AF
:1017A00017A2CA3B7ED367660A3D3E34CA397E180B
:1017B00065647E087D281205241BFD6C11752800C8
:1017C0006CCC0218647E4403FF7EE0FF6CFF804314
:1017D0007CBF12111A603A12F344BEB0FF6832099E
:1017E000037D290A207402ACBC09058E1912196008
:1017F0007D137402ACBF09057D280A207402ACBCBD
:1018000009058E181219602D13BD4128047D417CF5
:10181000EF0BF0BCDF38B9BEE0FF68467E7002AC6B
:101820007E09B37D2809737D291212E57D23740298
:10183000ACBE09B57D281290D1BD2348257E70022B
:10184000AC7E09037D287EA1287402A419057D645D
:1018500009037D2919057D6574FF19B37D280B10D7
:1018600005280BC07E038E54BC0C28030217C57CD0
:10187000C180656D007EE0FF6CFF80337CBF12117C
:101880001A602A7E3002AC3F09B17D28BEB0FF68E5
:101890001C09717D291212E57D43BD04580F12F316
:1018A00044F52909B37D29F52A7D047CEF0BF0BCB2
:1018B000DF38C9BEE0FF681E7EA129128FBA19A1C8
:1018C0007D64E52A19B17D657EA0FF7E3002AC3EC5
:1018D00019A17D2805280BC01219673896900204BB
:1018E000E4937CAB7402A4CA597E187D647E087DA3
:1018F000281205241BFD7ED128121FB67402AC7B72
:101900007E088E1874FF120026BED00028380A3DCB
:101910003E34CA397E187D287E0865641205241B72
:10192000FD0A3D3E34CA397E187D287E088E181285
:1019300005241BFD6CCC800A7CBC7E7001125B8789
:101940000BC0BCDC38F27AD38E547AD3676690022F
:1019500003E493BEB3676650047AB36766DA3B224A
:101960000A309D32020549900203E493BCBC22CAAE
:101970003B7F617F707E087D4E121FF77E087D5889
:10198000121C257E087D62121FFF7E94001E7DB909
:101990007EA765609EA4001E7E8765629E84001EF1
:1019A0006CCC61510A3C2D3D7D2C7E1BB0B40102F4
:1019B0008002417F12F1E8B40106740339B00001DE
:1019C0002D3F7D2E29B10001B40302800241630A3C
:1019D0003C09638BD50A2C09728BC1BC674002415C
:1019E0005F7EB38E64B401777CBC7D3B7D2A7D191C
:1019F0007D08129FE950680A3C2E348BD512B294B0
:101A000074010A3C19B37D4E7EA00312F2526CFFA2
:101A100080467E700DAC7F09D3679BBCCD78372E96
:101A20003467977E140029740D1203F77E086797B8
:101A30007EB3696D7C7F128F3A401B74020A3C1999
:101A4000B38BFD7E700DAC7F12A68CAC3C2E148C3B
:101A50008B740D1203F70BF012A23D38B561376C91
:101A6000AA801712A4D270057EA002800D12A4D203
:101A7000B40202800261377EA00212F25261371274
:101A8000F1E8BEB0026804600261230A2C09A28D4D
:101A90000D4CAA780874010A2C19B28BCB0A2C09B8
:101AA000228BCB09328BDFBC3250410A2C09B28B1E
:101AB000F370390A2C2E248BDF7CB3047A29B0749E
:101AC0000212F42474010A2C19B27D5819B28BE960
:101AD000E419B28BCB4CAA785E7E2400017CBC60FA
:101AE000053E241478FB4E278C078031740112F4D4
:101AF00024E40A2C19B28BD519B28BDF19B28BE909
:101B000019B28BF319B28BCB7E2400017CBC60052B
:101B10003E241478FB6E24FFFF5E278C077A278C07
:101B2000078014740312A0F2E40A3C19B38BD51990
:101B3000B38BDF19B38BE912F3B07E0B70397000F1
:101B4000017F172D35297100010A2C19728D0D0B9B
:101B5000C0121967280221A46CEE6CCC801A7E702A
:101B60000DAC7C09D3679B0A2D09B27D4E70072E00
:101B700034679712F0750BC07E73696DBC7C38DEDC
:101B80007528006CCC80470A3C09B37D58603D0540
:101B9000286CFF7E900DAC9F09D48C0DBCCD7825B0
:101BA00049348C0912F3B07930000249348C0B7F30
:101BB000072D15793000047E700DAC7F2E348C0912
:101BC00012F07580070BF0BEF00A40C70BC0121967
:101BD0006738B47CFE6CCC801B7408ACBC7F172DBE
:101BE000357E1BB0B4010B7CAF0BF0740DA419C58E
:101BF0007D660BC012196738E06CCC12F2BB2E1454
:101C00008C09740D1203F712F2BB12A22A0BC0BE8C
:101C1000C00A40E77AE3696D7EB38D1725287AB351
:101C20008D17DA3B227E34000A020026CAF86CAA1D
:101C300080407EF0037E9008AC9A7F102D347A1B92
:101C4000F074037F102D3439B100017E347FFF7FA3
:101C5000702DF4793700027F702DF479370004E499
:101C60007F102D3439B100067F102D3439B10007B3
:101C70000BA0121CB938BB12F3A774011200267E08
:101C8000088BCB121FF77E088BE9121C257E088B70
:101C9000F3121C257E088BD5121C257E088BDF12C3
:101CA0001C257E088BFD121C257E088C09121FFF47
:101CB0006D337A378C07DAF822900203E493BCBACA
:101CC00022CA69CAF87E48691D6CAA801A12A7BE8A
:101CD0001962679B74FF0A4A19B47D3CE419B47D0C
:101CE0002819B47D320BA0121CB938E17E63696DEE
:101CF000A5BE003B7EB38D177002E18F6CAA8028D1
:101D00007E247FFF7E3008AC3A7F742DF179270066
:101D1000022D197D08792000047E3002AC3A592149
:101D20008D2C59218D180BA0121CB938D3E18F7E50
:101D3000B38D177033BE6000282E6CAA802012F27B
:101D40005FAC3A12F0C0AC5A12F3B974010A4A19E6
:101D5000B47D287E500DAC5A19A2679B0BA07E6300
:101D6000696DBC6A38D8E18F6CAA80197E447FFF08
:101D700012F42C59422D3259422D3459422D5A59C0
:101D8000422D5C0BA0121CB938E27E638D17BE6336
:101D9000696D280ABE600240057E700180026C7782
:101DA0006CAAC1536CFFC14A7E5008AC5F7F642DA2
:101DB000D269060002BE047FFF7802C1480A1F09EB
:101DC000B17D326002C148A5BF01607E5002AC5FA8
:101DD00049428D2CBE447FFF685149E28D2C69F643
:101DE00000027D4F9D4E2D4F49E28D1869F600048B
:101DF0007D2F9D2E2D2FBE44000058026D44BE2421
:101E0000000058026D227EF76560BDF458047E47DD
:101E100065607EF76562BDF258047E27656212F345
:101E200026594F2D32592F2D34800F12F326590F7A
:101E30002D3269060004590F2D340A0A19F07D3C31
:101E4000740119B17D3280090BF012A8542802A147
:101E5000A80BA07E638D17BC6A2802A1A46CAA807F
:101E6000207E7008AC7A7F042D13693000027E500A
:101E700002AC5A59328D2C6930000459328D180B3E
:101E8000A0121FB6BC7A38D96CAA802B0A2A09B2D4
:101E90007D3CB4FF206CFF80180A4F09B47D32707E
:101EA0000E0A2A19F27D3C740119B47D3280060BAA
:101EB000F0BC7F38E40BA0BC7A38D16CAA801A7EC3
:101EC000700DAC7A4943679712F42C59422D5A4948
:101ED00033679959322D5C0BA07EB3696DBCBA385B
:101EE000DE7E342D327A377D487E342D5A7A377D26
:101EF0004A7E342D827A377D4C7E738D177A737DBE
:101F0000467E73696D7A737D477E087D4612335E27
:101F10006CAA804A7E70FF6CFF80197E5002AC5F15
:101F200049122D820A2ABD2178080A3F09737D3C97
:101F300080070BF012A85438E2BE70FF681E7E5076
:101F40000DAC5A1972679B74010A4719B47D2812A7
:101F5000F25FAC3712F0C0AC5712F3B90BA07E633E
:101F6000696DBC6A38AE6CAA80200A3A09B37D2834
:101F7000BEB001681312A7D17F042D13794000026F
:101F80002D397D28794100040BA0121CB938DB12D1
:101F90001FAA12A0FA121FAA12A0487AB38D171214
:101FA0001FAA12196FDAF8DA69227F047E187D28D9
:101FB0002274FF120026900203E4937C7B22121FFE
:101FC000B6740DAC7B7E086797121FB1740DAC7BA5
:101FD0007E08689B121FB1740DAC7B7E0868197473
:101FE000FF1200267E08691D121C2C7E08696D7E7A
:101FF00034000DE40200267E34000AE40200267E4E
:1020000034008274FF02002670057CB70258D9B4F0
:10201000A00FA5BF01047402800274017AB38EADD3
:1020200022B401197E0F2D2E7D217A278EBC6D22C0
:102030007A278E977A738DB17CB7023804BEB05C74
:10204000383D0A2B19728DB07C6B2E60E368162E1A
:1020500060F7681F2E600D78337E638DC812208D67
:102060007A378E95227E638DCC12208D3E347A375E
:102070008E97227E638DD512208D7A738E5C22BE60
:10208000B0704008BEB07F38030220AB227C466CA3
:10209000550A372D32227C6B12463D78057CB602FC
:1020A00058FCB404057CB602200822248A78197EE4
:1020B0000F8ED4A5BF00081220DA5E70FB800612D6
:1020C00020DA4E70041B0A30222E14000E0B0A3048
:1020D0005E60FD1B0A307E0F8ED42E14000E0B0A9C
:1020E0003022CAB8CA1BCA0B120FB15E3480006816
:1020F0001C0B0A305E34800068131220DA6E7040C8
:102100001B0A307E3480001221601246C6120FB1C5
:102110005E34000268190B0A305E34000268101247
:1021200020C91227FD7E3400021221601246C61219
:102130000FB15E340001681F0B0A305E3400016885
:10214000161220DA4E60021220D312EE2C7E3400DA
:102150000112216012E74AC2C1DA0BDA1BDAB83287
:102160007E0F8ED47930000222125784681912270C
:10217000B11220D64E60021220D312EE2C1227EBA1
:10218000E47AB38EC4802E12001E12EAC9E412272C
:10219000ED7E0F8ED42E14000A1246607AB38E5E46
:1021A0007AB359607AB38EC47E0F8ED41220C912CE
:1021B00027FD1227981255771248410221BE74015B
:1021C000122EF16CAA7E638E887E7008AC6709B30C
:1021D00059AB0A2B7E3002AC3A2E1402D7127D7214
:1021E000BD2378047AA339617E501EAC5A19723926
:1021F000650BA0BEA00378CD7E733961BE7003402D
:1022000005E47AB339617EB339611295D07E7339B2
:10221000617A7339F7227CABD20512E9C41BA0683E
:10222000341BA068461BA0780241B61BA068590B5E
:10223000A2680241C5D2081226E77E348D401223DF
:102240003912E57812E55F1243B91220D612E55F24
:1022500012645C802ED2061226BD12F15E1222CAD2
:1022600012F15E12236112234580541257847807BD
:10227000D2081226E78005D2061226BD7E348D567E
:1022800012233912672F803F7E34000BCA397E63D8
:102290008E8FAC672E348D406D227E088000120533
:1022A000241BFD7E3400017A3780007E34800012CA
:1022B0002339740480097E348D6112233974037AC2
:1022C000B38E628002C205A205221227F679300081
:1022D000121267260B0A305E607F1B0A30E54054FD
:1022E0001F0A2B122350E54112239D122350E54271
:1022F000540312239F3E241223507E353EBE3400E9
:102300000278351267260B0A304E60801B0A30E5D2
:1023100043541F7C4B6C55122350E54454010A5B17
:10232000C42354E07CABE412F1501B0A30E54512A3
:10233000464E12F1501B0A30227E14003E740B12DE
:1023400003F71222CA74017AB38D6FD230D22F22D2
:102350007E0F8ED42E1400120B0A304D321B0A3021
:102360002212EE8D5E70F812EE8A4E70031B0A3058
:102370001227F679300024E546541F0A2B1226B4A2
:10238000122358E54712239D1226B4122358E5481C
:10239000540312239F3E241226B402235854010AE8
:1023A0002B3E243E243E243E243E24227A1F025EFD
:1023B00074017E1F025E6D227E14005A7E10817FA2
:1023C000717D316D222F171B1C70527E1400017E0F
:1023D0002F8173791200061226401B2A106D117E80
:1023E0002F8173791200087E2F817312F19E7E2F48
:1023F000817C12EF817E2F817C12264412F3D47EE1
:102400002F817C12F0E77E2F817C12EF0E7E2F81D0
:102410007C12EFB61223A37E0F817C8053B4015B44
:102420007E1400017E2F817C791200067E2F817C34
:102430001226441B2A106D117E2F817C7912000810
:102440007E2F817C12F19E7E2F817312EF811226E6
:102450004012F3D47E2F817312F0E77E2F81731226
:10246000EF0E7E2F817312EFB61223A37E0F8173BE
:102470000B0A305E70EF4D321B0A3022CA7BCA79DC
:10248000CA2BCA1BCA0BA921A202C12E75A7F774B9
:10249000017AB38E91E5A4B43F028002A1D57EB348
:1024A0008E1244027AB38E1220E002A1C3743F7AE6
:1024B000B381807EF381777CBF20E708E4CAB8123D
:1024C00060E4A1B97CBF20E702C1287EE38EAE7C28
:1024D000BE30E02A7CBE54FE122639CAB87E378E42
:1024E000972E378EBC12264DDAB81223BF7E1D16EA
:1024F000693100032E378E977A378E97C1287CBEBC
:1025000030E1237CBE54FD122639CAB87E378E9541
:102510002E378EB512264DDAB81226AC2E378E9590
:102520007A378E95C1287CBE30E3237CBE54F712E7
:102530002639CAB87E378EB92E378EA812264DDAC4
:10254000B81226AC2E378EB97A378EB9C1287CBE28
:1025500030E4297CBE54EF7AB38EAE301C067E1870
:1025600001AA80047E1802047A1F025E7401CAB8B0
:102570007E1F025E6D227E14005A803D7CBE30E5D7
:10258000157CBE54DF122639CAB87E348EAF6D2258
:102590007E17817980237CBE30E60F7CBE54BF124B
:1025A0002639CAB87E348E9D80097401CAB87E353A
:1025B000140B346D227E178179122653DAB8122358
:1025C000BF8065301C067E1801AA80047E180204B4
:1025D0001223AC8053E5A4B4C01B7EB38E12440119
:1025E0007AB38E1274C07AB381801260E37E1001D8
:1025F0001223BF8033E5A4B4050E74057AB381803D
:102600007EB38172F5A480237EB38E1244087AB320
:102610008E12E5A424C67813301C067E1801AA8009
:10262000047E1802041223AC1266C0A9C1A3DA0BFF
:10263000DA1BDA2BDA79DA7B327AB38EAE740122C6
:102640007E2F81730B560B2A105E20FC226D227E9A
:102650001781797CBF232354010354807C1B4E10C7
:1026600001227E34593B302142C2217E39500A2555
:102670001223A17A27697C095300010A251223A19C
:102680007A27697E095300020A251223A17A276955
:1026900082095300030A251223A17A27698409734A
:1026A000000512F06A3E347A37698C221223BF7E0D
:1026B000378179227E0F8ED42E14002422A2069216
:1026C0000912647B12F37212EDB712F36912EDB7BF
:1026D0001280811227DF0226D97D123E342E34A0CB
:1026E000006D221B1A1022A208920912647BA20814
:1026F000920912F37212ED7DA208920912F3691287
:10270000ED7D1280811227DF0226D9CAF86CFF7492
:10271000EEACBF7DD52ED4010012F3C20AC73EC471
:102720003EC43EC40BC6097559AC0AB73EB43EB4AC
:102730003EB40BB67EA4002C7AA52C7EA400087AA9
:10274000A52E12F28B7D3C7D2B12EEE67D3C7D2B7F
:1027500012EE517D3C7D2B742A12ED6512F132127E
:1027600026D912F1231226D912F1141226D912F108
:102770003212278A12F12312278A12F11412278AA1
:102780000BF0BEF0044088DAF8227D123E342E347D
:10279000B0006D221B1A10221220D65E607F12EE4E
:1027A000795E700F1B0A30C2011227CED2080226B2
:1027B000E712F0207806E47AB38E8F221220DA5ED8
:1027C00070FB1B0A3012671712F141026460A2010C
:1027D00092027E0878EE12ED531227E20226D912F9
:1027E000278A7E3400277E2778EE2274017AB38E02
:1027F0008F7AB38E88226D337E0F8ED4224E700274
:102800001B0A3022E47AB359606D337A378EB97A75
:10281000B38E9A12F3CBC200122ED67E340520CA94
:10282000397E1F2D2A7E0F2D2E1205241BFD122806
:102830003712CFEB020C5FE47AB38D6F12F2A31262
:10284000EF65C20412285712EAAB400674037AB34C
:102850008D6FD204022857A2AC920512F2FD30040B
:102860000A0B160B0A304E700380080B160B0A3049
:102870005E70FC1B0A30A20592AC221229A9C20488
:10288000122857C20C300B18D204122943C20B1263
:102890002169122F29122FD67401122EF11200F481
:1028A000D2040228571228047EB38EC9B4030280D2
:1028B0000221317404125FF8122965122B277EB3AE
:1028C0008DB020E7077EB38DC1B40160122B146870
:1028D00005C20412294312287B300E0AC20ED20010
:1028E000122ED6122837122B146805127B9F800EE9
:1028F000127AC27EB38DDC7E738E8E127BC87EB35D
:102900008E8FB4010A122B146805C2041229437E6B
:10291000B36F93B4010C1295A612CC76124E3D12F1
:1029200017787EB38DB0547F7AB38DB0123FD0014B
:10293000A8D224D204122943120007020C2B122819
:1029400037D204124703801112F3FC40031246CF22
:10295000300B031246CF1229A912F3F468EA3004AF
:10296000030244842212287B7EB36F94600D80069C
:10297000122B2712287B124CC250F57EB36F956044
:102980000D8006122B2712287B124B7D50F5022951
:1029900091301D147E340008CA397E638E8812F28D
:1029A0002B1205241BFDC21D2230313912308F78C5
:1029B00034C2317E342800122B1C7E341000122BBE
:1029C0001C7E34F700745A1229E67E34F70174A590
:1029D0001229E67E34F70274951229E67E34F70355
:1029E00074270229E62212F00A0A3B7E0F8ECF7965
:1029F0003000081266F0E47AB38ED3800E12F187AD
:102A00005E3400016805122FE5800512F21168EDB1
:102A100012E7D612E7C978FB022A1B6D331B0A3076
:102A2000C2CC22125784780241DA7E738EE8BE70DF
:102A300008500241DAE47AB38EE830340241DA7E9B
:102A400034AC00122ADB7C9B7E340A00122ADB7A2B
:102A5000B37D287E340B00122ADB7AB37D297E34C5
:102A60000D00122ADB7AB37D2A7E34F801122ADBAC
:102A70007AB37D2B7E34F802122ADB7AB37D2C5E8A
:102A8000900178137EB37D28B49C0C7EB37D2970B1
:102A9000067EB37D2A60114C9968097E34AC0074BF
:102AA000011229E6D23480127EB37D2BB487097ED1
:102AB000B37D2CBEB0196802D23430341D7E342868
:102AC00000E41229E67E341000E41229E6A9C0943D
:102AD0007E340002126429A9D0942212F00A6D33C8
:102AE0007E0F8ECF7930000A1266F0E47AB38ED36F
:102AF000800E12F1875E3400016805122FE5800513
:102B000012F21168ED12E7D612E7C978FB6950009E
:102B10000A022A1B7EB38DC1BEB00122E41229E64F
:102B20007E3400460264297E3409C46D227A278EE1
:102B3000C57A378EC722CA3B7CDB7E3403E87A3500
:102B40002D7E343E807A352F7E376F960B367A3560
:102B5000297E9003AC9D09A459E10ADA6DCC7E145C
:102B600005DC7F161203677F01097459DF7CB760AB
:102B70000C1E141E0450034E20801478F47D217A1C
:102B8000252B7EF400047CB760053EF41478FB0A24
:102B9000EABDEF68167E143E8012F2C77DE37AE547
:102BA0002F7E1403E812F2C77A352D122EAD7E3433
:102BB00002D8E41200267E087D287E3402D874FFF5
:102BC0001200267E08138612F1AC7EC005122B2758
:102BD000BEC00758137E3400017CBC60053E34142F
:102BE00078FB7CB7F52880037528C0BEC006581D49
:102BF0006D7780110A2D12EB7C2D3712EB8C452856
:102C00007A39B00B747E376F96BD3738E7122EAB2A
:102C1000122CC612293E7E1813867A1D317E352D60
:102C20007A35377E352F7A35397CBC7E352B7E0858
:102C30007D287E51287C4D12EAF7200B06200C03DC
:102C4000202F07202F7DD22E80791BC0BEC00048C8
:102C50000261CD7EB38DD0B401107EB38DD1B401AD
:102C6000097EB38EADBEB00268346D7780287D27B3
:102C70003E2449321386BE352D2819BE352F5014F7
:102C800009777D28BE70FF680B0A0D122FF42D27DF
:102C900019725A000B747E376F96BD3738D0122EDA
:102CA000AB122CC67CBD1278B750157E0862887EA8
:102CB0003529740C12002674037E086288122CC613
:102CC000122FD6DA3B22CA3B7F607CAB6DEEBEA0F2
:102CD000044002A1D77408A409B559AFF5317403B3
:102CE000123D9E7EA769D97EB769D72DBA7E087A34
:102CF0004A7E34016D74FF1200267E087BB77E3455
:102D0000016D1200266D7780117D373E34492369AD
:102D1000F3122FEC19727BB70B74BDA738EB7D7AD9
:102D200080117DA73EA4492A69F3122FEC19727A0B
:102D30004A0B74BDB738EB6D337DF37DE37D737D56
:102D4000271E241E247CAF7E0779127CBA60051EE4
:102D5000041478FB5E04000F7E17791612F37B785B
:102D6000027DF27E0779247CBA60051E041478FB8C
:102D70005E04000F7E17792812F37B78027DE20B48
:102D800076BE74000F40B812F0F67D737D372D3F8C
:102D900009737A4A19777B6E7D372D3E09737BB7AD
:102DA00019777CDB0B74BE74002478E07ED131741B
:102DB000EEACDB2E6401002E6400357E0880007EC0
:102DC000187A4A122E9D123B8B7E0880007E187B5B
:102DD000B7122E9D123DF8DA3B22CA797F717EA090
:102DE000256C776C666C556C44C1797C97AC9A0AFB
:102DF000D42D4D7EF049ACF77DD7A5BC000B7EC429
:102E00000124122E8B7DC7802AA5BC12127EC4011C
:102E100047122E8B7DB77EC4014812F2738014A531
:102E2000BC24157EC4016B122E8B7DB77EC4016C51
:102E300012F273122EC7803FBE4012501E7EB401A4
:102E4000259DBD0AC62DCB122E8D7DB77EA40126F1
:102E50009DAD0AC6122EBC0B61801C7EB401499D3B
:102E6000BD0AC52DCB122E8D7DB77EA4014A9DAD26
:102E70000AC5122EBC0B510B40BCA42802A1EB0BBF
:102E800070BE70055002A1E3DA79229DCD7F572DE7
:102E9000BC7E5BB00ABB7D7B7CEF6CFF22122DDA1F
:102EA0007D367E0880007E2400B9227CBD0A0D7E1E
:102EB0001402D8AD102E145A006D00222DCA7F477F
:102EC0002D9C7E4BB00ACB2DCB7EF002ACF97F500F
:102ED0002DB71B5AC0226D337A378E97D204122930
:102EE00043123835124841122F29A200E433022E32
:102EF000F17CABE47AB339627AB339636C776D22D3
:102F00007E901EAC975924396759243969E419B465
:102F100039660B70A5BF03E6E47AB339BF7AB339DB
:102F2000644CAA68031200F4227E1F2D2E7A378E7D
:102F3000BC7E638E880A06122FF42E245A007A274C
:102F40008EB56D227A278E957E2469F37A278EA816
:102F50007E240008CA297E700812F22B1205241B59
:102F6000FD7E340005CA397E638E88AC672E3459E5
:102F7000CB6D227E088DF01205241BFD7EB38E885A
:102F8000123B36122FCE097559EB7A738DD0122F62
:102F9000CE097559EC7A738DD1122FCE097559ED82
:102FA0007A738DD2122FCE097559EE7A738DD312A2
:102FB0002FCE097559EF7A738DD47E738E887A730C
:102FC0008DE0022FC57E738E8F7A738DBC227EA317
:102FD0008E887405A422E47AB38E90022FDE6D33BE
:102FE0007A378EC02274017AB38ED3227F062D17D2
:102FF0007E0B70227E1402D8AD107D21227C7B7E58
:10300000A0FF7CB7248C682424FB683014684C141F
:10301000683A14684B146848240778707E1F8ED471
:103020006951000E5E5400047CAB80607E1F8ED41C
:10303000695100065E5400017CAB80507E1F8ED427
:10304000693100065E3404000A56800712308F0A88
:10305000561E541E541E547CAB80317EA1EF802C32
:103060007E638E5C7CB6047AB38E5C0A2609A28EDF
:10307000687EB38DD6047AB38DD670097EB38DD5B4
:10308000047AB38DD5A5BF7D03751F7C7CBA227EE3
:103090001F8ED4693100065E3408002212308F780A
:1030A000097E34B480740A0229E62275A400E41271
:1030B000315112E93D12E70012E7EA12E79C122BA8
:1030C0002712E7E312E69312E79712E69812E69FBB
:1030D00012E71E12E72812E73812313612309C121E
:1030E000600012E75812E5B112E83BD2AF90018AB6
:1030F000E493CAB812312E7E244331DAB812316C0F
:1031000090018AE493CAB812312E7E244121DAB8A4
:10311000123184023116A927C11312308F780E7E26
:1031200034F31E122ADB7E34F4C10229E622900118
:103130008BE4937C7B2212EE99E47E3401F402311D
:10314000417CAB7402A47E0F8ED82D15793000100F
:1031500022D2CFA9C7CBF5CC75E600C20002316000
:10316000A9D5C312645CA200A997C122543F5E7026
:103170003F12EF49593100327E378EE35923001454
:10318000A9C6CB2212EF495931003E7E378EE35952
:1031900023003C1231A94E70101B2830A9C6CB2247
:1031A0000A5B030354C07CABE47E278EE32E24002D
:1031B000380B28302212331F1231A91237FDA20515
:1031C000E4331231A04D351B28301232D60231D0F3
:1031D0006930000A1231F7A9C6CB227A377D307EDA
:1031E000087D28A9D6CBC23812332212354C12F3EF
:1031F000041232DC0231D07D037EA1CD75CD00C238
:10320000AF8002D2AF7EB38E1220E2F77D204E5007
:103210000112360A4D121B38106C99000B90BE90AB
:103220000878F8D2AF80427E178EE30B18105E1438
:103230000008BE1400087831C2AF8002D2AF7EB35E
:103240008E1220E2F7BE0400D078077E340002120E
:10325000646012360A4E30041B3810D2386C990064
:103260000B90BE900878F8D2AF12F1955E348000D2
:1032700068B50B28304E60401B28306D221232E0BA
:103280007AA1CD227F7112EE9D12F16B1233537C25
:103290004B6C55E5280A3B4D321236122977000255
:1032A00012F06A7E7B406C554D23297700047C64C4
:1032B0004C75123552297700017C47297700037C31
:1032C0006412367A1231A91237FD6D221232E07E75
:1032D0003400300231D429B0000354077C4B6C55C4
:1032E0007E378EE31B38202212331F6930000C1208
:1032F00035526930000E1236121232D60231D0A980
:10330000D6CB693000021236716930000412F21E09
:1033100012333E6D221232E07E3400600231D4A9B5
:10332000D6CB693000047E278EE359320004693021
:1033300000067E278EE359320006693000087E279A
:103340008EE3593200087E0B707C476C5529700063
:10335000010A372D327E278EE35932000C22CAF83B
:103360007F707E7BF029770001BC7F28027CF769A3
:103370001700066D007E3400F274FF1200267F07EE
:103380001232FFA9D6CB6CAA802D6C77801F7E10DD
:103390000BAC1A0A172D013E04691700062D106D9B
:1033A000000B0A206E24FFFF1B0A200B7029670008
:1033B00001BC6738D90BA07E7B60BC6A38CC69370A
:1033C00000061236717C4F6C550A3F1233536D2242
:1033D0001232E012F2FD12F3571B0A30D2AC7E34E7
:1033E00000D01231F712465A6CAABEA00450157EC6
:1033F0007004AC7A1234564944002660341E4414DA
:1034000078FB802DBEA00850140A3A1B36123452A5
:1034100049440028601B1E441478FB80140A3A9E1D
:103420003400081234524944002A60051E441478BE
:10343000FB5E44000F7E5002AC5A693700062D3205
:103440006D221B1A400BA0BEA00B409EA9C6CBDA72
:10345000F8223E343E347CB77E478EE322A9D6CB99
:10346000692000047E578EE3592500046920000876
:103470007E578EE3592500087E0B500A557CABE43D
:10348000295000010A252D257E578EE35925000C71
:10349000295000020A2512F36012367A6D22123288
:1034A000E07E3400400231D47F7112F3DC123671B9
:1034B0006930000812F21E12EEBC297000017C4730
:1034C0006C557E0B70123351297000020A371B3481
:1034D00012367A6930000A1235526930000C123601
:1034E000126930000E7E278EE359320012693000D7
:1034F000107E278EE359320030297000037C47127A
:1035000032DE7E3400A01236694923001A7A7B50DD
:103510004923001C3957000149230016792700026E
:10352000492300187927000449230022792700063F
:1035300049230024792700084923001E7927000A1F
:10354000493300207937000CA9C6CB22297000022C
:103550000A377E278EE35932000E22CAF87C8B7E12
:10356000681DC67E93699C7A937D297E93699B7AB8
:10357000937D2812F0A8BE800278067E6828068017
:10358000047E681DC66CFF7E701EAC7F09B3397265
:10359000606EBE8002780649F33981800449F339B0
:1035A000797D3F7A377D2C7D3D7A377D2E7D3F12A8
:1035B00031DB7EB38E881278B7400D7EB38E5F709C
:1035C0001C7EB38E8FB4011512368C7A377D2C7E1B
:1035D0003422E67A377D2E12368C1231DB302D15EF
:1035E0001236837A377D2C7E3428067A377D2E1268
:1035F00036831231DB6CAA7E701EAC7F19A3397240
:103600000BF0BEF0034080DAF8227E378EE30B38F1
:1036100010227E278EE359320010227F20A9D6CBBC
:10362000691200047E078EE3591000046912000835
:103630007E078EE3591000087E2B307C036C112925
:103640003200010A132D107E078EE35910000C1270
:10365000F3601236126D221232E07E348040123650
:10366000694933003AA9C6CB221231F77E378EE37F
:10367000227E278EE359320004227E278EE35932C0
:10368000000A22741EACBF4935398122741EACBFBA
:103690004935397D227DF17DE27DD3127FFB129386
:1036A000C57E087D287D3E7D2F02361B7F617F70A1
:1036B000127FFB1293C17D3F7A377D307E3400202C
:1036C0001293B80231E3CA3BF5347F317A0D2C12E4
:1036D0002837753500803D300B031246CF1246FA6D
:1036E000E535701B7E180E667A1D367E0D2C7E1811
:1036F0000E661236AC7E0D2C123733053580157EE2
:103700001813867A1D3A7F037E1813861236AC7F13
:103710000312373312F3F468BE1244847E1818A6DD
:103720007E0D301236AC7E0D307EB359C012373D5F
:10373000DA3B227EA1347408A409B559B07F600A2F
:10374000FB1256287C7B0A572E54000B7E18000172
:1037500060052F111478FB2F112F117D1F1203709C
:10376000BEF4000468387E33699B7A337D287E334B
:10377000699C7A337D29740B7AB37D2A7DED7AE7D3
:103780007D2C7AE77D30BEF40002380BE47AB37DFD
:103790002A7E3400048D3F7E087D2802345D22CAD3
:1037A000F87CFB7A1D307A0D2C7E180E667A1D345B
:1037B00012293E7E0D2C7E1D341236AC20030D7E68
:1037C000B38E5F70117EB38E8FB4010A7E1813869C
:1037D0007E0D301236AC7E0D2C7408ACBF1237391A
:1037E00020030D7EB38E5F70117EB38E8FB4010AFD
:1037F0007E0D307408ACBF123739DAF8225E60BF34
:103800001B2830222452680A0478296D337A378EB7
:1038100097227E63699B7E73699CAC763E347A37CF
:103820008E971E340A367A738DCC7E378E971E346F
:103830007A738DCD221257847807E47AB38E88800C
:10384000127EB38E88B4020874027AB38E88800325
:10385000123B077AB38E8F74021238957EB38E882E
:103860002400680E24FD68070BB1780C0227B10212
:103870003B07E4123895800002387B12F02078066E
:10388000E47AB38E8F221220DA12E83412EE631239
:10389000F141026460CA3B7CEBBEE004400241E1BE
:1038A0007408ACBE09F559AFBEF004400241E1090D
:1038B0007559AB0A471286730B467A452809755924
:1038C000AC0A673E643E643E640B667E503CAC5F6F
:1038D0002E2479520B28304E70011B28307408AC0E
:1038E000BE097559B22E70FF920112E96412EE1BE7
:1038F0007E9008AC9E09B459AEF52A7E703CAC7F30
:103900007D13123B002E3479846D2209B459AD1217
:10391000EDC87E303CAC3F123B007E3528123AF4B5
:1039200012F2977D36123AFA7E303CAC3F2E147973
:103930005E6D007408ACBE09B559B012ED4412F2C8
:10394000977403ACBE09B559DF12466A124DFD6D7E
:103950003312000E7E303CAC3F123B2F7E7005AC24
:103960007E123F9F7E303CAC3F123B2F7405ACBEB5
:10397000123F69123BA1ACBE123F82123BA1ACBE0A
:10398000123F25124DDC12000ED20112EE5712EE3C
:10399000057E303CAC3F2E1479686D00123B206DE3
:1039A00022123B1712462D12F27F123B20123B17B8
:1039B0001246357E503CAC5F2E2479660B28307E53
:1039C000340002743CACBF5935796E743CACBF59BD
:1039D0003579706D33743CACBF593579727E3422C1
:1039E00005743CACBF593579747E340006743CAC28
:1039F000BF593579767E340012743CACBF593579A5
:103A000078743CACBF5935797A743CACBF59357980
:103A10007C7E340808743CACBF5935797E6D3374B4
:103A20003CACBF593579867E340001743CACBF593B
:103A30003579807E340C1C743CACBF593579827E5C
:103A4000503CAC5F2E2479840B28304E3441961BB9
:103A500028307E341F00743CACBF59357988BEE0F5
:103A60000378197E340351743CACBF593579627EBA
:103A7000340404123B0E7E34042980077E340A1974
:103A8000123B0E743CACBF5935798C7E34002C7AD5
:103A9000352C7E3400087A352E12F28B7E35287D47
:103AA0002612EEE67E35287D2612EE517E35287DE3
:103AB00026742A12ED657403123D9E74EEACBF7D30
:103AC000B52EB401007D3B12E9647E24001E123B3A
:103AD0008B7D3B2E34000B12F27F7E240003123DBF
:103AE000F8DA3B220B0A305E34FC001B0A304D3200
:103AF0001B0A3022123FF3023AEB123FF3023AEB79
:103B00002E1479546D002274017AB38E8822743C8D
:103B1000ACBF5935798A227408ACBE09B559B122B7
:103B20007E7005AC7E2E3459CB227E303CAC392ED3
:103B30001479646D00227C8B7408ACB8099559AF78
:103B4000123B2A7E7005AC78123F9F123B2A740507
:103B5000ACB8123F697E303CAC39123BA6ACB8120F
:103B60003F827E303CAC39123BA6ACB8123F257484
:103B700003123D9E7E70EEAC792E3401002E34008F
:103B800009123B2A7E240002023B8B7D533E542EB9
:103B900054A0006D446D33800312EF30BD3240F904
:103BA000227E303CAC3F2E1479666D00740522CA2B
:103BB000796DEE7403123D9E7EC769D97ED769D7B1
:103BC0002DDC7E087D287E34005CE41200266DAA80
:103BD000801E7DBA3EB449BB69F3123D977E140046
:103BE0000160053E141478FB7D2B123D8E12F08788
:103BF000BDCA38DE7DAC802B7DCA3EC449BC69F3AA
:103C0000123D977E24000160053E241478FB7D3B25
:103C1000120B5B3E342E347D280B38C04DC21B384E
:103C2000C00BA4BDDA38D16DAA80287D3A3E342E6F
:103C3000340192123E167D525E54000F7E34000114
:103C400060053E341478FB123D883E242E247D28E6
:103C500012F2D1900191E4930A3BBD3A38CD6DAA9E
:103C600080287D3A3E342E3401A3123E167D525EEA
:103C700054000F7E34000160053E341478FB123D81
:103C8000883E242E247D5612F2D19001A2E4930A9C
:103C90003BBD3A38CD6D337DF37DE37DA37DBA1E08
:103CA000B41EB47D2A7CB57E17791260051E1414EB
:103CB00078FB5E14000F7E277916123FEA78027DAA
:103CC000FB7D2A7CB57E17792460051E141478FBD1
:103CD0005E14000F7E277928123FEA78027DEB0BF5
:103CE000A6BEA4000F40B612F0F67DA37DBA2EB496
:103CF00001247D5A2D5F12F1B43E4449747D285E43
:103D000054000F60051E741478FB123D970A1F6063
:103D1000053E141478FB7D2B123D8E3E242E247D0F
:103D2000280B28304D311B28307D5A2D5E12F1B4FE
:103D30003E4449747D565E54000F60051E7414782D
:103D4000FB123D970A1F60053E141478FB7D2B1271
:103D50003D8E12F087BEA4002478916DAA7E940057
:103D6000EEAD9A2E94011E7D397E087D287E2400BA
:103D700017123B8B7D397E087D56123DF80BA4BE91
:103D8000A4000440D8DA79227D136E14FFFF1E24AC
:103D90001E241E241E24227D5B5E54000F227CAB59
:103DA0007E0878E07CBA123F387E087920123F38CE
:103DB00012808102278A7EB769D77EA769D9E4126B
:103DC0003D9E7E3401007E0869E36D22123E0E7E28
:103DD0000869F37D2A123E0E7D1A3E142E1469F3F3
:103DE0006D007D2B123B8B7D3B2E3401007E0869DC
:103DF000E37E240004023B8B7D533E542E54B000DE
:103E00006D446D33800312EF30BD3240F922123D14
:103E1000F87E340100227E2400FF0B1A2022CAD82B
:103E2000CA797CF67D927CE77CDB12F40419A089C8
:103E300089E419B0898B19B0898C19B0898A7E847C
:103E400002A07D387E2400FF0B1A001E041E04BD54
:103E5000014008123F167E500180257D38123E1623
:103E60007E340003AD327D031E041E04BD013813F1
:103E70007E3402A0123F1DBD814008123F166C55D2
:103E8000129EEE7E340292123F1D1E841E84BD8956
:103E90002808123F167E500180277E340292123E7F
:103EA000167E340003AD327D831E841E84BD89508E
:103EB000137E340292120971BD394008123F166C0C
:103EC00055129DA31287D0680DBEB0026808BEB01F
:103ED000036803B404247439ACBF09758989096582
:103EE000898B196589891975898B0975898C09658B
:103EF000898A1965898C1975898A7E5039AC5F0960
:103F000062898C1E602E24898A7E29702C767A29FB
:103F100070DA79DAD8227CBD7C7E7C6F227E240028
:103F2000FF0B1A802209B559EF0B0A305E60F31BB4
:103F30000A3012F0D80223580B0A305E7003B40323
:103F4000054E700C8006B404034E70101B0A30221C
:103F5000CAF812E94A123BAF6CFF7CBF1238950BCE
:103F6000F0BEF00440F4DAF82209B559ED0B0A303E
:103F70005E603F1B0A3012464E0B0A304D351B0A5D
:103F8000302209B559EE0B0A305E60CF1B0A30545F
:103F9000030A5B1243540B0A304D351B0A302209C9
:103FA000B359EB097359EC0B0A205E40C31B0A207E
:103FB00054030A5B1243540B0A204D251B0A207C34
:103FC000B712F0D8022358128018120008023F508E
:103FD000122FC57E738E5E7A738DB712F3CBE47A9F
:103FE000B3696E7AB3696D020C2B0A245E24000F4C
:103FF000BD12227D230B0A305E34F80022123FF5F9
:104000001B0A304E352E1B0A30227C6B6C777EB338
:104010008DB0C47C5B5E5007A5BD0402800201DA4E
:104020007CB62496BEB02C400201F17EA003A49081
:104030004033730240B70240B70240BE0240BE02A6
:1040400040C50240C50240F10240F10240F1024089
:10405000F10240F10240F10240F10240F10240F170
:104060000240F10240F10240F10240F10240F1024F
:1040700040F10240F10240F10240F10240F1024001
:10408000F10240F10240F10240F10240F10240F140
:104090000240F10240F10240F10240F10240F1021F
:1040A00040F10240F10240F10240F10240CC0240F6
:1040B000CC0240D30240D31240F44401802F12407E
:1040C000F4440880281240F4440280211240F44451
:1040D00020801A1240F444408013A5BD0013BE6036
:1040E00001400EBE606E38091240F444107AB38E5F
:1040F000AE7CB7227E70017EB38EAE22CAF86DFF11
:104100007EB38E1230E00330E3071242B3F5A441D0
:104110007E1242E37DE3BEE40002500241647E1D54
:10412000167E1BB0BEB0C06803B43F0C74807AB377
:1041300081727E70801242937E6D167E6BF0BEF0AF
:10414000C0680221E629A600017CBA30E60F7E1F76
:10415000817C6931000A4D3368031242A87EB38125
:104160007230E202417429B60002F51F7AB38178F9
:104170007AA381777CBAC4037C7B5E70017CB70331
:104180000354C07C7B7CBA54BF4CB77AB381777C34
:10419000BA540FBEB003400469F600037AF7817980
:1041A000BEF4000038024174740112428A20E70212
:1041B00041746D447EB5140BB46DAAE51F7D3F7F3D
:1041C0000512400A600241748012E51F1242C47D4C
:1041D000340B442D3B7D2A7A1BB0051F7D5F1BF4F9
:1041E0004D5578E641747E6BB0B43F6A7EB3817BF7
:1041F000B40163E412428A20E77A30E50F7E1F8122
:104200007C6951000A4D5568031242A87EB3817241
:1042100020E2616D447ED5120BD46DCC7D5E1B54C3
:10422000BE57817928087E5781797DF580047DFE0F
:104230001BF47EB38178F51F8012E51F7DE40B44EB
:104240007F162D3E7E1B70122096051F7D5F1BF48E
:104250004D5578E6801EBEF00568194CFF681512B2
:10426000429D80107E1D167E1BB0BEB005680560A5
:104270000312429D1242B37E738172124293E47A1A
:10428000B381807AB38181DAF8227AB3817B7EB3FD
:104290008177227A71A47E55147A5970227EB38177
:1042A0007244087AB38172227EB3817244047AB375
:1042B0008172227EB38172547F7AB3817244017A13
:1042C000B38172227C7B6CAA12463D78097CB712BE
:1042D00045A87CAB800AB404077CB71210067CABFF
:1042E0007CBA2275A6007E61A65E603F75A6407E00
:1042F000A1A65EA03F75A6807E71A65E703F0A2AC9
:104300001223A13E240A561243544D257C644C7559
:10431000227C9B298100020AE87D5E7CABE47DE57E
:10432000298100030A58C454F07CABE42DE52981AF
:1043300000010AF83EF43EF43EF43EF42DFE7E1BEE
:10434000800A582D5F1B0A50298100040A387930F1
:1043500000020A59C454F07CABE4227C347C257CF6
:10436000A67C177C0B12459E5E80037CBA12464EDB
:104370004D457CB054030A5B1243544D457CB15407
:10438000037C0B6C113E043E044D401B1A407E34EE
:10439000A0140B1A405E80C37CB254030A5B124324
:1043A000540243A44D457CB354030A5B7CABE43E0A
:1043B000543E544D451B1A40227EB38E887E7002B7
:1043C0007E60027C367CB712459E5E80C354030A31
:1043D0005B1243540243A47EB38D6FB4010280028A
:1043E00081767E738D6CBE738D6E286C7E638D6E50
:1043F0007E7009AC6749538D7A7CAB7E438D777EA6
:104400005002AC452D3249338D7C7A35554D336899
:1044100047D2351BA068101BA0680C1BA0681A1B94
:10442000A068040BA27831E41244A7300F04740290
:104430008002740112447A801F74011244A7300F65
:104440000474028002740112447A74037E70036C57
:10445000666C556C4412435B124645381C74027AF4
:10446000B38D6F7EB38E8F70101243B91220D65E5B
:1044700070EF1B0A3022024484227EA38D770A3A11
:1044800019B38D70A2AC920A7E0F8ED40B0A305EE7
:1044900034100068087E34100079300002C2AC127B
:1044A000465AA20A92AC22CA797C3B7EF5556DEE43
:1044B0007EA38D774C3368047E7818A6203502A140
:1044C0008DA9D7EA7E076F967E240009A5BB00233D
:1044D0006D337DD33ED47E5F7A422DBD69450006A3
:1044E0007EF014ACFA2DD7594D79340B34BE34001C
:1044F0000578DF7D323E347E5F7A422DB37F472ED2
:104500009400006D447D34800C0B5AD01B4AD00BB4
:10451000B50B950B347ED76F96BDD338EC2D2D7D22
:10452000347CB77EC4000160053EC41478FB7E2352
:10453000699F0AD25DDC68147DB20B243EB47E6FA5
:104540007A422DDB0B6AB012459080076DBB124595
:10455000900B240B34BE34000478C6A5BB00297D23
:10456000347D432D423E447E0F7A422D1469400033
:10457000067E3014AC3A7D033E042D105941792A51
:104580000B34BE34000578D9A9C7EAC235DA7922DE
:104590007DA00B043EA47F672DDA1B6AB0227E3417
:1045A000A0126D220B1A40227003024681BEB00396
:1045B0003813301C067E1801AA80047E1802047A83
:1045C0001F025E8005BEB06E380E0A1B7E1F025EA3
:1045D0002D311B347E1BB022BEB0D36803B4D4127D
:1045E000B4D30A6D337A378E10C2198002151F02B8
:1045F000580DB480057EB3593B22BEB080280CBE56
:10460000B0EF38070A3B09B358BB22B4FC057EB3B0
:10461000596222B4FD05A231E43322B4FE0C7EA31C
:104620008E887408A409B559AB2274FF2212431175
:10463000795000042212431179500004227EB38D78
:10464000B0C45407227E738D6CBE738D6D225403EB
:104650000A5B030354C07CABE4227E0F8ED40B169E
:104660000B0A304E60101B0A30220B0A305E600FBE
:104670001B0A300A5B1243540B0A304D351B0A30BB
:10468000227E738DB07CA75EA00F7CB723540103FC
:1046900054804EB38E134CBA22200D03124484E48E
:1046A0007AB38E6274037AB38D6F74027AB38D70AD
:1046B0007AB38D71221246BF202F03024699223011
:1046C00030031247F12212578078030246B5223098
:1046D00030061247F10246992212470312F3FC40BA
:1046E000031246CF300B031246CF7EB38D70700697
:1046F0007EB38D716002D322C3221247031246DCBF
:1047000050FB22E47AB38E922212470380031247B1
:104710002F1246DC50F8222012061247E81200162B
:10472000124D6B1246D9400612470902001622802C
:104730000B1247E11246D9401620121312E48E7074
:10474000F01247E112E57174027E709502E4C7220F
:104750001247031246DC4006124709120016C2082F
:104760001226E7C20012E61280167EB3598B600D46
:104770007EB38E63700712E4938005800012472F8A
:104780003012E77EB38E63BEB0002805147AB38E74
:1047900063D20012E612D2080226E724AB68102486
:1047A000EF681C24DE682624DE782F7405802D7EB9
:1047B000B359FFB4052A12642512E6A302E9707EFC
:1047C000B359FFB4051A12642575E9FF227EB35967
:1047D000FFB4050C12642502001774017AB359FF67
:1047E0002274817AB38E5D22800312472F3012FA31
:1047F00022A9D2EAA9C2EAC230C22F2275E76BE42D
:104800007E3401047E2400FE7A1BB07E3401057ADA
:104810001BB075E9FF22E47AB3596012001E12EA58
:10482000C9124830C2187EB3595FB40102D2862241
:10483000123B077AB38E8F1227B17EB38E8F024858
:10484000457EB38E8F7CAB1249801BA068111BA0E4
:1048500068151BA168160BA278171248CF80121298
:1048600048FB124917800A1248E880057401124972
:1048700069024874E47AB38D796CAA80137E70095A
:10488000AC7A09B38D822EB38D797AB38D790BA072
:104890007EB38D6CBCBA38E522CAF87CFBC200D26C
:1048A000016D337A378E577EB38E8FB40107D200F5
:1048B00074041248457CBF1249DD92013001057C29
:1048C000BF122B36300003124841A201DAF8226DE4
:1048D0003312490E7E578D4012492CE40248DF7A8C
:1048E000B38D737AB38D74227E34000212490E7E2A
:1048F000578D5612492C74020248DF7E3400011293
:10490000490E7E578D4B12492C74010248DF7E24DC
:104910000E667E141386227E34000312490E7E57E3
:104920008D6112492C74037AB38D75227C1B7D43F3
:104930007EA38D6CBEA006502E7E7009AC7A5943C2
:104940008D7A59238D7C59138D7EBE4400017806E3
:104950007E2418A6800059238D8019138D827CBA7D
:10496000047AB38D6CC322D3227E34000412490E24
:1049700012492C7E738E887A738D737A738D7422AC
:10498000E47AB38D6C12F2A37AB38D6F12EF657A6D
:10499000B38D7922301407D216C2140249C93017D8
:1049A0001B124DB1680E1248308003200B067EB3F7
:1049B0008EBE70F7300B0E12287B80093016067EF3
:1049C000B38E8F70030228372274027AB38E887AEE
:1049D000B38E8F12387B7EB38E8F0248457C2BC2FC
:1049E000027E333961741EACB3093539657CB2126D
:1049F0004A136C226CAA7E101EAC1A192039710B56
:104A0000A0BEA00378F03002087CB3124AAB122794
:104A10000BD3227CAB6C777E6339F7BC6778086C6C
:104A200066124A4AE48017124A5460053E441478DC
:104A3000FB124AA2680C7E6001124A4A740119B442
:104A400039720B70BE700340CE227E901EAC971957
:104A5000643971227E4400017CBA227CAB6C777E83
:104A60006339F7BC6778046C668022124A5460058B
:104A70003E441478FB124AA268067E6001124A98EE
:104A80007E636F950A265D2468067E6001124A984F
:104A90000B70BE700340C8227E501EAC571962399D
:104AA00072227E636F940A265D2422CAF87CAB6C66
:104AB000FF7E7008AC7F19A359AB0BF0BEF00478F1
:104AC000F06CFF7408ACBF09A559AB12EFE6123BBE
:104AD000007D3F123AF47D3E0B34743CACBF492557
:104AE0007954124DD912EFCFBEF00440D6DAF82235
:104AF0007CBF7E733961D21F741EACB709B53965AE
:104B0000124AAB02270BCA797CFBC2027CBF124A55
:104B10005B6CEEBEF002741E7805124CA1800AACEC
:104B2000BE49353979492539777A1D28741EACBEBE
:104B300009B53972602D124D587C7E124AF6D202A8
:104B4000302D13741E124CA17A1D30124C8E124C53
:104B5000961236C6800D124C8E741EACBE124C9648
:104B600012379F200B03300C09300203124AF0C3A6
:104B700080080BE0BEE003409AD3DA7922CAF8C27B
:104B8000007EF38E88200B03300C03C3818412F364
:104B90000B60053E241478FB124D60780281837C03
:104BA000BF1278B75002D200D20412294330001F3E
:104BB0007E736F950A375E34000468137E736F94BA
:104BC0000A375E3400047807D22D12E9BD8002C294
:104BD0002DA20092017CBF124B06400B302D051216
:104BE0004C87C22DC381847CBF7E7339F7124AF68D
:104BF000E47C7F127BC8302D0F7E1828067A1D308A
:104C0000124CAC1236C68006124CAC12379F302DB7
:104C100003124C87124AF0200B03300C05C22DC33F
:104C200080621228377CBF12355BE4122EF1124CE1
:104C3000BB60053E341478FB6E70FF5E736F957A2F
:104C4000736F95122FD6302D34C22D7E3428067EF8
:104C5000240BB87E142328123695BE340258500C0B
:104C60007EB36F9444047AB36F94800A7EB36F95D9
:104C700054FB7AB36F957E0818A612F1AC12EA1AAB
:104C8000D38001D3DAF82274037AB38D5522A201BE
:104C900092037E0D28224935397D4925397B7CBF19
:104CA00022ACBE493539814925397F22A2009203C1
:104CB0007E0F2D2A7E1822E67CBF227E3400017CE6
:104CC000BF22CAF87EF38E88200B03300C03C3A1E9
:104CD00055C22E124CBB60053E341478FB7E536FD8
:104CE000946C445C574D22686B4E736F957A736F6A
:104CF00095124D581248994003C38059200B062045
:104D00000C03302E03C3804D125285124CBB60053C
:104D10003E341478FB6E70FF5E736F947A736F94F9
:104D2000BEF00178297E3402D8CA397E185CD87E5C
:104D3000085FB01205241BFD74027E085FB0122CC0
:104D4000C67EB36F9454FB7AB36F94124EAD12EAE1
:104D50001AD38001D3DAF822D2041229437CBF226D
:104D60007E736F956C665C754D332230164230173A
:104D700011124DB168091248307EB38EBE70FA121E
:104D800028377EB38E8FB402277EB38E887E2400B0
:104D90000160053E241478FB7E736F94124D647895
:104DA00005124D60680774017AB38D7022022837AE
:104DB00022C217C2167EB38E88BEB001227EB32EE9
:104DC0007470147EB35960BEB003680B12BDE71255
:104DD0000C2B124D6BD322C3221226D97E703CAC11
:104DE0007F7D132E1479606D007A0D2C7D132E14A7
:104DF00079546D002E3479566D22124E097E303C66
:104E0000AC3F2E1479606D00227F210B0A205E409A
:104E1000070B2A105E20077E2D2C0B2A305E6003C4
:104E20002D122D137E0400C97E2400A7BE1400B8E5
:104E30006808BD016804BD2178020B342212C77ACC
:104E4000124EB8124E994005E47AB367907EB3676C
:104E5000906030E47AB38ECA7E088ECB7E34000236
:104E60001200267EA38E8E124A5460053E441478AA
:104E7000FB7CB94EB36F957AB36F95BEA0017803F2
:104E8000124EAD124E99400612967612CC557EB354
:104E900067966004E402948E227EB38E8F700C7E3F
:104EA000738E67BE738E904002C322D3227EB36F8F
:104EB0009544047AB36F952212BE6312BE9F124FBF
:104EC00052024EC4C2007EA32E75BEA002502E7E9A
:104ED000B3679060210A4A09B48ECBBEB36786508F
:104EE0000C7D342E348ECB047A39B08010E419B4A2
:104EF0008ECBD2008007E40A3A19B38ECB20002A69
:104F00007EB36790B4011EE47AB367967E736786BA
:104F1000BE738ECA280CE47AB367907EB38ECA043F
:104F20008004E48001E47AB38ECA7EB36796B4014C
:104F30001A7E736785BE738ECE280CE47AB36796AB
:104F40007EB38ECE0480067401800274017AB38E23
:104F5000CE227E4767707E0769807E340006AD30C2
:104F60007E14000412F1CF08057EA004801D7D3060
:104F70003E3412F1CD08057EA003800F7D3012F182
:104F8000CD08057EA00280037EA0017EB3678D6000
:104F9000037EA004302C037EA00412CFE660037EC3
:104FA000A0010A2A7E1402BD127D72AD3212F1BF39
:104FB0007EB36766BEB00028287EB3678770227E06
:104FC000376783BE3400024809128A957A376783AF
:104FD000800F7E6367857E7002AC677CB77AB367AB
:104FE000857EB35960B4010E7E2767837E34000549
:104FF000AD327A376783227E73677B7A73677C7EF4
:10500000738BC00A177E73696D0A272D217C657A20
:1050100063696E7E63019E0A260A379D327E5302C3
:10502000779D327A730276E47AB369717E738E5E0D
:105030007A735966227E54004E7E4400FF1252FF5E
:1050400030225BC2227E1400A57E34FFB012509F36
:105050007E14FF5A7E34FFB21B1A107E1400AA7E03
:1050600034FFB41B1A106D33125229BE340003787A
:10507000F71252437D137E34FFB612509F7E335990
:105080007B7E34FFB87A1B307E33597C7E34FFBA86
:105090007A1B307E3359467E34FFBC7A1B30227E29
:1050A0002400FE1B1A10227E34088D7E2400FF7E11
:1050B000147D341252E31252EB1B0A307E2400A5F9
:1050C0007E14FFD01B0A207E24FF5A7E14FFD21BC1
:1050D0000A207E2400AA7E14FFD41B0A207E24000E
:1050E000557E14FFD61B0A207E2400667E14FFD84E
:1050F0001B0A207E2400997E14FFDA1B0A2012521C
:10510000F46D442E4400FE0B2A2059217D340B34CB
:10511000BE34000640E87E087D341251A97D137E1E
:1051200034FFDC02509F7E3408997E2400FF7E14F9
:105130007D281252E31252F4125233BE3400067824
:10514000F47E087D281251A97D237E14FFDC1251C4
:10515000B0784A7E34FFD21251A17D236E24FFFF26
:105160007E14FFD01251B078347E34FFD41251A196
:10517000BE3400AA78277E34FFD61251A1BE340077
:1051800055781A7E34FFD81251A1BE340066780DCE
:105190007E34FFDA1251A1BE34009968030250A791
:1051A000227E2400FE0B1A30227E34000C02524B69
:1051B0007E0400FE0B0A30BD32227E5400547E4431
:1051C00000FF1252FF6D33125229BE34000378F7EC
:1051D0001252437D237E14FFB61251B0784A7E34BA
:1051E000FFB21251A17D236E24FFFF7E14FFB01287
:1051F00051B078347E34FFB41251A1BE3400AA7885
:10520000277E34FFB87E2400FE7E1B707A73597BA4
:105210007E34FFBA7E1B707A73597C7E34FFBC7E6D
:105220001B707A735946D221227D133E147D512E74
:1052300054FFB06D442E4400FE0B2A2059217D28D6
:105240000B34227E087D287E3400067D237E34FFC9
:10525000FF6D55802B7F702DF57E7B806C996DFFE7
:105260007DE46DE35EE4800068083E346E34102116
:1052700080023E343E440BF4BEF4000878E20B5446
:10528000BD2538D1221251267EB38EC9B401537E7A
:10529000538E88A5BD014B6D117D3180190A457E65
:1052A0005402D8AD547D052D0109405A00BE400579
:1052B00050020B340B147E43699C7EB3699BACB4E3
:1052C000BD5138D9BE34005028151252EB0B0A30AC
:1052D000BE340005500C0B341B0A3075E9FF220266
:1052E00050A722740C1204416D33227E14FFDE7E1F
:1052F0000400FE227D133E147D512E54FFD02269FE
:10530000320004692200020B2A107A1F7D2A7A17C4
:105310007D2822E5E920E7030250A7227EB38EE52F
:10532000047AB38EE57E738EE57A73594C22E47A63
:10533000B35960123B077AB36F93122169122F2978
:1053400012537912CFEB7401122EF112B4801200B5
:10535000F412BD340253579001B3E493601A6CAA5F
:105360000A3A2E3400061211110A3B2E3401B412EF
:1053700011110A3A19B38EDD227E340DAC022B2BAB
:105380007E340209120971122B2B1230AB1253C654
:1053900012F020681A7F201253BE4E60021B2A3082
:1053A0007E2F8ED41253BE5E70FD1B2A30800612F3
:1053B00020C91227FD12F2DC1253790200F42E5498
:1053C000000E0B2A30221277F912546012542E125A
:1053D000550A120FBA120979125414121FBE12C7BD
:1053E0000A1254021221BE0253EAD225D226129288
:1053F000587E182E7A7A1F03F17E18339A7A1F038B
:10540000F52212578468061227B10227EBE412270F
:10541000ED0227987E0865647E340219128FC27CE3
:105420007B740DAC7B7E0865E074FF0200267E185D
:105430001DC67A1F2D2A7E1804267A1F2D2E7E0F58
:105440002D2A12F1AC7E0F2D2E7E3405201200265F
:105450007E0804007E3400261200267AB32E7422C1
:105460007E34005ACA397E3401887E2400FF7E08CB
:1054700069991205241BFD1254B27E3769D92E3763
:1054800069D77A376F96900204E4937AB38EE190ED
:10549000018EE493CAB890018FE4937C7BDAB81252
:1054A000001A7E63699C7E7040AC671B347A376F4C
:1054B00098227E3469F36CAA1254F71254ECB42487
:1054C000FA0BA0800F1254F77D421B241254F0B443
:1054D00024F60BA0BEA00F40EC800B1254F7125420
:1054E000ECB424FA0BA0BEA01040F0227D420B24A5
:1054F0001B38400B3504220A1A6D002F002E0400C1
:10550000FF2E08086D0B0A20E4227E340008CA39F9
:105510007E3401E27E2400FF7E0859AB1205241B75
:10552000FD7E340008CA397E3401EA7E2400FF7E05
:105530000859B31205241BFD7E340008CA397E3495
:1055400001F27E2400FF7E0859BB1205241BFD7E5C
:10555000340008CA397E3401FA7E2400FF7E0859DF
:10556000C31205241BFD6C337CB31255F90B30BEFE
:10557000300440F40255777E088D407E34002CE4E0
:105580001200267E3400017A378D407AB38D427A3C
:10559000B38D437AB38D447A378D5674017AB38DC7
:1055A00058E47AB38D5974027AB38D5A7A378D6183
:1055B000740B7AB38D63E47AB38D6474037AB38D1C
:1055C000657E3400027A378D4B74017AB38D4D7A43
:1055D000B38D4E7AB38D4F74077AB38D5074017AC0
:1055E000B38D517AB38D52740B7AB38D53E47AB381
:1055F0008D5474037AB38D55227C5B12F31C7403B3
:10560000ACB5194559E17CB41256287C4B7403ACF7
:10561000B5194559DF7408ACB509B559B01256280B
:1056200012F40C19A359E0227CABE40A3A80031E61
:105630003404BE34000438F722302324C2237E739E
:1056400059397A73596074FF7AB359397EA3596016
:105650004CAA78051257698007BEA0017802D215BE
:105660003015031257207E378945BE340078280351
:105670001257197EB3596014685B1BB1687224031A
:105680006802E115125761380A1257596805125716
:10569000512818122FDE7EB3594130E07B7EB3597A
:1056A0008B600320102C30186F80277EB359413057
:1056B000E0667E378EC07E2403E88D327E535942E9
:1056C0000A25BD32500C7EB3598B604CBE340001AC
:1056D000404602572012576138107EB35941600A84
:1056E0001257596805125751280302EAE2C21022E4
:1056F0007E34020B120971122B2B12E51B12538000
:105700001257697EB38E8F70031228377EB38E8F47
:1057100060060249941257192274017AB359602223
:105720007EB38E8FB4010C7EB32E756006E47AB31F
:10573000596022C215125719122FDEE47AB38EC4B3
:105740007AB38EBF0257471257846804D214C21727
:10575000227E738BC0BE7000227EB303D7BEB00121
:10576000227E73696DBE700022E47AB35960D21252
:10577000122FDE0257761257846804D217C2142201
:10578000D20BD20E7E1F8ED4693100065E3400012A
:10579000227EA03B7EB35960B4010F7EB38E8F6032
:1057A000097EB38EC470031257477EB35960B401AB
:1057B0003B7EB38E8F60297E738EC4BC7A780620C0
:1057C00018031257767EB38EC47AB38EBF047AB3B1
:1057D0008EC47E738EC4BE703C2805E47AB38EC43A
:1057E0007EB35962BEB0016803025769227E378ECC
:1057F000C50B347A378EC57E378EC7BE378EC52827
:105800000302580522E59A6003A9D6DF227EA38908
:105810006F7E7004AC7A0B34BE378E1040397E3701
:105820008E100B347A378E10BE34000178057EB3AB
:10583000598E22BE34000278037CBA22BE340002A4
:1058400050097D231B2509B239FA229E3400032E0C
:105850003785827E39B02274FF22CA7BCA6BCA5B4D
:10586000CA2BCA1BCA0BC083C082A9C093A9D3A7E5
:105870001240FC7EA38E127CBA30E105E47AB38E2E
:10588000917CBA30E30A7CBA20E005E47AB38E91C9
:1058900075A7FFA9D1A37CBA54FB7AB38E1230E36B
:1058A0000654F77AB38E127EB38E1230E10C54FD9B
:1058B0007AB38E1254FE7AB38E127E738E9ABE70B5
:1058C000064005E47AB38E9AD082D083DA0BDA1BD5
:1058D000DA2BDA5BDA6BDA7B327AB38DB0C4540739
:1058E000B4040474038004700774017AB35962220B
:1058F00074017AB35962E47AB38DB0227CA77C3B01
:10590000A5BB9A0A7AA303DE125948125B1CA5BBF9
:1059100000077CBA1258D98013BE3080400EBE30CA
:10592000EF38097CB324807C7A12666EA5BBFC0537
:105930007CBA02479BA5BBFD08BEA05A7809D231AC
:105940002274017AB359FF22E47AB303DF7AB359A0
:1059500056227E3703DCBE34000028071B347A371A
:1059600003DC22E47AB303D8125B137EB303DE6058
:105970000E7EB303DF6005125948C286125B1C22FB
:10598000C200C2016D337A378E15125B287EB36771
:105990006670030259527EB3598B704D7EB3597DA8
:1059A000BEB001684412C49B9200C2013000157E53
:1059B0003402D51209717A3703DC7401125B1312B9
:1059C000C6ED8005D2011259527EB303D9601A2068
:1059D00001146C338005125B830B307E236766BC39
:1059E0002338F30259EA025B4E22CAF87E83699B90
:1059F0007EF3699C7E3402D37E2400FF0B1AF07E76
:105A0000A303DA7AA1287AA12A7EB303DBF529F56C
:105A10002BBEA0002831BCA8502D7E9303DA1A19A2
:105A20001B147C93801C6C00800E7CB9125B0848B0
:105A3000057A912880060B00BCF038EEBCF02807F0
:105A40001B90BE900058DF0A581B547E7303DA0A7D
:105A500017BD1558260A570B547C1B801A6C008002
:105A60000C125B0648057A112A80060B00BCF03840
:105A7000F0BCF028060B10BC8138E27E7303DBBE5D
:105A800070002833BC7F502F7E9303DB1A191B1440
:105A90007C93801E6C1180107CB17C79125B0A486B
:105AA000057A912980060B10BC8138ECBC8128074F
:105AB0001B90BE900058DD0A5F1B547E7303DB0A07
:105AC00017BD1558260A570B547C0B801A6C118091
:105AD0000C125B0648057A012B80060B10BC81383E
:105AE000F0BC8128060B00BCF038E2E5287AB3034D
:105AF000E4E52A7AB303E5E5297AB303E2E52B7AF4
:105B0000B303E3DAF8227CB17C701212E512054986
:105B1000BD3F227AB303D97AB303D722740A7AB38A
:105B200003E0E47AB303E1227EB303DE601F7EB3B9
:105B300003DF70197EB303E1B401127EB303E014F6
:105B40007AB303E070077401125949C286226C339C
:105B5000802812F2387E0303E4BC02381B7E030364
:105B6000E5BC0240137E0303E2BC01380B7E030355
:105B7000E3BC014003125B830B307E036766BC030A
:105B800038D0227CB36C777C677C7BC423541F7C29
:105B9000AB7CB754070A2B2E2400BA1295C77C7B26
:105BA0004C66680B0A2A12CC454CB77A29B0227C85
:105BB000B764FF0A2A2E2465DC7E29705C7B7A2973
:105BC0007022CAF8C2007E63699E7E736772AC76EB
:105BD0007E5367730A252D323E34494309466C11C2
:105BE0008029125C9009F565657CB07C7F1212E516
:105BF000BE34038458137E176770BE14FF385809EB
:105C0000BE44FF385803125C390B107E736766BCC4
:105C10007138CF7E57676CBE54001E58137E57678D
:105C200070BE54FE705809BE44FE705803125C39B1
:105C3000300003121136DAF8227CB16C77125B87E0
:105C4000D20022C2007EB3598B60447E33699D7EB0
:105C500023699E6C11802A125C90BE0001401D0ACF
:105C6000300A431B44BD34181309056565BE0001A5
:105C7000400A0A200A321B34BD230803125C390B88
:105C8000107E036766BC0138CE3000030211362255
:105C90007402ACB10905656422CAF8C200C2017E73
:105CA000B38E14BEB0002805147AB38E147E376705
:105CB0006CBE3403B60803E4800A125D099200301A
:105CC000000674287AB38E147E738E14BE7000287A
:105CD000227E376768BE340028501874017AB38E6C
:105CE000176CFF80077CBF125D010BF0125F6F38ED
:105CF000F48005E47AB38E17300103121136DAF816
:105D0000226C77125B87D20122CA3BC2027EF00767
:105D100012C6DC40037EF00B6CEE804A7402ACBE0F
:105D200009D5656409C56565BED00140377E7369D4
:105D30009D0A271B250A3DBD321829BEC0014024FB
:105D40007E73699E0A271B250A3CBD3218167CBD4E
:105D50007C7C7C6E12155CF528BEF1285006D202C0
:105D6000A20280090BE0125FEA38B1A202DA3B22FC
:105D7000CAF86DFF7DEF7EB36766B402627EB369D9
:105D80006EB4015B6C99800B125DE9BD0E08027D5B
:105D9000E00B90125DE238F07DFEBEF40384081241
:105DA000BEF405DC180C9EF7697C1EF41EF41EF48C
:105DB000800ABEF405DC08089EF7697C1EF41EF418
:105DC0006C998016125DE97E17697C2D1FBD102825
:105DD000077CB96C77125B870B90125DE238E5DACD
:105DE000F8227E736766BC79227402ACB909F56546
:105DF00064098565657CBF7C781212E57D0322CA43
:105E00003B7EB367667002C1947EB3677C6002C15B
:105E1000947EB3699DB4120A7E7400D27E6400FF42
:105E2000800BB4106F7E7400C27E6400FF7F03128B
:105E30008FF550607EB3699BF52B7EB3699CF52C82
:105E4000752D0075280080257E71287402AC7B09B1
:105E5000B36564F529097365657A712A7E612B7EC5
:105E6000512C7F03125E9F5002052D0528125E976C
:105E700038D60A271E24E52D0A3BBD3208167528A0
:105E8000008009E5286C77125B870528125E973839
:105E9000F2121136DA3B227E736766BE712822CA7F
:105EA0003B7F707C967C177C0BC2001212E17DD385
:105EB0007E64004BBE0000280D7CB0147C71121271
:105EC000E57A352E80037AD52E0AC91BC40A10BD87
:105ED0001C580C7CB0047C711212E57D7380027D2D
:105EE0007DA5B90046900190E493600C9001A2E476
:105EF00093F530900191800A900191E493F53090F0
:105F000001A2E493F5310A391E347D231B24E530C8
:105F10000A1B9D210AC0BDC278047D7D800DE5313C
:105F20000A1B2D13BDC178037AD52EBE652E080835
:105F3000BD670804D2008032BE652E1804BD670814
:105F4000290A107F172D317E1B60BE60016809A5EC
:105F5000BE0417BE901078127CB07C717F07128748
:105F6000F6120549BD360802D200A200DA3B227EB5
:105F7000736766BC7F22CAD8CA797D437F7012CC12
:105F80004D28266CFF801D12F245125FF17DD37FF4
:105F9000077C7D12CD305007BD4D5806D3800BD302
:105FA00080080BF0125F6F38DEC3DA79DAD822E4AA
:105FB0007AB367877528007529007EB3699BF52A37
:105FC0007EB3699CF52B7E0800287E37697E125FC0
:105FD00076E4337AB3678712C7B0E4337AB3678B5A
:105FE00012C7C2E4337AB3678C227E736766BC7EC5
:105FF000227CBE7C7D0212E5C454F07AB38E13225B
:10600000E47AB38DB07EB38E1254FB7AB38E127ED7
:106010000801AA1260F07E0802047E34003E1200DD
:10602000267E1801AA7A1F025E751E00751F007E6B
:10603000B38DB0F591020046A9D7CA75A7FF75F3D5
:106040000175A30A75A5E075A600C2CEA9D6EA43DC
:10605000EB3C43EC3C75A40174017AB3817212608D
:1060600066D2EED2E8227E1480B07E1F817C1B1A9D
:10607000106D337E0F817C793000027E0F817C7938
:1060800030000A1266DA7E0F817C0B0A304E7008EF
:106090001B0A306D117E1F81731B1A106D337E0F2A
:1060A00081737930000A7E34000F1266B77E0F814B
:1060B000730B0A305E70F71B0A307E35126D227A40
:1060C0001D167E5381727E35147A39501260E37E3C
:1060D00010811223BF74017E35141260E77E100117
:1060E0000223BFE47E35120B346D227E1401FF22A1
:1060F0007E34003E74FF020026CA3B7CDB7528001C
:106100006CCC752900752A006CEE7531037E186918
:106110001D7A1F7D287532007E4801AA7EB3598BF7
:106120007004C219800930190674017AB36973E4E6
:106130007AB3019E7AB302777EB36976700E7EB32E
:10614000697270087EB36973700261CA301C067E82
:1061500048020480047E4801AA7F041260F07F0494
:106160002E14003E7E34001C120E0F6101740DAC23
:10617000BF493568197A352B740DACBF4935681B9A
:10618000126407F52F900203E493BEB12F38024149
:10619000FF7EA12F5EA00F7408A47E1F7D282D35E1
:1061A0007E1BB0F5317E18002B7A1D347E18002D31
:1061B0007A1D38E52F7E0800317E352B7E252D1285
:1061C00067387E352DBE3408FC50247E112F2E10EA
:1061D00008A5E7701A7E700DAC7F09B368200973BB
:1061E00068217E612F7E51311265BB400241FFE57F
:1061F00031BEB003780241FFE531B4014275300091
:1062000080337E7130740DAC7B09B30107540FBE2F
:10621000B12F781F493301037A352B7EA130740DDD
:10622000A4493501057A352D7E112F2E1008E4A5DD
:10623000F7800C0530900203E493BEB13038C3857B
:1062400028347E0800297E18002A7CBF1264C730DB
:106250001B08C21B752928752A0A7533008015E5AD
:10626000330A3B09737022BE712F78067529287591
:106270002A0A05337E736FE5BE713338E27E352B13
:106280005E600F7A352B7E352D5E600F7A352D746A
:106290000DACBF0975681D0A571243547D352E3564
:1062A0002D126407BEB0FF6817E531BEB001680269
:1062B00005280BE0E5311246507D352E352B800741
:1062C0007E352B2E34C0007A352B7E252B7E700632
:1062D000AC7C7F042D13792000027E252D7F042DB8
:1062E0001379200004E5292D397D2839B100067E77
:1062F000A12A7E7006AC7C2D3939A100070BC00B9A
:10630000F07E73697ABC7F2802216D7EB3598BB40D
:106310000149740139B4003E7E73598E39740040CE
:106320007EB36973B401397E73896F397400416C2F
:10633000FF801E7404ACBF494585847F142D3579D8
:10634000410042493585867F042D15793000440B84
:10635000F07E73896FBC7F38DA8005E439B4003E83
:10636000E52839B400017E73696F7A4B707E4BB0BB
:10637000540F7A4BB024907A4BB07EB3598BB40152
:10638000247EB36973B40133D21974647AB38E6313
:106390007532014CDD6804B21CC2861264131264AB
:1063A00025D2868016BEE00028117532014CDD68CA
:1063B00007B21C12644AC286126413E47AB3697687
:1063C0007AB369727AB3697380064CDD6802D2864B
:1063D0006CFF80167E300DAC3F7D312E3468192E57
:1063E000140103740D1203F70BF0121FB6BC7F38B3
:1063F000E34CEE780D740DAC7B7E08010374FF1244
:106400000026E532DA3B227A352D740DACBF09B592
:10641000681D227EB3028C047AB3028C7E73028CD8
:106420007A73594A227E3400017D0380147EA004D1
:1064300080077E3400FA1264607C7A1BA0A5BF003E
:10644000F17D101B044D1178E4227EB38D78B401E8
:106450000A1264257E340078026460227E3400646F
:1064600080107E2400028001007D121B244D1178D3
:10647000F7007D131B344D1178E822A21330090177
:10648000B35043A209921330092AA9D5C3A9D4C392
:10649000A9D3C77E340060126460A9D4C7A9D5C748
:1064A0007E340080126460A9D7C3A9D6C37E3401AC
:1064B000A0026460A9C7C3A9C6C3A9C4C7A9C5C7A8
:1064C000A9C5C3A9C3C722CA797CFB7F617F507469
:1064D0000DACBF09B5681EF535740DACBF09B568C4
:1064E0001F1EB0BEB00F2802740FC454F0F53674EE
:1064F0000DACBF09E5681D7E73697ABC7E28557EA8
:10650000B36974702A75370F7E0800350A3E2E3441
:1065100001946D2274011265797537207E0800366A
:106520000A3E2E3401A06D227410126579800E0A85
:106530003E09B30194F53509B301A0F5361266E7BB
:10654000B40111E40A3E19B3019419B301A07535E1
:10655000007536007EB3698EB4FF1185343575350C
:106560000012640ABEB0FF6803753501E5357A5B39
:10657000B0E5367A6BB0DA79227C9B7F717E7B80C6
:106580004C8878077E0B907A7B90220A287E0B80BD
:106590000A389D32120549E5370A2BBD3208157EAF
:1065A0007BA07E0BB0BCBA7CBA28042CB980029CBC
:1065B000B97A7BB07E7B707A0B70227C167C077C6C
:1065C0009BBE100A4002C322A5BD001474010A112B
:1065D00019B101896D117402ACB159150262805F65
:1065E000BE50016804A5BD03120A3109B3018960D8
:1065F00002C322740119B30189D322A5BD0240123E
:1066000066677402ACB149250262BD23581E593534
:106610000262492502620E2459250278BE240190A7
:10662000081D7E14019059150278801349150278CF
:10663000BD13080B7EB30277047AB30277C3220A34
:106640001109B10189601E126667BE370100580E3C
:10665000201B0B7EB3019E047AB3019EC322E40A81
:106660003119B30189D3227CB97C700212E57C6BAD
:1066700024DD684224FD683E1BB1683A24FA68367E
:106680001468338000A5BE2507D2237A73593922B6
:10669000BE60406809BE60416804A5BE0B02D222FC
:1066A000A5BE500AA5BF010674057AB38E630A26FB
:1066B0001972593BD221227E0F81737930000C224E
:1066C00075A7FF1266DA1266B77EB38E1244047A9B
:1066D000B38E127E0F817C02670D7E34000F7E0F19
:1066E000817C7930000C227408ACBE09B5691D228A
:1066F0007E0F8ED80B0A305E70FD1B0A307E340090
:10670000017E0F8ED8793000047E0F8ED80B0A30B0
:106710004E70011B0A30221220D64E60801B0A30B8
:1067200012672602670D7E0F8ED42E1400142212DB
:1067300067260B0A300227FDCAF87D427DF37F6091
:106740007CFB6D007DB07D307DE07EB38E88600681
:106750007EB38E8F7005C21A0269E37EA765607EE4
:10676000176562201A0302695F7EA3696DBEA001EE
:10677000281A7EB30102BCBF68030269E37E6BB0D6
:10678000B40204E47A6BB0C21A0269E34CAA783B03
:106790007E530102BC5F68030269E37E6BB0B40103
:1067A00025E47A6BB0126A42D21B7AB3697212A4E2
:1067B000C812A7C77CBF7E1701857E07018712A577
:1067C000C97CBF12A5BEC21A0269E37E530102BC96
:1067D0005F68030269E3126A326805BEA00278228C
:1067E0007E6BB0B4021AE47A6BB005577D349E37E5
:1067F0000187126A3A183AE557BEB0045033802A2E
:10680000802FBEA0036805BEA00478337E6BB0B4B1
:10681000021FE47A6BB005577D3F9E370185126AEF
:106820003A180EE557BEB004500774037A6BB021D6
:10683000E37DBF9EB701857D349E3701878004E4E8
:106840007A6BB0126A32783DBE34000018022153D0
:106850007D233E247EE701879DE2BEE400005804CC
:106860006DEE800EBE3400050808BEE4003258020A
:106870006DEE126A2158046D008050BDA0504C7D11
:106880000A80482153BEA002784BBE340000480263
:1068900021537D033E047EE701879DE0BD1E500429
:1068A0007DE180187D042E040005BE070187500C91
:1068B0007D019E040032BD0E50027DE1126A215816
:1068C000046D008006BDA050027D0A7E1D341B1A97
:1068D000002156807EBEA003783CBEB400005873F1
:1068E000126A11BDA050047D0A80187DBF2EB4002D
:1068F00005BEB70185500C7DBA9EB4001EBDB050D8
:10690000027D0A126A0258046DEE803FBD1E503BA4
:106910007DE18037803DBEA004783BBEB400000816
:1069200032126A11BE04000058046D00800EBEB41D
:1069300000050808BEE4001E58026D00126A0258E5
:10694000046DEE8006BD1E50027DE17E1D381B1ACF
:10695000E08003126A42C21AE47AB3019321E37E13
:106960006BB070217EB3696DB4011ABE4400C8508B
:1069700014BEF4003B280EBEF403FC50081269E676
:1069800074011269FA7E6BA04CAA78287EB3696DF7
:10699000B40121BE44085B281BBEF4003B2815BE91
:1069A000F403FC500F1269E674021269FA7C1F129C
:1069B0006A57802F4CAA78127EB3696DB4010BBE62
:1069C000F403E728051269E680164CAA78157EB311
:1069D000696DB4010EBEF4005050081269E67404EB
:1069E0001269FADAF82274037A6BB07AF301027A48
:1069F000F701857A470187D21A227AB30193755736
:106A000000227E1D341B1A007EE70187BEE40000D1
:106A1000227E2400027D3B1203247E0701859D0314
:106A2000227E1D381B1AE07E0701859D0BBE0400E7
:106A300000227EA30193BEA00122120549BE3400AC
:106A400002227E1701857E1D341B1A107E170187D6
:106A50007E1D381B1A10222E10087401A5F722CAB9
:106A6000796DDD12F41428047ED4012CE47AB36F1E
:106A7000E56CFF7E300DAC3F09E1679BBEE00A404C
:106A80000281CD1266E7F528701E494167977404AC
:106A9000ACBE59456FFA4901679959056FFC5945D4
:106AA0006FBD59056FBF81CDE528B4024E7404ACAB
:106AB000BE49056FFA492167977D329D305935717E
:106AC000D349C56FFC493167997D439D4C59457148
:106AD000D559256FFA59356FFC49256FBF9D321284
:106AE00005497DC37404ACBE49256FBD126D1D2DD3
:106AF000C37402ACBE59C56FE681CDE528B401026E
:106B0000800281CD7C1E126A577E7004AC7E4923C0
:106B100071D3BE247FFF780281A07402ACBE4925E8
:106B20006FE6BE247FFF780281A0493371D512053C
:106B3000497DC3126CFB2DC3BEC4000F180281A097
:106B40007402ACBE49C56FE6BDCD500281A074048D
:106B5000ACBE49C571D349256FFA2DC2493571D5EF
:106B600049B56FFC2DB3C200C2017EA765607E9758
:106B70006562BEC4000018066DCCD2008008BDACB2
:106B800018047DCAD200BEB4000018066DBBD20145
:106B90008008BD9B18047DB9D20130002030011D52
:106BA0007D3C9D32120549126CE249256FFC7D3B0C
:106BB000126D15BDFE4004C2018002C200300057B4
:106BC000200154126CE97404ACBE49256FFA126DB1
:106BD0001D126CE2493571D51205491A261A247D19
:106BE0001E126D06493371D3126D2A7DF37404AC05
:106BF000BE494571D5BE44000049B56FFC08042D5F
:106C0000BF80029DBFBEB4000018046DBB8062BD92
:106C10009B185E7DB9805A300154200051126CF2ED
:106C20007404ACBE49256FFC740DACBF126D11121B
:106C30006CFB1A261A247D1F126D06493371D5127A
:106C40006D2A126CE2494571D3BE44000049C56FFC
:106C5000FA08042DCE80029DCEBEC4000018046D3B
:106C6000CC8006BDAC18027DCA126CE98006126C9D
:106C7000E9126CF2754801E5280A3B7E2400027C8B
:106C8000BE7E100DAC1F491067974900679912A48A
:106C9000C57EB36FE50A8B19E87022047AB36FE5FD
:106CA0007E24FFFF7E7004AC7E59236FFA59236F58
:106CB000FC59236FBD59236FBF7402ACBE59256FB9
:106CC000E67E847FFF598371D3598371D50BF0BE63
:106CD000F00A680241737EB36FE5600312A2D1DA55
:106CE00079227DE37404ACBE22740DACBF59C56734
:106CF0009722740DACBF59B56799227404ACBE4994
:106D00003571D30205491203677F217E7004AC7E82
:106D100022493567999D321205497DF322740DACE5
:106D2000BF493567979D320205491205497D131AFF
:106D3000021A007F12020372CA3B7CC47CE57CFB12
:106D40007DF37EE4FFFC7E53699B0A551B54F528B6
:106D50007E53699C0A251B247CD57E5359590A050C
:106D60007D201B24680B1B2468120B257819E480F6
:106D700018E47AB359417E0400408015E47AB3598F
:106D8000417E040010800A74017AB359417E0400E8
:106D9000703E043E043E043E043E04BE0411E82856
:106DA000067E0411E8800ABE0401FE50047E040140
:106DB000FEBD0338067E14010080196D227C567CCE
:106DC000676C777D101203707D13BE1400105004A1
:106DD0007E1400107402ACBC49057397BD0F2806E1
:106DE00049156F9F800459156F9F59F57397BE140D
:106DF000010028047E1401007EB35946B4010B7EC5
:106E000073696DBE7002400F80097E73696DBE703C
:106E10000528041E141E14BE14001050047E140015
:106E2000107E700DAC7E0953679E09A3679FBE500C
:106E3000024027E5280A0B1B050A25BD20181BBEAA
:106E4000A00240160A0D1B050A2ABD20180CBE140C
:106E5000008028107E140080800ABE14009C280444
:106E60007E14009C740DACBF4925689B493367971D
:106E7000126D15126EE07E700DAC7F4903689B7435
:106E80000DACBE49256797BD20280F7D532E546851
:106E90009B7D202D2F1B582080092E34689B9D0F31
:106EA0001B3800740DACBF12F384126D11126EE02A
:106EB0007E500DAC5F4932689D740DACBE49E567EC
:106EC00099BDE3280F7D022E04689D7D132D1F1BA5
:106ED000081080092E24689D9D3F1B2830DA3B2234
:106EE0007D31AD3F7C767C650A247DF35DFE22CA50
:106EF0003B7CFB6CEE80716CDD8016740DACBD09C3
:106F000065689F740DACBE0975679BBC6768070B0D
:106F1000D0126F6F38E5126F6F2851740DACBD0938
:106F2000C5689F12F384493567999D321205497DE2
:106F3000D3740DACBD4925689B740DACBE126D2198
:106F40002DD37408ACBC09B5691DB4010E6DCC74A9
:106F500002ACBC59C56F9F59C573977D3D7CBD7C04
:106F60005E7C4C12006E0BE0BCFE388BDA3B22904C
:106F70000203E493BCBD22CA3B7ED765607EC76531
:106F8000626CDD02738F740DACBD09C5679B7CAC70
:106F90005EA00F12845DF528705E74010A3C19B37F
:106FA00003CDE419B303A56D337402ACBC593503AA
:106FB000AFE40A3C19B303C36CFF6D337E3002ACFF
:106FC0003F7E5008AC5C2D21593202DD5932032D31
:106FD0000BF0BEF00478E37E900DAC9D49246797DA
:106FE0007402ACBC592502B549346799593502C9B8
:106FF0005925028D593502A17EF0037E7002AC7FC7
:107000007E3008AC3C2D31492302DB592302DD4997
:1070100003032B5903032D1BF0BEF00038DD127360
:10702000D1593102DD492567995921032D7402ACEC
:10703000BC4915028D490502A112D01D7A352A7E60
:107040001002AC1C491003AFBE152A50077E152A4A
:10705000591003AF491003AF7D313E343E347E24D6
:1070600000058D32BE352A280EBE1400C8280874CB
:10707000010A1C19B103C31273D14925679949103C
:1070800002B5490002C912D01D7A352C7E240014A5
:107090008D327CE7BEE00428037EE0040A3C09B39D
:1070A00003C3B401037EE0067E900DAC9D49E46706
:1070B00097493467997DF31274281273C21273FDD5
:1070C000BE3400280807E40A3C19B303CD0A3C0982
:1070D000B303CDB4011512742812740D1273C212C9
:1070E00073FDBE34001E580312740512F4142803F5
:1070F0001274050A3C09B303A5BEB004500A0A3C49
:107100002E3403A5047A39B07E5002AC5C490202E9
:10711000B57E300DAC3D49316797BD03782C49529F
:1071200002C949016799BD507820E5287002617451
:107130004902037D590167977402ACBC490503916C
:10714000740DACBD590567996174593202B512745A
:107150000D7402ACBC593502C96DAA7DBA0A3C094E
:107160007303A5BE7002380261586CFF80267E5002
:1071700002AC5F7E7008AC7C2D32491302DD4923DE
:1071800002DF9D212DB24923032D4933032F9D3268
:107190002DA30BF00A3C097303A50A871B840A9FE1
:1071A000BD9848CA7E14000B7D3BAD317E94000A29
:1071B0007D291203247DB37D3AAD317D291203244C
:1071C0007DA37D3B7D281203247D937D3A7D28128B
:1071D00003247D8375290012741F7D439D49BE449D
:1071E0000000580B6D22592502DD75290180139D81
:1071F00039BD3D280959D502DD752902800459455C
:1072000002DD4945032F9D48BE44000058226D44CD
:107210005945032D490502E11273A94945032F7D04
:10722000341274377408ACBC491503319D14802A9C
:107230001273B99D38BD3C283912741612739D74AF
:1072400008ACBC4925032F7E5402A01273F51273BB
:10725000E71273DA4915032F9D101A021A00120360
:10726000C37D2312741F2D327408ACBC593502DD66
:107270008069E529B4012C1273DA4915032F1273C2
:10728000AD7408ACBC494502DF7D34127437740814
:10729000ACBC491502E19D141A021A001273B42DF8
:1072A000328030E529B402261273DA4915032F1211
:1072B00073AD7408ACBC492502DF7E540292127390
:1072C000F51273E712739D1273B42D328005127399
:1072D000B99D387408ACBC5935032D7408ACBC4951
:1072E0003502DDBE340000580C6D227408ACBC5968
:1072F0002502DD800CBD3D28087408ACBC59D502C0
:10730000DD7408ACBC4935032DBE340000580C6D4B
:10731000227408ACBC5925032D8007BD3C280312FC
:1073200074167408ACBC495502DD0A0EAD507E34AB
:10733000000A9D30AD3E2D351273EE7DE37408AC2E
:10734000BC4915032DAD100A2E7E34000A9D32ADC6
:107350003F2D311273EE7DF37408ACBC59E502DDAC
:1073600059F5032D740DACBD59E56797740DACBD8F
:1073700059F567997E900DAC9D493467977402ACBE
:10738000BC5935037D49346799593503910BD07E3B
:1073900073696DBC7D2803026F86DA3B227408ACEA
:1073A000BC490502E17408ACBC491502DF9D101A06
:1073B000021A00221203C37D237408ACBC493503B2
:1073C0002F229D321205497D137402ACBC4925025F
:1073D0008D740DACBD49356797227408ACBC490566
:1073E00003317408ACBC229D326D220203567E2408
:1073F000000A0203247E4400FF0B2A30229D321231
:1074000005492D3122E40A3C19B303A522740DACC1
:10741000BD49356799227408ACBC59C5032D227447
:1074200008ACBC493502DF227402ACBC492502A17C
:10743000221A021A007D3D1A261A24020356CA791E
:107440007CF77CEB7EB3699CACBE0ACF2DC57DDC9E
:107450003ED449DD04267E73697B0A379DD3BED4B2
:1074600000001802A12A7E1D1A6911000FBD1D1807
:107470000B2E34000A7E1BB0047A1BB0E47E1D1A6A
:107480007E1BA00A2A0A3E9D321205497C377E1DCA
:107490001A292100010A220A3F9D321205497CA7C0
:1074A000BE30013805BEA00128377E5D1A2975005F
:1074B00004BE7003400D29750005BE70034004D260
:1074C000028002C2027CBE7C7F2965000212D2903B
:1074D000BEB0026803B403040ED48005B401026D8B
:1074E000DD7D5D1A4A1A487E0D1A2E14001312779C
:1074F0006B3025187DFC3EF47E1F03F12D3F0B1AE7
:10750000E07E1F03F52D3F0B1AF080040AEE0AFF00
:107510007D1E1274317F21129FE112776B7D1F1245
:1075200074317F21129FD912776BDA7922CAD8CAB7
:10753000797CF77CEB7E73699C0A2712774A7F215E
:107540002D517E2BB06002C16974011277937C7F4C
:1075500012743E1277B30A571A4E1B44BD45483287
:107560001277BB1277867E2BB0702712775E080ADF
:107570007CBE147C7F12752D801874021A2E1B2479
:107580000A3D12774C127793141277A3147C7F1262
:10759000766E7E0D1A297000080A371A5F7D451B2A
:1075A00044BD43483812777C1B547E2BB0702E3E6E
:1075B0003449230424127764080B7C7F1B707CBE43
:1075C00012752D80181277462D311B347A1BB07C32
:1075D000BE7C7F1B7012779B1B7012766E7E0D1A1D
:1075E000297000070A571A4E0B44BD4558321277CE
:1075F000BB1277867E2BB0702712775E080A7CBE9E
:10760000047C7F12752D801874021A2E0B240A3DFB
:1076100012774C127793041277A3047C7F12766E54
:107620007E0D1A297000090A371A5F7D450B44BD8B
:1076300043583612777C29B20001702D3E3449231D
:107640000428127764080B7C7F0B707CBE12752DAA
:1076500080171277462D3139B100017CBE7C7F0B3B
:107660007012779B0B7012766EDA79DAD8227C6E04
:107670007C5FCA3B7CF57CE67CD77CCB7E14005ECD
:107680007E0400FF1277AB7A1D387E1400627E0400
:1076900000FF1277AB7A1D3C7540007541007E11EA
:1076A000403E102E11417C012E0038A5E61A4B1ADF
:1076B0005C2D54F5422E103CA5E71A4B1A5D2D5453
:1076C000F543BEE1427805BEF14368611277B3BE6F
:1076D0007142185929700007BE7142085029700084
:1076E00008BE7143184729700009BE7143083E7EE9
:1076F00073699C0A27E5421A3BAD32E5431A9B2D7C
:10770000936930000D6920000B2D397E1BB0701D70
:107710007D893E844958042669800011BD58180DA2
:1077200074027A1BB0E5427E714312743E0541E556
:1077300041B402028002C19E0540E540BEB0025045
:1077400002C19BDA3B2274020A2D1A3EAD321A1F87
:107750002D137E7D1A6937000D6927000B223E34F8
:107760004923042669300011BD2322693000020B31
:107770000A202F12793000021B0A20227ED3699C36
:107780000A2D1A3EAD322D356950000D6940000BAF
:107790002D53222D317A1BB07CBE2212743E7CBE4A
:1077A0007C7F227C7F12743E7CBE22693000020BFB
:1077B0000A20227E0D1A29700006227ED3699C0AB7
:1077C0005DAD541A3F227D137E5402E81273F5BD5D
:1077D0003150237E5402EA1273F5BD3128187E140D
:1077E00002EC127D72BD32500D7E1402EE127D72DB
:1077F000BD322802E42274012274017AB38E0FE4B0
:107800007AB38DB090018A937AB38DB290018BE4F4
:10781000937AB38DB3900203E4937AB38DB5E47A8F
:10782000B38DB6122FC57AB38DBE7AB38DC49001D5
:107830008E937AB38DCE90018FE4937AB38DCF7E01
:107840007359F07A738DD07E7359F17A738DD17E2E
:107850007359F27A738DD27E7359F37A738DD37E16
:107860007359F47A738DD474017AB38DE07E340247
:10787000E31209717A378DED7E340005CA397E181E
:1078800059D07E088DF01205241BFD74027AB38D49
:10789000B9E47AB38DC174647AB38DC27E34029236
:1078A0001209711B347A3765607E3402A0120971A7
:1078B0001B347A37656222D2026003B40202C2022C
:1078C000A20222CA3B7C5712F40C09B359E0F52AF4
:1078D00012F31C0A146D337EB359C9F5297CB51215
:1078E00078B7920120010A6D227A2739DD7A27398B
:1078F000DF20010241134CAA680241137EA3699E56
:107900007EB3699DF5287E51297E6818A67CE5BE68
:10791000E00428037EE0047E40018028127A2C8057
:1079200016127A4550028003127A24BDBE280280C6
:1079300003127A37127A1DBCEF38E6127A1650021B
:107940007D3F0B40BCA438D4E5290ADB7E4369990E
:107950000AC4127A558028127A2C8016127A455061
:10796000028003127A24BDBE28028003127A3712E5
:107970007A1DBC5F38E6127A1650027D3F0B40BC80
:10798000A438D40ADEE5280ACB127A558028127A68
:107990002C8016127A4550028003127A24BDBE282C
:1079A000028003127A37127A1DBCEF38E6127A167B
:1079B00050027D3F0B40BCA438D47ED36999ACDA29
:1079C0007DD6127A5B8028127A2C8016127A455066
:1079D000028003127A24BDBE28028003127A371275
:1079E0007A1DBC5F38E6127A1650027D3F0B40BC10
:1079F000A438D47E2739DD7A2739DF6D22E52A6065
:107A0000052F111478FB2F112F111203707DE37ACB
:107A1000E739DDDA3B227DF49DFEBD3F220ABA2D17
:107A20000B0BF0222D9D7D8C0B4A40226D447D0472
:107A30007EE47FFF6CFF220AE42DE03EE47F562DBA
:107A4000BE0B5AE0220A942D903E947F562DB90B1E
:107A50005AB0BDB4229DCD0ADAADDC3ED42ED41886
:107A6000A66DCC7E4001227C677C7BD2017EB38EEA
:107A7000C9B4034B7CB61278B750447EA38DB9BE0F
:107A8000A0024031122B1468287E638EE60A262E4F
:107A90002400381295C724FF92017CB6047AB38E75
:107AA000E67E638EE6BE60084015E47AB38EE6801B
:107AB0000ED201800ABCA77804D2018002C201A2C2
:107AC0000122CA79D2001246FA7EE38D780A3E0975
:107AD000B38D70603C0A3B1B347CA77AA38DDBB46A
:107AE000010474018001E47AB32E74E40A3E19B3F0
:107AF0008D7009F38D737AF38E647CBE7C7F127B6C
:107B0000C87CBE7C7F127C377EB38D78047AB38DBF
:107B1000787EB32E74BEB00168077EB38EC9B403FD
:107B20003B7403ACBF09B559E17E0F2D2612373DDA
:107B30007CBE7C7F127A6792003000207AE32E753B
:107B40007AE38DDC12F3C27A7339DC7AF38E8E120B
:107B50007BFD7CBE7C7F127CF71281A6127BBF7EF0
:107B6000738D780A37BD324818127B95D2041229DA
:107B70004312287B127C8C7E34080012216012494B
:107B8000947CBE7C7F1278C37CBF7C7E12CE5A125E
:107B9000E6E7DA79223014061220D612E83422CA37
:107BA000F86CFF127AC20BF0127BBF0A3FBD32485D
:107BB000F27EB38DDC7E738E88127BC8DAF8227E6B
:107BC000738D790A271B242214682114682E0BB1A7
:107BD000781A7E080E667A0F2D267E081DC67A0F4B
:107BE0002D2AA5BF02167E182806800C7E18138643
:107BF0007A1F2D267E1822E67A1F2D2A2212800750
:107C0000E47AB37D2A7E1F2D267A377D2C127D657E
:107C10007EB36F93700BE47AB37D2B7E34002080AB
:107C20001074017AB37D2B7E1F2D2A7A377D2E6D3D
:107C3000331293B80231E37CAB6D336C55127C7F09
:107C40004911792A591039E3127C7F4941792ABDBB
:107C50004328027D3449117934591039ED7E3002C0
:107C6000AC357E1014AC1A2D0149107934BD13289F
:107C7000027D310B50BE500540C37A3739E1227E78
:107C80001002AC157E3014AC3A2D1022CAF812CF77
:107C900061C21F7EB33964605B7EF339620BF0BE54
:107CA000F00340026CFF12F30B60053E241478FBD6
:107CB0007E73395E6C665C75BE34000008090BF09B
:107CC000BEF00340026CFF7EA33961BCAF78127E28
:107CD000B33963047AB339630BF0BEF00340026C2E
:107CE000FF12CF6A38077CBA12CD557CFB12CF58F1
:107CF0007AF3395DDAF8227C977C8B7EB36F9360E0
:107D0000637EB339DC12CFF71287EE2E3402D7121E
:107D10003E167E2339F77E3002AC232E1402D71292
:107D20007D72BD32683E4C887815BE9002741E7814
:107D300007A449F53981800EA449F5397980077483
:107D40001EA449F5397D12800712F0A87E1F2D2E42
:107D50007A377D2C7D3F7A377D2E127D657E087DBA
:107D6000280231E3227E1F2D2E7A377D30227E14A9
:107D700002927E0400FF0B0A30227EA039ACAF498C
:107D80003589B2127D917DD37EA00DACAE493567A9
:107D9000997D139F117E5402A07E4400FF0B2AE0C0
:107DA0007D4E9002A4E4930A0BBD01281F7D209D07
:107DB000217E1402A6127D7212F2F20A1B6D00BF20
:107DC0001048047F101B1C9F017F10229002A5E425
:107DD000930A0B7DFE9DF0BDF1502BBDE140297D46
:107DE000219D2F7EF402A87EE400FF0B7A3012F270
:107DF000F20AFB6DEEBF1748047F171B1C7D149D14
:107E0000106D002F10227D31227CBC7C7D6C667E43
:107E10005001CA3B7CD57CC67CF77CEBC2007E342B
:107E2000000A7A353212DC64680EBE60036809BE4F
:107E300060026804A5BE0414127FDF127F5F9D3DBF
:107E40007A3534127D7A9D3D7D838012127FDF1258
:107E50007F5F9D3D7D83127D7A9D3D7A3534127F13
:107E6000F309A3898FBEA0036805BEA00478157E20
:107E700035341205497D937D3812F2E709B5898CB6
:107E8000F53680137D381205497D937E353412F224
:107E9000E709B5898AF536BEC00B78107D392D3AD1
:107EA000BE3400FA2802D200A200E158BEC0017818
:107EB000487D392D3ABE34015E2804D200E156E5F2
:107EC00036BEB0062802E1564CDD6802E156127F4C
:107ED000F309A38988BEA0046805BEA00878067EC1
:107EE00024006480047E24003C7DB27DC2BDCA4073
:107EF00004BDB95061D200805DE5360ADB7E1532E3
:107F00007D31AD3D7DC3BEC4003250067E340032AB
:107F10007DC3BED001780CBEC4006450067E340020
:107F2000647DC37D2D1E240B247D31AD327DB3BE17
:107F3000B4003250067E3400327DB3BED001780CDE
:107F4000BEB4006450067E3400647DB3BDCA4004F4
:107F5000BDB95002D200A200DA3B22740DACBF4979
:107F60003567977E5402927E4400FF0B2A407EE7DD
:107F70006560900296E4930A2BBD2328267D029D1E
:107F8000037E3402987E2400FF0B1A1012F39E0A1F
:107F90003B6D22BF0140047F011B0C1B1C9F107F07
:107FA000018039900297E4930A2B7DFE9DF2BDF388
:107FB00050287D039D0F7EF4029A7EE400FF0B7A29
:107FC0001012F39E0AFB6DEEBF0740047F071B0CE7
:107FD0007D349D326D222F0180027D137D31227E02
:107FE000A039ACAF493589B0127F637DD37EA00D37
:107FF000ACAE227EA0397C7FAC7A227E087D287EC2
:10800000340010E41200267E73699C7A737D297E09
:1080100073699B7A737D28221280957E349D027A43
:108020003779207E3769E17A3779227E3443217AA5
:108030003779247E3412347A3779267E3452057AA1
:10804000377928C2081226E71257846805D206122B
:1080500026BD7E34001E7E0878DC7E240022123B82
:108060008B12808C12278A7E3400217E277922127F
:10807000278A7E3400397E0879247E240003023D5D
:10808000F87E3400207E2778E01226D97E34002046
:108090007E277920227E0878DC7E340044E41200BA
:1080A000267E3432037A3778DC6D337A3778DE7E99
:1080B000349D007A3778E07E3769DF7A3778E26D71
:1080C000337A3778E47A3778E67E3402007A377884
:1080D000E87E3444607A3778EA7E3429017A37784A
:1080E000EC7E340F707A3778EE7E34080F7A37786A
:1080F000F07E34C0007A3778F27E3401807A3778A7
:10810000F47E34C0007A3778F67E3401007A37780E
:10811000F87E3400F07A3778FA7E3400307A377897
:10812000FC6D337A3778FE7E34002A7A3779007E08
:10813000342D2D7A3779027E3411117A3779047E05
:108140003411007A3779067E3401237A3779087E34
:108150003445677A37790A7E3489AB7A37790C7E71
:1081600034CDEF7A37790E6D337A3779107E344318
:10817000217A3779127E3412347A3779147E345268
:10818000057A3779167E34FEDC7A3779187E34BA70
:10819000987A37791A7E3476547A37791C7E34325D
:1081A000107A37791E227E0809467E1F2D2E023650
:1081B000ACC2007EB303D7700A7E378E15BE340082
:1081C0002340161281F17E140384123695BE3400CA
:1081D000642804D2008002C200300006D218740F56
:1081E00080077EB38E566006147AB38E5622C2186C
:1081F000227E1F2D2E7E24006422CA79C2037EB700
:10820000676C7EE367669002C6E4937CABBCAE907D
:1082100002C52807E493A47DC58006E493ACBE7D27
:10822000C57E1F2D2E7E1402C11287C812869A1297
:1082300036957A3703F91281F112869A1236957AB9
:108240003703FE6CFF6C1180227CB11287E07D4306
:108250007D543E54BD5B480F7E3402CA7E2400FF2D
:108260000B1A50BD5408020BF00B107E036766BC5E
:108270000138D67ED703F9BDDC28397E3402CC1212
:1082800082E0BDDB5805BEE001380C7402ACBF0AC9
:108290004E1B44BD54480474018001E47AB303FDCD
:1082A00012846C38067EB303FD60197E3402C81256
:1082B00082E0800CE47AB303FD12846C28061BD4A0
:1082C0007AD703FB12846C2802D2037E3402CE12CA
:1082D00082E0BDDB5805E47AB36766A203DA79224F
:1082E0007E2400FF0B1AD022CA3B7CD67CCB7E3486
:1082F00002A01282E01ED46CEE6CFF755300755222
:1083000000812ABEC15278028128128465127F5FE3
:108310007DC3128465127D8D7DB312846509B567B6
:108320009BF554C2004CDD780812845AB40202C294
:1083300000BED0036805BED004780812845AB40287
:1083400002D200BDDB285F4CEE68028128BEB4007B
:10835000C82824BEC4002D3802812812868F380216
:10836000812812845A70037EE0014CEE6802812855
:108370002000028128802ABEB4002D38028128BE48
:10838000C400C838028128128684380281281284E9
:108390005A70037EE0014CEE6802812820000281C1
:1083A000287EE00181284CFF78287EA765629EA484
:1083B00000C8BDAB2872BEC4002D286C12868F2861
:1083C0006712845A70037EF0014CFF785B300058CE
:1083D00080537EA765629EA4002DBDAB284ABED007
:1083E000036805BED0047823BEC40104283A7EA7E2
:1083F00065609EA40104BDAC282E12845A70037ED1
:10840000F0014CFF782230001F801ABEC400C8283B
:1084100017128684281212845A70037EF0014CFFD2
:1084200078063000037EF00105527E73696DBE71DF
:108430005228026103BED0026805BED004780B0A40
:108440004F1286733E440A5E80090A4E1286733EBE
:10845000440A5F2D54F553DA3B227EA1547408A4DC
:1084600009B5691D227EA152740DA4227ED703FB9B
:10847000BED4000022CA3B7CD77CCB6CEE12866A4D
:1084800014BEB009507D7EA003A490848E73028434
:10849000A90284AE0284B30284B80284D70284E1C4
:1084A0000284EB0284F50284FA12865B802C128629
:1084B0005B803112865B80367439ACBD09B5898624
:1084C000BEB0066803B4050D127E09502812864F0F
:1084D0007EE002802E801E12866212D5BC7CEB806C
:1084E0002212866212D5917CEB801812866212D518
:1084F000247CEB800E7EE00180097CBC7C7D12D761
:108500005E7CEB7E7039AC7D09B3898EBEB00168AC
:1085100007B402028002C11109A38988BEA00868BD
:108520000609B389906007BEA0096802C1117401F1
:1085300019B38990BEA00678057EF03C800C7EF0D1
:10854000307EB3594760037EF03009738987BC7F62
:108550004002A1D97CBC7C7D7E6359471282E87CB5
:10856000AB7EB35947701CBEA00178057EA0088081
:1085700063127E09500812864F7EE002C1117EA070
:108580000980511287D068197EB35947BEB002687E
:10859000107EB35947BEB00368077EB35947B40491
:1085A000707C4A5E40F05EA00F7E7039AC7D09534E
:1085B000898EA5BD01064C4468028008A5BD020C49
:1085C0004CAA6808740819B389888042127E094051
:1085D000407EA009128651803512866AB409327431
:1085E00039ACBD09A58986BEA006780A6C771286CB
:1085F0007A7EE003801BBEA00578087E7006128696
:108600007A800BBEA00478097EA0051286517EE018
:108610000112866A60167CBD12E07A7CBC7C7D12F9
:10862000D079502612864F7EE002801E740DACBCBD
:10863000127F5F7439ACBD593589AC740DACBC1276
:108640007D8D7439ACBD593589AE7CBEDA3B226C68
:10865000AA7E7039AC7D19A38988227CBC7C7D6C94
:1086600066227CBC7C7D7E6001227439ACBD09B57C
:108670008988223E443E443E44227E5039AC5D19F6
:10868000728988227EA765609EA400C8BDAC227E48
:10869000A765609EA4002DBDAC227E1402C37E049B
:1086A00000FF0B0A1022CA3BE47AB38BC01287D8B2
:1086B0007802E1B5E47AB389707EB38971BEB0FF08
:1086C0005005047AB3897112D05B6CDDE1716CCC1A
:1086D0007E700DAC7D09F3679B5EF00F1287BF497A
:1086E000336797127F63CA39740DACBD127D8D7DDF
:1086F000137E100DAC1D09B0679E0970679F7C6FDB
:10870000DA29123E1E4CEE78187CBD7C7F12DF7396
:108710007CCB4CCC783A7CBD7C7F12D1BC7CCB80AE
:108720002FBEE002782A7439ACBF09B58988B40A33
:10873000097CBD7C7F12DC6C80167CBD7C7F128442
:10874000757CCB4CCC78097CBD7C7F12D1447CCB32
:108750007C1D2E10287CBCA5F77E7039AC7F09B338
:108760008987BEB0FF50082E348987047A39B00B50
:10877000D07E73696DBC7D2802C1CE7E08002812B0
:10878000A4FA6CFFE41287B81287BFBEE001781725
:108790007CBF12D30D1287B870087CBF12DF27127E
:1087A00087B87CBF12DE4E0BF0BEF00A78D67E088A
:1087B0007D2812A244DA3B220A3F19B37D28227495
:1087C00008ACBF09E5691D227E0400FF0B0A2022C8
:1087D0007EB35947BEB001227EB3598BBEB0012291
:1087E0001287EE09B36564097365650212E57CAB17
:1087F0007E7002AC7A227F707CA67C6B7EB3699D12
:108800007E13699E7E6F2D2E0A467D241B247C05D7
:108810000B446DBB6D110AA76C888035BC08180429
:10882000BC9858271A382D3F7D2E7E1B70BC7A7855
:108830001A7D3A3E342D3D7D2C0B1A907D39120560
:10884000497D83BDB850047DB87D190A312DA30B35
:1088500080BCB818C77D31227CA77E73699CAC7B35
:108860000A2A2D32227C4B7402ACB4095565640986
:108870006565657E73676EBC75780A7E73676FBCCD
:10888000767802D322C322CA3BC2027EF367667E99
:1088900087676CBE8400C85802C22C1281FA92000D
:1088A0004CFF780221732000187E8703F9BE8400F4
:1088B000323802216D7E8703FEBE840064380221B7
:1088C0006D7E73699D0A871B847D387CE77E7369A2
:1088D0009E0A671B643000157E37676C128FCE7D51
:1088E00093BE940320580A7E94032080047E940152
:1088F000906CCC80747CBC12111A606B128FDF12EA
:108900008FE97D83E528BEB0002850BEE128284BC2
:10891000E529BEB0022844BED129283FBD89583B75
:10892000E5287E71297E08002A12897624FF9201AB
:10893000200102801DBEF0022821E529BEB01E28BC
:108940001A7E37676C128A95BD381806BE84015EA0
:1089500058097CBC6C77125B87D2027CBC1288659C
:108960005005300202D22C0BC0BCFC388830020308
:10897000121136DA3B22CA3B7F707C177C0B752CB8
:10898000017E73699D7CC77E73699E7CD76D227D55
:10899000C27DD21212E17DA30A501B557CFB4133EC
:1089A0007AF12DBEF000580C1A3F1A409D430A5030
:1089B0002D54F52DBCCF180C1A301A4F9D430A5078
:1089C0009D54F52D0A511B557CEB80607AE12EBE3B
:1089D000E000580C1A3E1A419D430A512D54F52EC1
:1089E000BCDE180C1A311A4E9D430A519D54F52EC7
:1089F000E52D7E712E1212E57DB37CB024FEBCBF46
:108A00006812128A83680D7CB124FEBCBE68051210
:108A10008A8C78087D3B2D3D7DD3800EBC0F780479
:108A2000BC1E68067D3B2D3C7DC30BE0128A8C0882
:108A30009B0BF0128A83180221A07D3C120B707DE3
:108A4000C37D3D120B6E7DD37D3C9D3D120549BE1D
:108A50003400500802801A128A7CBE340046480C4A
:108A6000302B0E128A7CBE3400645805752C0080B1
:108A700003752C011B7AC0E52CDA3B227D3A9D3C24
:108A80000205490A200B251A3FBD32220A210B2577
:108A90001A3EBD32227E2400020203247D427F70F2
:108AA0007CAB7402AC7B4923391AA44935391A2DA1
:108AB00032128A957D23128ADC7D137D2F128ADC87
:108AC0007D037E340004AD31BD30580EBE04006419
:108AD0000808BE1400640802D322C3227D349D32EC
:108AE000020549CA3B7CFBC202C203C2047EE367A3
:108AF00066E47AB338FA7AB338FB7AB338BC7E08C6
:108B000038FC900204930A3B128FC20A3B3E347E2B
:108B10000838BDE4120026BEE0025002A12212E392
:108B2000A86CDDA11C128FD5F52909B36565F52A5E
:108B30004CDD6805128D25700A0A3D0B340ABD19FB
:108B40007B38FC0ABD0BB47D3B7CC7A1147E700250
:108B5000AC7C09A365647AA12B09B36565F52C0A81
:108B60002AE529128D2C7CB7F52DE52C0A2BE52A58
:108B7000128D2C7CB7F52EE559BEB12D3802A1120D
:108B8000E559BEB12E3802A1127EA4004A128F1FF1
:108B90007D93E52B7E712C1212E57D83BD98080430
:108BA0007DB880027DB97AB530BD9858047DB88013
:108BB000027DB97AB532752F00E52DBEB00138239C
:108BC000E52EBEB001381C7CBF30E0177EB338BC48
:108BD000047AB338BC752F017EB338FA047AB338FF
:108BE000FA81BCE559BEB12D380281BCE559BEB150
:108BF0002E380281BC7CBF20E10281BCC203E52D7E
:108C0000BEB0033809E52EBEB0023802D2037E188A
:108C1000003F7A1D41E5297E712A7E612B7E512C11
:108C20007E08003E12E1241A261A247A1D3A7DB8E5
:108C30002DB90EB47AB534C202BE187FFF78059FF5
:108C4000117A1D3A7CBD7C7C7E0D3A7E2534128AD9
:108C50009C920412E35792013001057E3532800365
:108C60007E3530128F277E3530128F273003167EE7
:108C7000736766BE73696E38067EB3395660067ECA
:108C8000A40041C2047EB3598BB401047EA4003C0D
:108C90007D1A1A021A007E1D361203567E080064E1
:108CA0001203C37F017E1D3ABF104802D202300476
:108CB00005200302C202300203752F02E52FBEB069
:108CC00000284F0ABC09AB38FC4CAA780B128D2542
:108CD0000A4C19B438FC803A128D25F540BCBA28EC
:108CE000037AA14075280080240ABC097B38FCE582
:108CF000280ABB096B38FCBC67680A0A2D09723860
:108D0000FCBC677806E54019BB38FC0528BEE128A5
:108D100038D70BC0BCEC2802614D0BD0BCED28024B
:108D20006125DA3B220ABD09BB38FC220A3B9D3291
:108D3000020549CA3B7F707E80FF7EE367666C99BF
:108D40006CDD6CCC800D0A1C128F17BC7D40027C40
:108D5000D70BC0BCEC38EF7EC001A1EF752B006DC6
:108D6000DD7528008069128FBA09B16564F529099B
:108D7000B16565F52AE5280A1B128F17BC7C784D72
:108D8000052BE52BB40103128E14BED00178307E82
:108D9000B33958BEB0FF68277E7339570A27E52AD2
:108DA000128D2C7D137E7339580A27E529128D2CDC
:108DB0002D137CF3BCF85015128E147C8F800E128C
:108DC0008F1F7DC3BDDC58057DDC128E140528BEC7
:108DD000E1283892E52BBEB00028127402ACB91914
:108DE0000538BD7402ACB9191538BE0B900BC0BC68
:108DF000DC4002A15CBE900178127E8338BD7A838C
:108E000039587E8338BE7A8339578003128F2F7C7E
:108E1000B9DA3B227E01297E112A22CAD8CA79C238
:108E2000007EE003E47AB338F97ED3697975590698
:108E300012E2037EF36766BEF0013802E1057CBEF4
:108E4000128AE34CDD7804C2008065BED001280D93
:108E50007E73395BBE71592804C2008053C2007E04
:108E6000B33956704B7E536766BC5D781112E104CE
:108E700050057EE00380037EE001D20080327E4315
:108E800038FA0A340A257D129D130B140A3DBD31B0
:108E900078077EE001D20080177E7338BC0A379DC8
:108EA000230B247E73395CBD3278057EE003D2004B
:108EB0003000057CBE128AE37E0838FC128D337ABE
:108EC000B338F97EA338F9BEA367665004740580F1
:108ED000077EB339566005147AB339567AA36766AC
:108EE0007402A4CA597E1838BD7E08656412052430
:108EF0001BFD7E7367667A73395CC20212CC927A6C
:108F0000B3395B800D74647AB3395B7AF3395C12E0
:108F10008F2FDA79DAD8227F172D317E1B7022E568
:108F2000297E712A0212E51A261A247A1D36227425
:108F3000FF7AB339587AB3395722CAD8CA797CA78D
:108F40007C9B7E81307EF1316CEE805ABCEA6854A5
:108F5000128FB029B10007F53C29B10008F53D0A90
:108F600028E53C128D2C7CB7F53E0A2FE53D128D8D
:108F70002C7CD7E53EBEB0043808BED0033803D3FE
:108F80008029E53EBEB005381BBED0033816128FCF
:108F9000B0296100047E7008AC6709B3691EB40390
:108FA00003D380070BE0BC9E38A2C3DA79DAD8225B
:108FB0007E700DAC7E2D317D20227E31287402AC76
:108FC0003B22E412002690020493221287E07E24C2
:108FD00000030203247E7002AC7D09B36564227E27
:108FE0007002AC7C09B3656422F528097365657A63
:108FF00071290212E5CA3B7E9365649001B3E49344
:1090000060197E3401B47E2400FF7EA365654CAAFE
:1090100078090A497F712DF47E7B900AF92DF17D44
:10902000E07E7B807EF00180337ED002ACDF09964B
:1090300065649001B3E493601109A665654CAA7854
:10904000090AF92DF37DE27E7B900AF92DF17DE08E
:109050007E7BE0BC8E6803C3800B0BF07EB367663B
:10906000BCBF38C5D3DA3B227EB38E64B401067E22
:10907000B32E75605B7EB38E557E1F2D26B4110F07
:109080006D227E1409C41236957DC37422800F7E32
:109090002432C87E1442681236957DC374117AB3A7
:1090A0008E557E1F2D2A7E24FFFF7E1403E8123684
:1090B000957EA3699C7EB3699BA47DD51ED41ED4E6
:1090C000BDDC500375E9FF1ED4BDD3500375E9FF25
:1090D000227E37697C22CA796CFFC2007EB3699315
:1090E00060067ED402BC80047ED403E87EB3699817
:1090F000B401047ED400F07EC7676C6CEE8071C250
:10910000007CBE1287E07DB37402ACBE09B5656415
:109110001290D1BD3B5804D20080267E73696EBE8A
:10912000736766781C7EA78EDF1EA4BDAC50127CD0
:10913000BE7E70011291847D1D6D00BF100802D2A9
:109140000030002A7CBE12111A60237EA4000DCAD2
:10915000A97E700DAC7E2E3465E06D227E300DACA4
:109160003F2E1467976D001205241BFD0BF00BE0DA
:10917000125FEA388A7A73677B7AF3696D7AC78EF1
:10918000DFDA79227C677C7B7E5002AC5709A265CE
:1091900064097265659002AEE493BCBA78039F11CE
:1091A000227CBA0291A67C167C077C9B7E83699DFB
:1091B0007A837D287E83699E7A837D299F770A3111
:1091C0000A199D137C83807C7A8129BE8000580C0B
:1091D0001A581A199D150A592D51F5297E737D28A3
:1091E000BC78180C1A591A189D150A599D51F52961
:1091F0000A110A509D51F528803A85282AE528BE93
:10920000B000580EE5281A5B1A109D150A502D5112
:10921000F52A7E737D29BE7128180E1A30E5281AAA
:109220001B9D130A509D51F52A128F1F1A261A24CE
:109230002F7105280A210A302D32E5281A1BBD138B
:1092400008B80B800A110A592D511A18BD151802B9
:1092500021C87F17220290D6CA3B12937C7ED36925
:109260009C7EF42E7A6CCC80320A3C6D222F112E1B
:109270002400FF2E1807B30B1A501BF8500BF57E75
:10928000A00180110A3C6D222F112E2400FF2E1800
:10929000074B129363BCDA38EB0BC07EB37D28BC5E
:1092A000BC38C66CCC12936E2E0400FF2E0807D378
:1092B0007E0BE07F012E0400FF2E0807D412935B83
:1092C0000AEF2D4E2E2400FF2E1807D57E1BB01A54
:1092D0002B7D343E342E342E7A0B38E02DE21B38B1
:1092E000E00BC0BEC00878BD7EF4339A6CCC801B06
:1092F0006CAA80110A3A6D222F112E2400FF2E181D
:10930000076B129363BCDA38EB0BC07EB37D28BCCD
:10931000BC38DD6CCC12936E2E0400FF2E0807EBD8
:109320007E0BE07F012E0400FF2E0807EC12935BFA
:109330000A1F2D412E2400FF2E1807ED7E1BB01AA8
:109340001B7D243E242E24339A0B28302D311B28DC
:10935000300BC0BEC00640BDDA3B227E0BF07C9EC7
:10936000AC9D220B1AE01BF8E00BF50BA0220A3C87
:109370006D227E1400031203677F01227EB3699B76
:109380007AB37D28227CAB7F617F701293CC7EB351
:10939000699C7AB37D2912937C7AA37D2AE4129387
:1093A000C17E1D287A377D2E7D3F7A377D307E3411
:1093B00000101293B80231E37A377D327E087D289F
:1093C000227AB37D2B7D3D7A377D2C227E087D2845
:1093D0007E340010E40200261294481293D01294B6
:1093E00051129462A2031294767A737E577E34806F
:1093F000007A377E5EA20492057E087E540231B563
:109400007E1F2D2E1293D86CFF227A1D44C201C2FA
:10941000027E2F2D2E7F027F121294481293D012BB
:1094200094517AB37E56129462A201337C7B3E70D3
:109430003E701294877A737E577E3480307A377EFE
:109440005E7E087E540232E87F617F707E087E5423
:10945000227E73699C7A737E557E73699B7A737ED4
:1094600054227D3D7A377E587E1D447A377E5A7D60
:109470003F7A377E5C22337C6B3E60A201E4337C12
:109480007B3E703E704C76A202E4334C7B22CAF8DD
:109490007CFB1293CC7E087D387E340005120026BA
:1094A0001294E17E4767834CFF78337A737D297A83
:1094B000A37D287E5409467A577D2C7E1F2D2A7D58
:1094C000537A577D2E7E1F2D2A7D537A577D307C0F
:1094D000B9F5287E087D287E187D38123284DAF8A6
:1094E000227EA3699B7E73699C229001B3E4936002
:1094F0004F1294E16C6680230A262E2401B4129543
:10950000C77C5BAC573E247E0F2D2E2D120B0A20FC
:109510007E3002AC3659217D280B60BCA638D96D4F
:10952000226C6680177E3002AC3649417D287DF280
:109530001295431B0A400A172D210B60BCA638E583
:10954000227DF43EF47E0F2D2E2D1F229001B3E4D8
:109550009360521294E16D227D426C6680241295D4
:10956000410B0A100A062E0401B47A11827A018393
:10957000E4937C1B7402AC1B59107D280A172D4103
:109580000B60BCA638D87D426C6680157E5002AC5C
:109590005649227D281295411B0A200A272D420B8D
:1095A00060BCA638E72212966C12954C12BED012FF
:1095B00094EA1295C07EB38EC9B401030296872245
:1095C00074017AB38EE2227A51827A4183E4932243
:1095D0007CAB6C77BCA7782A7E638E880A06122E35
:1095E000AF12965E7E081DC6591239795902397735
:1095F0007E0822E65912397D5902397B7E082806F9
:10960000804A7E5004AC5A0A172D212E2400E41201
:1096100095C77C6B7EB38E880A0B122EAF12965EB6
:109620000A067E140F60AD107DF12EF43A006DEE47
:1096300059F2397959E239777DF12EF43F2059F208
:10964000397D59E2397B2E1444406D00591239811D
:109650005902397F0B70BE70035002A1D4227E5094
:109660001EAC57591239755902397322E47AB3671F
:109670008E7AB3678F227E1809467A1D287E1F2DA9
:109680002A7F01E40293857EA3699E7E3002AC3A74
:109690007D013E04493004263E347E2704263E24C4
:1096A0002D23493104282D327E240005120324592C
:1096B000310426227A377E587D317A377E5C7AB340
:1096C0007E54E5457AB37E557E3480207A377E5EBF
:1096D000A203E41294767A737E577E087E54023297
:1096E000E87CAB7EB3677C6027B401097EB3676614
:1096F000BEB002681B7EB36766B40214740DA40981
:10970000B565E6BEB014280874047A0BB07A1BB0B5
:1097100022029714CA3B752E006CEE12C83B7CDB0C
:10972000C200C2016CFF7EB3699DF52C7EB3699EB9
:10973000F52DE47AB32E797EB32E74B40102800342
:109740000298AA7E736766BE700A38077EE001C27F
:1097500000800CBED003380FBED001400AD2007585
:109760002F0675300680026CEE6CCC029895128F35
:10977000DFF52A09B36565F52B300011E52A7E7106
:109780002B12C86C50057EE00180026CEEE52BBE0A
:10979000B0004019E52BBEB0013812E52ABEB0007A
:1097A000400BE52ABEB00238046CEED201BEE001E7
:1097B000780FE52F7E71307C6C7C5F129973029874
:1097C0007C7528037529033001057EE001C2017E06
:1097D000636766BE6006401D12C8965037BED00152
:1097E00078028020BED002380280217528027529B7
:1097F00002807D801FBE6004402212C8965015BEB4
:10980000D0017808752805752905806475280375C9
:109810002903805C7528017529018054E52ABEB0B2
:1098200001280EE52C0A2B1B25E52A0A3BBD3248F0
:1098300003752802E52BBEB001280EE52D0A2B1B6F
:1098400025E52B0A3BBD324803752902C202E52AF1
:109850007E712B7C6C12D290BEB0FF680675280218
:109860007529027CBC7E0800287E1800291296E12A
:10987000E5287E71297C6C7C5F1298AD7E700DAC02
:109880007F09B365E6BEB12E2802F52E0BF0BEF0BF
:109890000A500D0BC07E736766BC7C280302976E6E
:1098A0007AF36766E52E7AB32E79DA3B22CA797CA1
:1098B000057C967CF77C1B7CB9128FCB129D8608A9
:1098C000047A177D377402ACB9098565647A837DA3
:1098D000287402ACB9098565657A837D297A937D00
:1098E0002A129D7D7AF37D2D129AB77C6F129A937E
:1098F000129D757EF37D2E80197EE37D3080097C7C
:10990000BF7C7E12743E0BE07E737D31BC7E38EFEF
:109910000BF07E737D2FBC7F38DF129BEFDA79224C
:10992000CAF87CF67C877C9B0A2F7D323E340B3450
:109930007CB7BCF938140AF81BF40A3F9DF30A39C6
:10994000BD3F18067CAB0A39801DBCF9280D0A39C9
:109950000A5F2D530B547CABE480100A3F0A582D4C
:10996000530A399D537CAB9D327CB77A0BB07CBADD
:10997000DAF822CA3B7C057CD67CC77C1B7EB369A7
:109980009CF5377CBD128FCB129D8608047A177D1B
:10999000377402ACBD097565647A737D287402ACB6
:1099A000BD097565657A737D297AD37D2A129D7DFF
:1099B0007AC37D2D129AB77C6C129A937E187D47DC
:1099C0007A1F7D33E5377E337D28AC3B7E737D295E
:1099D0000A072D107D013E04490004260B047E2455
:1099E00000067D301203249F227A2D316D227A27C2
:1099F0007D396D777EA37D2E80487E537D30803803
:109A00007E3137AC3A0A452D147D413E4449440429
:109A1000267A4535E419B17D47BE35355818BE055F
:109A20003508137ED5357D4D1A481AC87E7D312FF5
:109A3000767A7D310B740B507E437D31BC4538C046
:109A40000BA07E437D2FBC4A38B0BE740000280CAA
:109A50007E1D317D171203707A377D393026207CC8
:109A6000BD129AE87A3535BE347FFF68127E377DA5
:109A700039BE353518097E35350B357A377D3912C3
:109A80009D757E737D297EB37D2812752D129BEF07
:109A9000DA3B227E087D301299207AB37D317E73C5
:109AA0007D2E2E737D2F7A737D2F7E737D302E73E6
:109AB0007D317A737D3122E47AB37D329F117A1F32
:109AC0007D3B7A1F7D3F7A1F7D437EB37D287E7369
:109AD000699B7C617E087D2E1299207AB37D2F7E52
:109AE000B37D297E73699C22CA3B7C3B7E236766DB
:109AF000BE2002500280607402ACB309D5656409CF
:109B0000E565657EA0FF7EF0FF6C22803DBC32687B
:109B1000377E1002AC1209B06564F53809C065657E
:109B20000A2B0A3D129BE7F5390A2C0A3E129BE7E5
:109B3000F53A0A4BE5390A0B2D04BCA1280A7CA191
:109B40007CF285393D853A3E0B207E036766BC0278
:109B500038BBBEA00F28067E347FFF807C7402AC29
:109B6000BF096565647A613809C565657E08003C92
:109B70007A0D417CBD7C7E7C5C7E08003B12E1243A
:109B80007D03E53EBEB13D502CE53CBEB000280E45
:109B9000E53B7E713C1B70129BDF58027D0AE53C61
:109BA000BEB0235032E53B7E713C0B70129BDF58F8
:109BB000267D0A8022E53BBEB000280AE53B141250
:109BC0009BDC58027D0AE53BBEB011500AE53B0420
:109BD000129BDC58027D0A7D30DA3B227E713C12FA
:109BE00012E57DA3BD0A229D321205497CB7227E73
:109BF0000D1A6930001569200013BE180000780C9A
:109C00007E1800017930001579200013202520747A
:109C100006129FE11277AB2F111478FB1277747440
:109C200006129FD91277AB2F111478FB1277747E2E
:109C30007D1A69B7001569A70013693700196927EC
:109C400000177F051203C37DD36937001D69270004
:109C50001B7F051203C3302519BED4000058026DC6
:109C6000DDBE34000058026D33129D6D59D565E09C
:109C700080117D2D2E240020129D6D592565E02E2A
:109C8000340020593565E229A7000A296700037EC0
:109C9000700DAC6719A365E6095365E6BE502D2823
:109CA00006742D19B365E629B700021287E0129DEC
:109CB0009C18047EB400016CAA7E6D1A29760001FE
:109CC0004C77680B7E63699E7CB614BC7B78052E4E
:109CD000A006800FBE700168087CB624FEBC7B78AD
:109CE000020BA27E6B704C77680B7E63699D7CB61D
:109CF00014BC7B78052EA006800FBE700168087C1E
:109D0000B624FEBC7B78020BA20A3A6D227E336930
:109D10008F0A136D009F0169F6001569E600137F35
:109D2000171203C37D1B6D00BF1028067D3B1A264A
:109D30001A247E14007F1203677D1B1203707CA718
:109D4000296600037E700DAC6719A365E529A6009E
:109D5000027402A409556564195365E709556565E0
:109D6000195365E859F365EB59E365E92229A70022
:109D700003740DA4227E187D287A1D1A227A037D91
:109D80002B7A137D2C227A377D377E176990BE1788
:109D90007D37222D98E5337C701212E57DB3BEB479
:109DA000000022CA3B7CD67CC77C1B6DAA7D9A7EB4
:109DB0004400644C5568076CFF75330180127E03C4
:109DC000699D0A507D851B847D387CF71B55F533D2
:109DD0007AC1327AC1347E01328011129EA55811A7
:109DE0007A0134129D9308022DAB1B00BE0000586F
:109DF000EA7AC1327CECE5321A5B0B547C0B8010A2
:109E0000129EA558137CE0129D9308022DAB0B0007
:109E10007E73699EBC7018E8E5347C7E7C617C5C56
:109E20007C4F12DE617C7B7439ACBD197589910958
:109E300065899309758991BC762804197589937C85
:109E4000BC7E71347C6E6C557E43699E0A841B8493
:109E50007D18129EB119A3898ABDA950147D396D50
:109E60002274042F111478FB7D1A0B1412037080D6
:109E7000029F117A1D354D9978049F1180174DAAC4
:109E800078067E1800FF800D7E1D35BE1800FF2865
:109E9000077E1800FF7A1D357E2D35129EB619A358
:109EA0008989DA3B227CBF7C701212E57D83BD4834
:109EB000227C43129EBE7CAB7E7039AC7D227C142A
:109EC0007C467CAB1A1A2D111AF77D419D4F7C6997
:109ED000BC1658047CB680027CB41A049D107C63C6
:109EE000BC5608047CA680027CA79CBA0422CA3B0C
:109EF0007CD67C0B6DBB7DAB7E4400644C55680703
:109F00006CEE7EF00180107E13699E0A517D751BF8
:109F1000747CEF1B557CFB7A01327A01337EC132AF
:109F20008011129FBD58117AC133129FC908022DAA
:109F3000BE1BC0BEC00058EA7A01327C10E5321A5E
:109F40001B0B147CC38010129FBD58137C1C129FE6
:109F5000C908022DBE0BC07E73699DBC7C18E87CCD
:109F6000B07E71337C616C557E43699D0AF41BF4AD
:109F70007D1F129EB119A3898CBDBA50167D3A6D12
:109F80002274042F111478FB7D1B0B141203707FB5
:109F90006180029F664DAA78049F6680104DBB7851
:109FA000028006BE6800FF28047E6800FF7D3D7CBD
:109FB000A77E7039AC7D19A3898BDA3B227CBC7CEF
:109FC0007E1212E57DF3BD4F222DAF7CBC7C7F124B
:109FD00012E57DE3BEE40000227E0D1A2E14001B64
:109FE000227E0D1A2E14001722CA797CABD2006C87
:109FF0009980487EF00DACF909B7679BBCBA7839F7
:10A0000049576799BD503810BD51400C49176797A3
:10A01000BD123804BD135002C20030001849376722
:10A0200097BE3402C6500EBE3401682808BE5400E4
:10A03000735002C200A200800C0B907EB3696DBC0D
:10A04000B938B0A200DA79227F717F603033067EA2
:10A05000B38E8E70097E088BFD121FF701ED6C1117
:10A060000A3112A2356009E40A3119B38BFD8073FD
:10A070000A3109B38BFD606B7E700DAC712E348C90
:10A080008B7E23696D7CB2047AB3696D7E300DAC32
:10A090002312A22A7E900DAC9149348C8B7408ACAB
:10A0A000B17F562DB57935000249348C8D2D5D7DFB
:10A0B0004C7932000474010A3112A0F20A3109030A
:10A0C0008BC10A1119018BD52E348BFD7E39B0144A
:10A0D0007A39B07E3400017CB160053E341478FBDF
:10A0E00012A6360B10A5B90A02800201607EB36980
:10A0F0006D222D3F7D2E7A1BB022CAD8CA797F717E
:10A100007F607E378C074D33780241256CDD0A3D38
:10A1100012A2357002411C7E3400017CBD60053EF8
:10A12000341478FB5E378C077802411C6CEE0A3ED3
:10A1300012A23570267E3400017CBE60053E3414C8
:10A1400078FB5E378C0778137408ACBD7F1612A4B9
:10A15000D8BEB003680CBEB00168070BE0BEE00AD1
:10A1600040CCBEE00A503B74010A3E12A0F27408D3
:10A17000ACBD7F162D357408ACBE7F062D15740856
:10A180001204186CFF8014740DACBF0975679BBC7A
:10A190007D780619E5679B80650BF012A23D38E7D4
:10A1A000805C6CFF80177E700DAC7F0953679BBC91
:10A1B0005D780874FF19B3679B80070BF012A23D0E
:10A1C00038E47EB3696D147AB3696D7E700DAC7F2F
:10A1D0002E3467977E147D4E740D1203F77E6369EB
:10A1E0006D7E700DAC6712A68CAC3F12A22A7E3435
:10A1F0007D4E7E23696D7E300DAC2312A22AE40AC7
:10A200003D12A0F27E347FFF7408ACBD7F062D1591
:10A21000793000027F062D15793000040BD0BED0B6
:10A220000A6802210EDA79DAD8222E146797740DA3
:10A230000203F70A3F2D3F7D2E7E1BB0227E7369FD
:10A240006DBC7F22CAF87F706CFF12A233B4040584
:10A250007CBF12A2760BF0BEF00A78EE6CFF12A261
:10A2600033B408057CBF12D4EB0BF0BEF00A40EE0D
:10A2700012A2D1DAF822CAF87CFB6C1180477E303A
:10A280000DAC310901679BBC0F783812A4BB12A238
:10A290002A740DACB10905679E0995679F12A4DF6A
:10A2A000ACB00A4912A4EC12A7C77CBF7E900DACDB
:10A2B00091491467974904679912A4C57CBF12A5F8
:10A2C000BE800B0B10900203E493BCB138B0DAF8F7
:10A2D00022CA3B6CFF6CEE6C117E300DAC317D31CF
:10A2E0002E3467972E147F0712A712A5B90AEA7EAB
:10A2F000086797121FFF6C117E900DAC9109D47FF7
:10A300000BBED0FF68457408ACBD09C5691DBEC051
:10A310000268044CCC78127D342E347F077E300DD9
:10A32000AC3F12A22A0BF08022BEC001781D7D3402
:10A330002E347F070A2E7E03696D0A402D427E541B
:10A34000000DAD547D1512A22A0BE00B10BE100AB1
:10A3500040A6DA3B22CA797CF77CEB7E900DAC9E5E
:10A36000493467977E5039AC5F5932899F491467E9
:10A3700099591289A17EB35947700E495289A14952
:10A380000289B22D051E048004490289B24952890E
:10A39000B09D35593289A39D107439ACBF591589C8
:10A3A000A57439ACBF491589A37E44000C12A4A240
:10A3B00012A4997439ACBF495589A74D55781CBE74
:10A3C00014000008097E34000112A499800DBE1407
:10A3D0000000580712A4A9591589A77439ACBF49C0
:10A3E0001589A7BE140000080FBE14000358217E73
:10A3F00034000312A4998018BE1400005812BE1431
:10A40000FFFD080C7E14FFFD7439ACBF591589A7F8
:10A410007439ACBF491589A512A4A212A4B212A71F
:10A42000B54D33781CBE14000008097E34000112BB
:10A43000A4B2800DBE140000580712A4A9591589B2
:10A44000A912A4BB7E300DAC3E12A22A740DACBE84
:10A450000965679E0975679F12A4DFACB60A4712AB
:10A46000A4EC7E300DAC3E590167996CAA7E700851
:10A47000AC7F19A3691EE419B3691D7E700A743993
:10A48000ACBF19758988494167975945899B49111E
:10A4900067995915899DDA79227439ACBF59358984
:10A4A000A7227D317D240203247E14FFFF7439AC82
:10A4B000BF227439ACBF593589A9227E7039AC7F6F
:10A4C0002E3489B02212A5C97EB3696D047AB369AE
:10A4D0006D227408ACBC7F172D3529B100012274A0
:10A4E00039ACBF491589BD7EB3699E222D543E54B7
:10A4F0007E1F2D2E2D351B1A1022CA3B7F707EF336
:10A50000696D6CEE803E740DACBE09D5679B5ED064
:10A510000F0A3E2D3F7D2E7E1BC0BEC00178097CF8
:10A52000BE7C7D12A58A801ABEC00278097CBE7CE2
:10A530007D12A355800CBEC00378077CBE7C7D12C3
:10A54000A54B0BE0BCFE38BEDA3B227C6B6CAA7ECE
:10A550005008AC5719A2691EE419B2691D740DACFC
:10A56000B60905679E09A5679F7439AC7B491389B5
:10A57000BD7E13699EAC010A3A02A57C2D033E0400
:10A580007E1F2D2E2D301B1A10227CAB7EB3696DE1
:10A59000BEB0002828147AB3696D7E60FF740DA4E4
:10A5A0001965679B7E60037408ACB71965691D7CEB
:10A5B000B712A5BE7EB38BC0047AB38BC0227CAB2E
:10A5C00074010A3A19B38BF3227CABC206BD23781F
:10A5D00002C322BE340001782BBE24000268044D61
:10A5E0002278427EB38D17047AB38D17E548601048
:10A5F0007E3400017CBA60053E341478FB12A63626
:10A60000D2068021BE340002781B4D227804D20687
:10A610008013BE240001780D7EB38D176005147A77
:10A62000B38D17D20630060B7D327CBA7D217D10AA
:10A6300012A63FA206224E378C077A378C07227C5F
:10A64000AB7C177E9008AC9A1914691E7E9008ACFA
:10A650009A1914691DBE247FFF68097E1008AC1A80
:10A660005920691FBE147FFF68097E5008AC5A59F3
:10A67000126921BE340001781212A7D15943691F13
:10A680007E347FFF7408A459356921222E346797E0
:10A690007E300D22CA797CEB900203E4937CFB7E32
:10A6A000700DAC7F7E087D2874FF120026E46C7765
:10A6B0007C6E12B3A07C7E7C6F12B3A07C1B6C00FE
:10A6C00080366C998017740DACB909A57D2C7E304D
:10A6D0000DAC300981679BBC8A68060B90BC1938A9
:10A6E000E5BC1978117E700DAC7012A68CAC312EC1
:10A6F000147D2812A7120B00BCF038C6740DACBF35
:10A70000CA597E187D287E08689B1205241BFDDA35
:10A710007922740D1203F70B1022CA797EF3696D4A
:10A720007EE3696E7CBF7C7E12A75B7CBF12A69421
:10A730004CEE781412A7DBCA597E1867977E08681A
:10A740009B1205241BFD800B7EB3697470057CBFD2
:10A75000126EEF7CBF12BDF6DA79227C677C7BA596
:10A76000BF000DBE60002805E47AB3697402BDC65F
:10A77000A5BE00126CAA800912A7BE1962689F0BC1
:10A78000A0121CB938F26CAA80267E300DAC3A2E8D
:10A790001467970B18201223A31B18207E300DACD2
:10A7A0003A2E1467990B18201223A31B18200BA014
:10A7B000BC7A38D6227439ACBF493589A9227E606B
:10A7C000FF7E500DAC5A227548017E3400016D2287
:10A7D000227E447FFF7E7008AC7A22900203E493CD
:10A7E0007CAB740DA4220A3B09B38BE922CAF87E24
:10A7F000B3696D7017E47AB3697612BE97281F7437
:10A80000017AB36972E47AB36975801274017AB31C
:10A8100069767EB3696E700674017AB3697112A7A6
:10A82000DBCA597E1867977E0868191205241BFD3C
:10A830006CFF8018127F5B740DACBF59356819121C
:10A840007D8D740DACBF5935681B0BF012A85438C0
:10A85000E3DAF822900203E493BCBF22CA3B6D887E
:10A860007D987E73696D7A7137BE7000281A7E37C5
:10A8700078B60B347A3778B6BE340064280E7E344E
:10A8800000647A3778B680047A8778B67EB35960E8
:10A89000B40104740380077EB378656005147AB34D
:10A8A00078657E876F9DBE878E8928107E84FFFF26
:10A8B0009E876F9D2E878E890B8480087E878E8968
:10A8C0009E876F9D7D387CC77E878E897A876F9D36
:10A8D0007EB36974600302B24FC22A7E8467977E9A
:10A8E000087D6D121FF7C2007AB36F9C6CEE02B048
:10A8F000BD12F0B809F20004BEF00A400302B0BB7A
:10A9000012B268B40202800302B00E7402ACBF7DC2
:10A91000A52EA4788E0BA8300B341BA8307E307384
:10A92000AC3F2E1473D36D007A0D2E12F2AF491581
:10A9300073AB490573AD12D01D7DA312F0B812F2AE
:10A94000AF491578664905786812D01D7A352C7E96
:10A950007002AC7F7D132E1478A20B18202D2A1BB9
:10A960001820492378A2BE240FA028087E240FA017
:10A97000592378A27AC37D2812F0B8093200067AEA
:10A98000337D2A7AA77D317E152C7A177D330B28EB
:10A99000107A177D35492200027A277D37492378BE
:10A9A0008E7A277D39493378A27A377D3D7404AC9D
:10A9B000BF493573AB7E477D359D437A477D2D4931
:10A9C0002573AD7E377D379D327A377D2F0A3F095B
:10A9D000A37851BEA000280512B27A80097E087DB6
:10A9E0003F12F3966D990A3F09A37851BEA0024029
:10A9F0001212F34E2E34FFD27E147D5674171204B9
:10AA00004180077E087D5612F3966D337A352A759C
:10AA1000290080127EA12912F34E693100092E35DA
:10AA20002A7A352A05290AFF097F7851BE7129380B
:10AA3000E3BE7000280A0A277E352A8D327A352A2D
:10AA40007EE52A7AE77D3BC201C202C203C204C28C
:10AA500005098F78B84C88680261927406ACBC7D99
:10AA6000E52EE40014BDE95006BDEA5002D22A7E6C
:10AA7000A37D3F7406A4BE577D4850197EA37D5622
:10AA80007406A4BE577D5F500C7EE77D52BEE40085
:10AA9000142802D202A202E4337AB37D2B741EACD6
:10AAA000BC7DE52DE9BDEA5004D20480127E34005D
:10AAB00003AD39BD3A5008BEA4006E2802D205305D
:10AAC0000406D2037464801430050F300206C203FA
:10AAD000740A8008D20374C8800274147AB37D2982
:10AAE000200302616A7EE77D3BBEE4000A287B7E8C
:10AAF000E77D52BEE4000A28717EE77D69BEE4006E
:10AB00000A28677EC77D442EC77D4CBEC40000580E
:10AB1000026DCC7EB77D462EB77D4EBEB400005888
:10AB2000026DBB12F1DF7D1C7D0B12D01D7DC37E3B
:10AB3000E77D54BEE40FA0400A7E277D527E34009C
:10AB40000A80177E937D2ABE900A7E277D522806B2
:10AB50007E34000680047E340003AD327DD3BDDC3C
:10AB60002808C20374287AB37D297EB36F9CB40190
:10AB70000BC20312F41C746E7AB37D29740EACBC44
:10AB80007A5535BE5400C828297EE400C87AE535D8
:10AB900080207D3F2E3478B87CB8147A39B07E346A
:10ABA00000B47A353574787AB37D29D203E47AB368
:10ABB0007D2BA203E4337AB37D2C0A4F09A4785B82
:10ABC0004CAA78607E3535BD3A50093003067401D1
:10ABD00019B4785B7E377D39BE3400032822BE3439
:10ABE0000019501CBEA4008C3802A1FB7E077D48D2
:10ABF0007E14000AAD10BD1A4002A1FBD201A1FBD8
:10AC0000BE3400036802A1FBBEA4008C3802A1FB85
:10AC10007E277D487E34000FAD32BD3A4002A1FB55
:10AC2000D201A1FBBEA0016802A1D37E377D69BE1F
:10AC3000340003502C7E277D48BE24005050227ED5
:10AC4000277D39BE24001450187E277D61BE240064
:10AC50001E500E7E277D4ABE24005050047DD9A18F
:10AC6000237E277D39BE24000A50137E277D52BEE5
:10AC700024000828097E537D2ABE500F40197E27E4
:10AC80007D52BE24000F283BBE34000F28357E7352
:10AC90007D2ABE700A502C7E737D3F0A077D198D78
:10ACA000107D011E0412F38DBED4007828047ED4DA
:10ACB0000078BE700A286CBED4005050667ED40066
:10ACC0005080607E737D3F0A077E177D488D107D22
:10ACD0000112F38D7EA37D417402A47E737D2A0A46
:10ACE00037BD35081FBE24001E50197E537D580AFB
:10ACF000259D32120549BE3400050808BED400C89F
:10AD00005021800F7E737D2ABE700F280CBED400A8
:10AD1000C828107ED400C8800ABED4007828047EDB
:10AD2000D40078BDDA2804D201806E7E3535BD3A74
:10AD30005008300305740312F1D87E377D39BE34D4
:10AD4000001E50557E73702DBE7002282C7EB37D80
:10AD50004270267E377D61BE340032501C12F1DF16
:10AD600012BD6C50347E73702EBE70022804D20166
:10AD70008027740212F1D880207E377D61BE3400B6
:10AD80001E50167E377D33BE34001E500C7E377841
:10AD9000B6BE3400785002D2010AFF098F785BBE3C
:10ADA0008001782212F1DF7E177D637E077D6512B8
:10ADB000D01DBE34003C5009C201E40AEF19BE7830
:10ADC0005112F41C8035BE80037830740119BF78AD
:10ADD0005B80280A3F09B3785BB4021F7E737D56FF
:10ADE0000A277E377D5F8D327D231E240A3CAD32DB
:10ADF0007DD3BDDA2802D20112F1D77496ACBC7AA9
:10AE00005532BE540500280D7EB3786570077E3438
:10AE100005007A35327E3532BD3A500C7E377D39A9
:10AE2000BE3400022802D20130016B12F1D77548FE
:10AE3000017E34000212F30B7E047FFF7D1012A509
:10AE4000C97E700DAC7E12A68CAC3F2E147E85742C
:10AE50000D1203F7740212B2717E347FFF7404ACDA
:10AE6000BF593571D375290080197E7129740DACD5
:10AE70007B0953689FBC5F780874FF19B3689F8093
:10AE80000C0529900203E493BEB12938DDE537BEF5
:10AE9000B000280215370A3F09A3785B4CAA780254
:10AEA000E196BEA00178377E277D39BE2400027866
:10AEB000127E5004AC5F491273AB7A154449227379
:10AEC000AD80397E277D4C7A25447E277D4E7A25BC
:10AED000467E277D447A25387E277D468045BEA064
:10AEE0000278437E277D39BE24000338197404ACF0
:10AEF000BF492573AB7A2544492573AD7A25466D44
:10AF0000227A2538801D7E277D637A25447E277D21
:10AF1000657A25467E277D5B3E247A25387E277D0F
:10AF20005D3E247A253A7EC5382EC5447EB53A2E3C
:10AF3000B5466D227A253C7E1765607A15407A25E4
:10AF40003E7E2765627A25426D22BD2C08047DC2B3
:10AF500080097E2540BD2C58027DC27E253EBD2B3A
:10AF600008047DB280097E2542BD2B58027DB27E49
:10AF7000500DAC5E7D122D180B18007404ACBF5937
:10AF80000573AB49010002590573AD1B18C02D288C
:10AF900059B20002801612F0B80B28407404ACBFFE
:10AFA000594573AB49220002592573AD09B3785155
:10AFB000B40539752900801A7EA1297417A47E0D65
:10AFC0002E7F102D352E3400172D157417120418EE
:10AFD0000529E529BEB00440DF7E347D287E0D2E94
:10AFE0002E14005C741712046602B0BB7E347D28F8
:10AFF0000A2F09A278517417A47E0D2E2D157417EF
:10B000001204660A3F2E34785112B29401BB12B278
:10B0100068704E12B2600B38107E5004AC5F59124B
:10B02000786612B260493300025932786859127357
:10B03000AB593273AD6D337E5002AC5F593278A29A
:10B04000E40A1F19B1785119B1785B7E14000159D7
:10B0500012788E593278A274010A3E19B378B880FA
:10B060005A12B268B401540A4F09B4785BB4014B68
:10B070007E73696EBE700128427E7073AC7F2E3481
:10B0800073D36D227A1D2E09A47851BEA000280525
:10B0900012B27A80026D99BE9403E8501E7E90042D
:10B0A000AC9F493473AB740DACBF59357E854934C0
:10B0B00073AD59357E87740112B2710BE0BEE00AA0
:10B0C000500302A8F17E73696DBE71372809E53718
:10B0D0007AB3696D12A2D1200002414A6CDD753449
:10B0E000007E087D77121FF77E087D81121FFF6C9E
:10B0F000EE80517E700DAC7E09F3679BBEF00A5066
:10B100004174010A2F19B27D777E9008AC9F091413
:10B11000691D4C116804A5B9020B2E34679712B251
:10B12000520BD0801DA5B901197E700DAC7E2E3456
:10B1300067977E3134740DAC3B2E147E031203F7F7
:10B1400005340BE0BEE00A40AA6CEE41020AAE09EB
:10B15000BA7D6D7002410075280021F7E5280AAB21
:10B1600009BA7D77600221F5740119BA7D777E7086
:10B170000DAC7E2E347E8512B2527EA1287E900DBB
:10B18000AC9D19A47D8549F47D817EA1287404A419
:10B1900059F5786649A47D8359A5786859F573AB4C
:10B1A00059A573AD6CAAE5280AEB19AE7851E419DC
:10B1B000BE785B6D447EA1287402A4594578A27EB6
:10B1C0003400015935788E740119BE78B80AEE0939
:10B1D000BE7D6DB40105754801800A09BE7D6DB460
:10B1E000020F75480012A7CAE5287D1F7D0A12A527
:10B1F000C90BD0800B0528E528BEB00A5002215C9F
:10B200000BE0BEE00A5002214D6CEE801A7E700DFC
:10B21000AC7E2E347E030A2E0A0D2D027E14000D04
:10B22000AD1012B2570BE0E534BCBE38E06CEE80D6
:10B23000107E300DAC3E7D312E347D8112A22A0B62
:10B24000E0BEE00A40EB7AD3696DE47AB37396DA34
:10B250003B227E300DAC3D2E147D81740D0203F730
:10B260007E700DAC7E2D38227408ACBF09B5691D07
:10B27000220A3F19B37D6DD200227417A47E1D2EC1
:10B280002D352E34FFE97E147D3F74171204417E64
:10B29000977D48227E39B0047A39B0226CAA7E6349
:10B2A000702CE40A4619B4702F19B470396C778089
:10B2B000487E500DAC574922679712B34759217009
:10B2C000437E500DAC574922679912B347592170FC
:10B2D000450A262E24702F12B33F7E500DAC57091D
:10B2E00042679B7E5008AC4509B2691D70090A2669
:10B2F0002E24703912B33F0B707EB3696DBCB73822
:10B30000B07EB3702C047AB3702CB40A05E47AB31F
:10B31000702CE47AB3702E6C770A270962702FBC08
:10B320006A28027CA60A27096270392E63702E7A79
:10B3300063702E0B70BE700A40DF7AA3702D227EE0
:10B3400029B0047A29B0220A160901702F7E100450
:10B35000AC017E3028AC362D10226CAA6C7780357B
:10B360007E500DAC574942679749226799BE440009
:10B370002328207E1765609E140023BD142814BE68
:10B38000240016280E7E1765629E140016BD122832
:10B39000020BA00B707E63696DBC6738C37CBA2258
:10B3A0007E087D28CA69CAF87F707C867CF77CABF2
:10B3B0006C9981647C3F815C7E100DAC190920681A
:10B3C0009F7E100DAC1309B0679BBCB26802815A16
:10B3D000BE20FF7802815A7ED008ACD209B6691D22
:10B3E000700A7D302E3467976D22800B7E700DAC15
:10B3F000792E34689B6D222911000412B476391617
:10B4000000040B1A0012B4761B6A006901000212D4
:10B41000B476790600027E100DAC130910679C12F9
:10B42000B476391600057E100DAC130910679D1215
:10B43000B476391600067E100DAC130910679E1203
:10B44000B476391600077E100DAC130910679F12F1
:10B45000B476391600080BA080080B30BC83280294
:10B4600061B80B90900203E493BCB9280261B47CEC
:10B47000BADAF8DA69227ED00DACDA7F672DD622EF
:10B480007E08702C7E3401A7E40200267F707C9B2E
:10B490007EA00A7E3028AC3919A171FCE419B17183
:10B4A000FD740119B171FEE419B171FF19B1720097
:10B4B0002977000519717201297700061971720246
:10B4C00019B172037E047FFF590172040B7A30595F
:10B4D0003172066907000259017208593172125916
:10B4E00001721419B1721F5931720A5901720C5943
:10B4F00031720E590172106937000B692700095922
:10B500003172225921722022CA3B7EB36979F53407
:10B5100075460A7E68691D7E58679775470A7548A3
:10B52000057E8400647A853C7E9765607D399E3413
:10B5300000647A353E7A85407E7765627D879E8499
:10B5400000647A85426D887A85446CDD02BC577E42
:10B55000700DAC7D7F752DF329C70004BEC00A4075
:10B560000302BC550B7A20BE25442804BD294005A2
:10B57000753201800375320069270002BD28280456
:10B58000BD27400575330180037533007408ACBCDA
:10B590007F062D157E0BB0B40202800302BC3A7EFA
:10B5A0005028AC5C09B2721F60164902720E0B7A09
:10B5B000109D107A152C492272107F052D138019C9
:10B5C0007428ACBC4925720612BC620B0A309D324D
:10B5D0007A352C12BD2B12BC6212BD247A352E7E18
:10B5E000352C1205497A35287E352E1205497A35D3
:10B5F0002A7428ACBC4925720C12BC6212BD2412FC
:10B60000BC924925720A740DACBD2D5B7D4A0B2A94
:10B61000301273FD7A353012BC6229B00005F53660
:10B6200029B00006F5376930000B692000097A1D42
:10B63000387E7028AC7C09537201BE51365006E545
:10B640003619B3720109537202BE51375006E537FD
:10B6500019B3720209B371FDBEB0FA50082E3471ED
:10B66000FD047A39B07CBC12A7E6600A7428ACBC31
:10B6700009B571FCF5467535007E3028AC3C09A152
:10B6800071FF4CAA7849E534BEB00840107E053001
:10B69000BE040050503175351E8034802AE534BE1A
:10B6A000B00540137E0530BE04003C5005753514CE
:10B6B000801D75350A8018E534BEB00340117E0543
:10B6C00030BE040032500575350F80037535074CC8
:10B6D000AA680302B853097171FDBE70124002E1FD
:10B6E000A0094171FC7E5003AC457E71367402ACFA
:10B6F0007BBD235810E536BEB0282809128FCE191D
:10B700007171FC800F09717201BE70195006740AC4
:10B7100019B171FCE536BEB050500F7D012E047298
:10B72000037E09B0047A09B08005E419B1720309F7
:10B73000717201BE7050380302B84209617203BED3
:10B740006003400302B8420A37E5360A0B2E0400B4
:10B7500014BD034813097172020A477EA1377402AF
:10B76000A4BD54480302B8427E352A7D232E2528E5
:10B77000BE240064500A6D227A25287A252A801179
:10B780007E25281E241E247A25281E341E347A3550
:10B790002A7EA0027E7028AC7C19A3720002B842F7
:10B7A000E536BEB078281B7E3530BE34007850793F
:10B7B0007EB3594770057EA02880697EA00A806408
:10B7C0008067E536BEB06E281B7E3530BE34006E15
:10B7D00050577EB3594770057EA01E80477EA00655
:10B7E00080428045E536BEB064281B7E3530BE34CD
:10B7F000006450357EB3594770057EA01480257EC5
:10B80000A00680208023E536BEB050282A7E353041
:10B81000BE34004650137EB3594770057EA00A809F
:10B82000037EA00612BC6E80197E347FFF7428ACA4
:10B83000BC5935720A800B12BCA3BEA14728031263
:10B84000BD1312BC9CBE34000450086D337A3528F9
:10B850007A352A12BC780B1A10BE153C4013BE155F
:10B860003E380E69310002BE35404005BE354228E3
:10B8700004D2008002C2007E4400037E7D387F1720
:10B880007D1412036712BD06BF105805753564217B
:10B890003A7F072F0012BCACBF015802803112BCA6
:10B8A000AC7D141203677F017E1D382F112F11BF4D
:10B8B00010582175350A12BC9CBE340064507B12AE
:10B8C000BCD3BE34001E5072E536BEB050286B7536
:10B8D000353280667EB35947701912BC81605B12A5
:10B8E000BCA3BEA00A28057E700A803BBEA0022829
:10B8F00049804412BC8160427428ACBC09B5721FF7
:10B90000701A12BCD3BE340005501112BCAC7E0DAF
:10B91000389F10BE180190080375351E12BCA3BED7
:10B92000A01E280E7E701E7E5028AC5C197271FC21
:10B930008008BEA002280312BD1330000C12BC8187
:10B94000B4010675350012BC6B12BD067E1D382F82
:10B95000107E0800021203C37428ACBC5935722251
:10B960005925722012BC9C7428ACBC593572041243
:10B97000BC780B1A307428ACBC5935720E12BC78E6
:10B98000693100027428ACBC593572107428ACBC03
:10B99000097571FCBE713550067EA13512BC6E7CF6
:10B9A000BC12A7E660067EA14612BC6E7439ACBC20
:10B9B00009B58988B40A0312BC6B7E7028AC7C0977
:10B9C0005371FC0A25BE2528380241C2BE252A38FB
:10B9D0000241C212BC6212BCB9693000027428ACC8
:10B9E000BC5935721412BC816002418712BCCA9DD9
:10B9F000217428ACBC5925721612BD2B9D327428B7
:10BA0000ACBC593572187428ACBC491572167E044A
:10BA1000001012BCFA5935721A12BCC14D33782687
:10BA2000BE140000080E7E3400017428ACBC5935E9
:10BA3000721A8012BE140000580C7E14FFFF742886
:10BA4000ACBC5915721A7428ACBC4915721812BCDA
:10BA5000FA5935721C7428ACBC4905721C4D00782B
:10BA600026BE140000080E7E0400017428ACBC59E8
:10BA700005721C8012BE140000580C7E34FFFF7447
:10BA800028ACBC5935721CE532BEB001680912BC45
:10BA9000CA12BC781B1A10E533BEB001680F7428B7
:10BAA000ACBC4935720812BC62793000027E702845
:10BAB000AC7C09B3720060028155740119B3720045
:10BAC00081556CAA7E7028AC7C19A3721F7428ACB7
:10BAD000BC4925721212BC620B0A309D327A354D78
:10BAE0007428ACBC4925721412BD247A354F12BC9F
:10BAF000C112BC9212BCDC481D7E7028AC7C49236C
:10BB0000721A7A25517D132E1472160B18209E2559
:10BB10005112BCF080056D337A355112BC8A12BCCB
:10BB2000E6481D7E7028AC7C4923721C7A25537D23
:10BB3000132E1472180B18209E255312BCF080058A
:10BB40006D337A35537E7028AC7C492372062E25DE
:10BB50004D2E25517A2549491372082E154F2E1561
:10BB6000537A154BBE24000058056D227A25497E74
:10BB7000276560BE254950037A25497E254BBE24A2
:10BB8000000058056D227A254B7E276562BE254B45
:10BB900050037A254B12BC6212BCB96920000259CD
:10BBA0002372144933721A12BC9212BCDC481E1262
:10BBB000BC620B0A20BE24004028127E3765602E2E
:10BBC00034FFC1BD2350067E35491B0A3012BC8AA2
:10BBD00012BCE6482012BC6269200002BE2400406C
:10BBE00028137E3765622E34FFC1BD2350077E3592
:10BBF0004B793000027EA0017E7028AC7C19A371C5
:10BC0000FFE419B3720012BC620B0A2059237206BA
:10BC1000692000025923720809A371FCBEA14740A4
:10BC200008E54819B371FC802CBEA00128272E34EA
:10BC300071FC7CBA147A39B0801B7408ACBC7F16D6
:10BC40002D357E1BB0700E7CBC7E700DAC7D7F05EB
:10BC50002D1312B48C0BD0126F6F280302B54FDA7C
:10BC60003B22740DACBD7F052D15227EA0017E7098
:10BC700028AC7C19A371FC22740DACBD7F152D3549
:10BC8000227428ACBC09B571FF227428ACBC4935BC
:10BC9000721C1205497D137428ACBC227E352A2EF5
:10BCA0003528227428ACBC09A571FC227428ACBCD0
:10BCB0004935722249257220220B0A20592372121B
:10BCC000227428ACBC4935721A227428ACBC4915C0
:10BCD0007206227428ACBC493572042249357216AA
:10BCE000120549BD312249357218120549BD31226C
:10BCF0001B1820740119B3721F227D317D2012039D
:10BD0000247428ACBC227428ACBC491572224905A5
:10BD10007220227E7028AC7C2E3471FC7CBA24FE0A
:10BD20007A39B022693000029D32227428ACBC49B5
:10BD3000257208226CAA7E34FFFF7E5004AC5A594B
:10BD4000326FFA59326FFC59326FBD59326FBF7E74
:10BD50003002AC3A59316FE67E347FFF593271D3ED
:10BD6000593271D50BA0BEA00A40CB227D127D03B3
:10BD70006CAA6C99803212BDBB2D32492370437D71
:10BD800030126D1512BDBB7DE32DE2492E70457D4D
:10BD9000319D321205497DE3BEF400645008BEE4D3
:10BDA00000645002D3220B900A3A09B3702FBCB939
:10BDB00038C40BA0BEA00A40B9C3227E5004AC59BF
:10BDC0007E7028AC7A22121FB67402AC7B7E087398
:10BDD00097E4120026900203937C7B7402AC7B7E76
:10BDE000086F9FE40200267EB37396BEB0FA50053A
:10BDF000047AB37396226CAA80637E500DAC5A49C4
:10BE000032689B120B5B593267977E500DAC5A49D2
:10BE100032689D120B5B593267997E900DAC9A097E
:10BE2000B4689F19B4679B7E900DAC9A09B468A062
:10BE300019B4679C7E900DAC9A09B468A119B467D7
:10BE40009D7E900DAC9A09B468A219B4679E7E904D
:10BE50000DAC9A09B468A319B4679F0BA0121CB962
:10BE600038982274017AB367967EB36787B4010568
:10BE7000E47AB3679612BE972805E47AB367967E94
:10BE8000B32E747005E47AB367967EB303D7B4011A
:10BE900005E47AB36796227E73696EBE700022D283
:10BEA00000E47AB367907AB367937EB36788B4018E
:10BEB0000674017AB367907EB3678C7002C2007E0D
:10BEC000B32E747002C200200005E47AB36790229A
:10BED000CA3B7E3408257E2400FF7E147D2874240E
:10BEE0001204417E3408497E2400FF7E147D4C7488
:10BEF000241204417532006D337A35377EA3699D73
:10BF00007AA1397EB3699E7CEB7E1804267F417E40
:10BF1000187DE27F510B357F515E70FE6D227F519F
:10BF20007AE145C201C202D2037F057E1F2D2E7C1D
:10BF3000BA1296B4C2007EB3696E60087EB38EDE1C
:10BF40006002D2006CFF0A0F09308EDC0A530A3EF1
:10BF50001B34BD53582009708EDDAC7E7D032D054A
:10BF60007A053A7D403E447E7F2D2E7F672DD46931
:10BF70001600021B6A100BF07E187E087A1D3C7EAC
:10BF8000347E0A7E2400007A1D3C5E70FE6D227AAB
:10BF90001D3C7E187E2E7A1D407E347E307E24002D
:10BFA000007A1D405E70FE6D227A1D407E187D7005
:10BFB0007A1D2A7E347D727E2400007A1D2A5E70EE
:10BFC000FE6D227A1D2A7EB3699BF5296CFF803FA6
:10BFD00012C3AE49107D282E140BB812C3A5ACAF06
:10BFE00049157D4C2E140BB812C39B7E140BB87EE2
:10BFF000A002ACAF7E1D3C2D351B1A107E14F448F8
:10C000007EA002ACAF7E1D402D351B1A100BF0E553
:10C0100029BCBF38BB3000067E1D4012940A7E1832
:10C020007DBC7A1D2E7E347DBE7E2400007A1D2EBE
:10C030005E70FE6D227A1D2E12C3D2D203C2047E20
:10C040000D2E129400802512C3AE7E1D2E2D300BB6
:10C050001A100B1412C3A5ACAF7E1D2E2D350B1A72
:10C06000007E14FFFF9D1012C39B0BF0E529BCBF9F
:10C0700038D512C3D2C203D2047E08040012940041
:10C0800080167EA002ACAF49350400BE347FFF7835
:10C090000575320180080BF0E539BCBF38E4E532A4
:10C0A000B401057E1D2E80047E1804007A1D337EA7
:10C0B0000D33A200E43312C406E4337AB38EDE6C8F
:10C0C000FF41A97C7FAC7E3E342E3404266D227F56
:10C0D0004112C3AE7F752DF00B7AD0BED400145838
:10C0E0001D7EB35962B4011620000241A77E2D3394
:10C0F0002D500B2A309E340BB81B2A3041A7302C10
:10C1000030BED407D008097E1403201B7A10219278
:10C11000BED403E8080A7E1402587F152D308051E2
:10C12000BED40000180241A77E1401F412C381801E
:10C13000407E3402587A353A7E3401907DE37E3475
:10C14000012C7DF37EB38E8FB4021A7E353A2E34E5
:10C1500000C87A353A7D3E2E3400C87DE37D3F2EFF
:10C160003400C87DF3BED407D0080B7E153A12C345
:10C17000811B1A10801CBED403E8080812C3811B5F
:10C180001AE0800EBED40000180241A712C3811B22
:10C190001AF07EB38E8F700A7E14019012C3811B39
:10C1A0001A107EB38EDE600A7E14029412C3811BC5
:10C1B0001A1030000A12C3F89E340BB81B0A307EE6
:10C1C000A0027C9FAC9A7E6D337F162D340B1A2013
:10C1D0007F052D140B0A40BD4258097EA002ACAF6A
:10C1E0007F16801912C3810B1A306D449D4312C310
:10C1F000F8BD43080D7EA002ACAF7E1D332D351B6C
:10C200001A4012C3EA7D430E347A3537BE4400002B
:10C21000483830001B752800800F12C3DD08077DE9
:10C22000369D3412C3C812C38BBEE12838EC807728
:10C23000752800800E12C3BF080612C3941B4A6003
:10C2400012C38BBEE12838ED805D30002F752800C9
:10C25000802312C3DD581BBE6400C8580D12C3B63C
:10C2600048087E3400C77D63800312C3947D361274
:10C27000C3C812C38BBEE12838D8802B7528008034
:10C280002112C3BF5819BE6400C8580D12C3B64866
:10C29000087E3400C77D63800312C3941B4A60127A
:10C2A000C38BBEE12838DA0BF0E539BCBF280201A8
:10C2B000C37EB38EDE605074027C7EAC7B1B347A0E
:10C2C00035377EF001803412C3EABE34012C0821D8
:10C2D0007E05377DF03EF47E2F2D2E7F622DDF0B05
:10C2E0006A20BE24006408097D329E3400641B6A03
:10C2F000300A3E2E35377A35370BF0E5390A2B1BDD
:10C30000240A3FBD3248C03000067E1D3C12940A0C
:10C310007EB38EDE604E6CFF80447CBFACBE7A552F
:10C32000377D153E1449010946BE040000182D1240
:10C3300012EFBE34000008247D301205497ED53747
:10C340007D5D3E547E5F2D2E7F752DF50B7A20BDD1
:10C350003208097D125E14000F1B7A100BF0E529DC
:10C36000BCBF38B66CFF6D110A3F09138EDDAC1EE1
:10C3700009738EDC12A57C0BF0BEF00140E8DA3BBD
:10C38000227EA002ACAF7F152D35227F140B357FA6
:10C39000410528227D369D347D6322E5290A3B0A2A
:10C3A0000F2D033E047E1D2A2D301B1A10227EA065
:10C3B000027C1FAC1A227D369D34BE3400C8220B8D
:10C3C0004A307D63BE6537222E340BB87D631B4A2D
:10C3D00060227E1D2A7A1D44C201C202220B4A300D
:10C3E0009E340BB87D63BE6537227EA002ACAF7E63
:10C3F0001D332D350B1A30227EA002ACAF7E0D33DB
:10C400002D150B0A3022CA797CFB7F707E3407FD24
:10C410007E2400FF7E147E5474141204417E34087E
:10C42000117E2400FF7E147E6874141204417E087D
:10C430007E547EA0047EB3699DB410077E087E689A
:10C440007EA0034CFF68067E440BB880456D448097
:10C45000416CFF6CEE1A2A3E243E240A3E2D322DFA
:10C46000317D207E1B607E7002AC672D3F7D2E0BE0
:10C470001A309D341205497DD3BED4009608020BB4
:10C48000F00BE0BEE00478CDBEF0024003D380089C
:10C490001BA0BEA00058BAC3DA7922CA3B12C6E478
:10C4A000C2027EA7676C0EA46CDDA168128FD5F561
:10C4B0002A09C365657C7C1212E57D93BDA908023B
:10C4C000A166BEF12A3802A166BCEC3802A1667DE5
:10C4D000390E347D890E840E842D837EB38EE7B4AD
:10C4E00001197E276768BE240032280F7D837E34C1
:10C4F00002D1120971BD3850027D83E52A7C7C7D12
:10C50000287D1912C5747A35287E378E15BE3528D8
:10C5100050077E35287A378E157EB303DE6025BE40
:10C520009400C80808BE9401905802800F7E3767B7
:10C5300068BE340064280D12C6DC28087EB4000AE8
:10C54000800980009002D0E4930ABB7EB303D960D7
:10C55000021EB4BEB528380ED202E52A7AB303DA39
:10C560007AC303DB80090BD012C6D5280281ACA2A6
:10C5700002DA3B22CA797CAB7AA12B7A712C7DE25C
:10C580007DD17EB3699BF5307EB3699CF5316DFF3B
:10C590000A5A12C6AC852C2F802A6C997EF12B800A
:10C5A000187CBF12C6915809BDD0480512C6A48098
:10C5B00006E52EBCBF58071BF0BEF00058E34C99AF
:10C5C0006809152FE52FBEB00058CF12C6C85835E0
:10C5D000852C2F802912C6BD80187CB812C69158B0
:10C5E00009BDD0480512C69C8006E52DBCB82808B8
:10C5F0000B80E530BCB838E24C996809152FE52F5F
:10C60000BEB00058D0E52B0A5B12C6ACE5310ACBB0
:10C610001BC4E52C0A1BBD1C587212C6B4802C6CBE
:10C62000997EF12B801A7CBF7C7E12C6945809BD7E
:10C63000D0480512C6A48006E52EBCBF58071BF0E3
:10C64000BEF00058E14C9968080BE0E531BCBE38FB
:10C65000CE12C6C8583612C6B4802B12C6BD801A78
:10C660007CB87C7E12C6945809BDD0480512C69C81
:10C670008006E52DBCB828080B80E530BCB838E052
:10C680004C9968080BE0E531BCBE38CF7D3FDA79C4
:10C69000227E712F1212E57D03BDE0220BF40B9078
:10C6A0007A812D220BF40B907AF12E220B54F52D6A
:10C6B000852B2E22E52C0A1B0B147CE3226C99E5BA
:10C6C0002B0A1B0B147C8322E5300ACB1BC4E52B01
:10C6D0000A1BBD1C227E736766BC7D227E73676663
:10C6E000BE7003227EF3699B7EE3699C227EB303C6
:10C6F000DE60167EB303DF70107EB303E1700A7450
:10C70000017AB303E17AB303E0226D337A3703DCB5
:10C71000E47AB303DA7AB303DB7AB303D77AB303E9
:10C72000D87AB303D922E47AB367887EA36767BE59
:10C73000A000281D7E2769807E340006AD327E244D
:10C740000004120324BE376770080674017AB367C9
:10C75000887EB36788B40121BEA000281CBEA00358
:10C7600050177EB36766B401109002AEE493BEB377
:10C7700065646805E47AB3678822125FAF12C72642
:10C7800012C7AA02C7867E276F961E241E24E47A4B
:10C79000B3678D7E376768BD3238087E37676ABDFC
:10C7A00032280674017AB3678D22E47AB3678A224D
:10C7B0007E37676A2E376768BE3767812802D322C3
:10C7C000C322D2006C99802C7402ACB9090558FDC3
:10C7D000091558FE1212E17402ACB9492558C07D02
:10C7E000F39DF27D3F120549BE37677F0804C20002
:10C7F000800A0B907E8358FCBC8938CC20002E6CBC
:10C800009980217402ACB909056564091565651242
:10C8100012E17402ACB9593558C0190558FD191503
:10C8200058FE0B90125DE238DA7A7358FC7EB367DB
:10C83000667005E47AB358FCA200226C336C228047
:10C84000207CB212111A60177402ACB2091565642B
:10C85000090565657CB17C7012C86C50020B300B09
:10C86000207E736766BC7238D87CB322BE70012804
:10C87000237E63699E0A261B250A37BD325815BEE2
:10C88000B00128107EA3699D0A2A1B250A3BBD32F0
:10C890005802D322C322E52A7E712B7CAB4C7768E9
:10C8A000187EB3699E14BCB7680F4CAA680B7EB3A0
:10C8B000699D14BCBA6802D322C322CA797EF0648F
:10C8C000C200C20174017AB38EE712CAB27A7369E8
:10C8D0007B7E3400C87A37697C7E3400A07A376961
:10C8E0007E7EE38EE274017AB38EE212CAE17AE3CD
:10C8F0008EE27E736766BE70043807D20212CC9255
:10C900007CFB12CC4D380241367EB38E8F700241D3
:10C91000366CEE801412CC5F0973656512C89B50AB
:10C9200004D2018002D2000BE07EA36766BCAE3861
:10C93000E4BEA008280C7E37676CBE3402BC5802E7
:10C94000803FBEA005281B7E37676CBE340320588D
:10C950001112CA847E2400FA7E1400A07E0400C84E
:10C96000411CBEA00328307E37676CBE3403845858
:10C9700026BEF001282130000D30010A12CAA0287D
:10C980000512CA8C411C12CA847E24012C7E14001C
:10C99000C87E0400FA411CBEA00228307E37676CB6
:10C9A000BE34044C5826BEF001282130000D300161
:10C9B0000A12CAA0280512CA8C806112CA847E2479
:10C9C00001907E1400FA7E04012C8050BEA0012844
:10C9D0002912CAA95824BEF001281F30000D3001C9
:10C9E0000A12CAA0280512CA8C803112CA847E2479
:10C9F00001C27E04012C7D108022BEA0065024BE00
:10CA0000A001281F30001C3001197E73696EBE73AF
:10CA10006979280F12CAB20A3712CA9512CABC80A5
:10CA2000078000E47AB38EE77E37697C2E340032CB
:10CA30007A3701008005E47AB38EE77EB38EE77023
:10CA40003E12CA847E14020D1287C87E14020F1291
:10CA5000869E7E54021B7E4400FF0B2A0012CABC35
:10CA600012CAA97E3402217E2400FF08090B1A3065
:10CA70002E34006480030B1A307A3701008002D212
:10CA800021DA7922900205E4930A3B22900205E420
:10CA9000931EB00A3B7E0400C87D207E1400A022B5
:10CAA0007EB3696EBEB36979227E37676CBE34058A
:10CAB000DC22900205E4937C7B1E70227A73697BF2
:10CAC0007A27697C7A17697E7A0769886D339D3089
:10CAD000120B51120B647A73593C2212CC6902C8B2
:10CAE000BB6CAA8009E40A4A19B465DC0BA07EB3CA
:10CAF0008EE1C423541F0A2B0B240A3ABD3248E5A9
:10CB000012CC556D337A3767687A37676A7A376738
:10CB10006C7A3767707ED47D2A1ED43ED46DCC7E6D
:10CB20001F2D2E7A377D6A7D3D7A377D6E7E342DBE
:10CB3000827A377D6C7E73699B7A737D677E7369B9
:10CB40009C7A737D667E37697E7A377D707E376921
:10CB5000807A377D727E3769887A377D747E37694F
:10CB60008A7A377D767E738EE10A371B347A737D3D
:10CB7000687E738EE27A737D697E087D667E187D9D
:10CB8000781234A87E737D787A7367667E737D79B8
:10CB90007A7367677E377D7A7A3767687E377D7C00
:10CBA0007A37676A7E377D827A37676C7E377D8415
:10CBB0007D237A53676E0A367A73676F7E377D7E80
:10CBC0007A3767707E377D807D237A5367720A36A5
:10CBD0007A7367736CAA803C7CBAC423541F7C7B35
:10CBE0007CBA54077E44000160053E441478FB7C07
:10CBF000690A2712CC454CB67A29B07E5002AC5A4D
:10CC000049122D820A027CB119B265647CB319B253
:10CC100065650BA07EB36766BCBA38BC6CAA801C85
:10CC20007E9002AC9A7F162D340B1A300A267CB502
:10CC300019B465A07CB719B465A10BA07EB3676772
:10CC4000BCBA38DC222E2465DC7E29B0227E7367D4
:10CC500066BE700022E47AB367667AB36767227EA5
:10CC60007002AC7E09B36564227E088EE77E3400D4
:10CC70000174FF020026E47AB3677B12CAE1E41272
:10CC800000217EB32E74B401087E7367667A7367E1
:10CC90007A227EA0646C336C22805A0A020B0480D4
:10CCA0004A7E7002AC71090365640A207E7002AC92
:10CCB00072090365641219607C077E7002AC710909
:10CCC000B365650A2B7E7002AC7209B36565128D7F
:10CCD0002C7C97BC9050047C8080027C89BCA82866
:10CCE000027CA8BC3850027C380B107EB36766BC4F
:10CCF000B138AE0B207E036766BC02389EBEA064CE
:10CD000078026CAA3002037CB3227CBA220B0A3070
:10CD1000BE378E5728069E378E5780026D331B0A0A
:10CD200030227E0803EF02CD0D7E08858002CD0DF6
:10CD30007C677E0B70BC7B381A29700002BC7B2894
:10CD40001229700001BC76380A29700003BC7628CD
:10CD500002D322C3227C7B6C336CAA741EAC7B0989
:10CD60002339656C117E701EAC71090339650A3078
:10CD70000A229D321205497C07BC3050047C307C6D
:10CD8000A10B10BE100340DD7CBA227C577C4BC245
:10CD9000017E3739DD7CB41278B7400122A5BD0091
:10CDA000028002C159D2017EB339646002C1597E4A
:10CDB000B339F9047AB339F97EB339F8047AB3395F
:10CDC000F8BEB0144005E47AB339F87E47395F7D88
:10CDD000243E243E24BD2350047408800A7D243E52
:10CDE00024BD23500E74047E5339F80A2519B23934
:10CDF000C0801DBD43500E74017E7339F80A471977
:10CE0000B439C0800BE47EA339F80A3A19B339C0AB
:10CE10006CAAE40A4B097439C02CA704B414F4BEFC
:10CE2000A0084021E47AB339F97EB339BF44017ACE
:10CE3000B339BF74017AB339647E0839C07E3400D7
:10CE400014E40200267E7339F9BE7020400B742072
:10CE50007AB339F9E47AB339BF227CA77C3B1287D5
:10CE6000D87802E1357EB38E8FB401028002E135BD
:10CE70007EB36F937002E1357EB35960BEB0017826
:10CE800002E135BEA0017802E13512CF747CB37C9B
:10CE90007A12CD8B7EB339641BB16833046802E12A
:10CEA000357E7339617A733962E47AB339636CAA77
:10CEB0006D337E901EAC9A5934396759343969E420
:10CEC00019B439660BA0BEA00378E5740280627EB7
:10CED000A33962741EA4493539672E3739DDBE3453
:10CEE0007FFF500B7D452E4439671B483080087EFC
:10CEF000447FFF5945396749453969BE4739DD5097
:10CF0000087E3739DD593539697E73395D7A733971
:10CF10006212CF6A381F12CF88BEB0FF681230206D
:10CF20000F7E73396112CF36122837E47AB339BFD6
:10CF3000E47AB3396422CAF87CFBBEF0035016BE13
:10CF400070035011D20412294312CF6112CF587AC4
:10CF5000F33961D21DDAF8227EB38E887C7F024AD3
:10CF6000F67E7359C37A7339DB229002E5E493BEEF
:10CF7000B33963227E3402E31209717A37395F7E56
:10CF80003403207A3739D7226C777E08FFFF6C662E
:10CF90007E4400017CB660053E441478FB7EB339C4
:10CFA0005E0A2B5D24BE240000080312CFD87EB396
:10CFB0003961BCB6780312CFD87E501EAC5649F208
:10CFC00039676DEEBF7050047F077C760B60BE60E2
:10CFD0000340BD7CA77CBA227E24FFFF7E901EAC5E
:10CFE0009659243967227EB339BF227E0839DD7E07
:10CFF00034001AE40200267C7B6CAA6C667E300248
:10D00000AC362E1402D712869E0A27BD2178047CE6
:10D01000A680070B60BE600340E37CBA227E542DDD
:10D02000327A577F097E542D5A7A577F0B7E542DC2
:10D03000827A577F0D74017AB37F077AB37F087ABB
:10D04000372D327A272D347A172D5A7A072D5C7EA8
:10D05000087F071232FF7E372D82226CAA7E50395C
:10D06000AC5A0972899ABE70FF50060B701972890A
:10D070009A0BA0BEA00A40E522CAD8CA797CE77CF8
:10D08000DB7439ACBE09B5898E70046CFF80037EF9
:10D09000F0017CBD7C7E12D0B15003D3800E12D142
:10D0A0003C7C5F127E125003D38001C3DA79DAD858
:10D0B000227C17C2007E9039AC9109B4898FBEB032
:10D0C000036803B4040A0934898B09A4898C800895
:10D0D0000934898909A4898A7E20037EB35947606F
:10D0E000037E2001A5BB0042BC2A283E092489B743
:10D0F00012D1340923679E12D12D7D437E7039AC45
:10D1000071092389B812D1340923679F12D12DBE2A
:10D11000440002500ABE3400025004D200800B7E4C
:10D1200020017439AC1B192089ABA200220A329D60
:10D13000320205490A227E700DAC71227CBD7C7ED4
:10D140007E600122CA3B7CE77CDB6CFF7E7002AC18
:10D150007E09C38972BEC001783309B38973BEB03A
:10D1600000283D2E348973147A39B07EF0017CBDDD
:10D170007C7E12D20250087EA00212D1B2802C1204
:10D18000D13C6C55127E12502280158013BEC00215
:10D1900078197CBD7C7E7E600B6C55127E12500827
:10D1A00012D1B07EF00280037EF0017CBFDA3B2218
:10D1B0006CAA7E7002AC7E19A3897222CAD8CA7981
:10D1C0007CE77CDB6CFF12D1B0E419B389737CBDC2
:10D1D0007C7E12D250B401167CBD12D1F5500F7E68
:10D1E000A00112D1B2740A19B389737EF0017CBF19
:10D1F000DA79DAD82212D22BBE70052802D200A228
:10D20000002212D22BBE700C281EE532BEB00428BC
:10D2100017E533BEB0022810E533BEB1323809E558
:10D2200034BEB1333802D200A20022C2007E180000
:10D23000347A1D357E0800327E1800331213A7E5BC
:10D24000330A3BE5320A2B2D23E5340A3B2D3222EB
:10D25000CAF87CFB127F5B7DD3740DACBF127D8D51
:10D260007D137E2400C87E3765609E3400C87EC76B
:10D2700065629EC40190BE1401902810BDC1280CA7
:10D28000BD2D3804BD3D500474018001E4DAF8225C
:10D29000CAF87C367C277C1B7E00FF7EA0FF6C9941
:10D2A000805EBC3968587E7002AC7909B365640A47
:10D2B0002B0A319D321205497C877E7002AC7909B8
:10D2C000B365650A2B12D12D7CF7BE8001380ABEEA
:10D2D000F00138057EA001802FBE8002380ABEF022
:10D2E0000238057E0002801030020DBE800338082F
:10D2F000BEF00338037E0003BC0A50027CA00B90F2
:10D300007EB36766BCB9389A7CBADAF822CA3B7C2D
:10D31000EB6CFF7ED039ACDE09A68988BEA001780F
:10D320000261E2BEA005780261E2BEA0026805BE0D
:10D33000A006784209768987BE703C400261E249C6
:10D340003689B0127F637D23BE24001E400B127D00
:10D350006E9E34001FBD3250127CBE12D499500212
:10D3600061E212D47D7002815C807712D47D7002FC
:10D37000815C806E806C09B68988BEB00368061235
:10D38000D485B4070912D47D7002815C805412D414
:10D3900085B40802804C12D485B40402804412D4AF
:10D3A00085B4094312D47D60037EF0087439ACBEA5
:10D3B00009758987BE703C4002815C7439ACBE49F6
:10D3C0003589B0127F637D23BE24000F400D127D8E
:10D3D0006E9E340010BD324002815C7CBE12D49936
:10D3E000507A7EF00880757EA35947BEA000286C55
:10D3F000BEA0016805BEA00378297E7039AC7E49C5
:10D400003389ACBE3400FA280280487E7039AC7E85
:10D41000492389AEBE2400FA283C12D48E503780AE
:10D42000328033BEA0026805BEA004782F7439ACE8
:10D43000BE492589AC7E37656012D49250028013B4
:10D440007439ACBE492589AEBE2400FA280812D42E
:10D450008E5003E4800274FF7AB389716CAA7E70E7
:10D4600039AC7E19A38987E419B389AB19B38988CC
:10D4700019B3899319B389947CBFDA3B227EF004F7
:10D480007EB303D7227439ACBE09B58988227E37B2
:10D4900065629E3400FABD23227CAB7EB35947708F
:10D4A0003A7E9039AC9A09B48993BEB0345002D315
:10D4B000224914899549348997BE140000082ABE70
:10D4C00034000008243E34128FCEBD31081B09748D
:10D4D0008989BE701E5002C322D3227439A40975F3
:10D4E0008994BE70285002D322C3227C7B7408AC7E
:10D4F000B709B5691DB4012B7E63696D80157E5037
:10D500000DAC560932679BBC37780674FF19B267B9
:10D510009B0B60BE600A40E67EA0037408AC7B19DA
:10D52000A3691D22CAF812D5E750114C1168057E77
:10D53000A00880037EA00412D58780377CBF12D656
:10D540009150117EA0017E70027E5039AC5F19723D
:10D55000898D802C12D686500512D585801F7E902D
:10D5600039AC9F09B4898D600F7D342E34898D14B8
:10D570007A39B07EA0018008E419B489887EA002BF
:10D580007CBADAF8226CAA7E7039AC7F19A389883C
:10D5900022CAF812D5E750134C1168057EA0088006
:10D5A000037EA00412D5877401800E12D686500720
:10D5B00012D585740280027401DAF822CAF812D5F5
:10D5C000E750134C1168057EA00880037EA004126A
:10D5D000D5877401800E12D686500712D585740245
:10D5E00080027401DAF8227C167CF77C0B7CBF7C0D
:10D5F0003B12D70B4002C3227439ACB30955898959
:10D60000BE50B438090925898ABE200B2802D322CE
:10D610000965898BBE60B438090975898CBE700BA9
:10D620002802D322BE50282807BE20092802D32270
:10D63000BE60282807BE70092802D322BE50502899
:10D6400007BE20072802D322BE60502807BE7007FD
:10D650002802D322BE50822807BE20052802D322EA
:10D66000BE60822807BE70052802D322BE509628CD
:10D6700007BE20032802D322BE60962807BE70038F
:10D680002802D322C3227CB07C7F6C667C51027E50
:10D69000127C3B12D70B4002C3227E5039AC530997
:10D6A000B2898EBEB0016803B40202C32209728936
:10D6B00089BE70552802D3220922898ABE200728F4
:10D6C00002D322BE70372807BE20052802D322BE0F
:10D6D000702D2807BE20062802D3220962898BBE3E
:10D6E00060552802D3220972898CBE70072802D3A4
:10D6F00022BE60372807BE70052802D322BE602DE7
:10D700002807BE70062802D322C3227CAB7E735941
:10D7100047BE70026804A5BF04107E5039AC5A0998
:10D720006289B7BE60085034C322BE70016804A588
:10D73000BF031B7E7039AC7A09B389B70A2B7EB35D
:10D74000699D0A3B9E340008BD230810C32274392A
:10D75000A4097589B8BE70055002C322D3227C1774
:10D760007CB112D5EF500C7EA0087E7039AC7119D7
:10D77000A389887401227C1B7E700DAC7112D7B80E
:10D780007E63699DBC6B282F7E63699EBC674027C2
:10D790001212E57D437439ACB149358995BD3458D1
:10D7A000045945899549458997BE47676C58087E55
:10D7B00037676C593589972209B3679E0973679F4C
:10D7C000226C337CB312DF4F400A6C227439ACB345
:10D7D0001925899A0B30BE300A40E822CA3B7CF7F3
:10D7E0007CEB7550007EB35957F551740DACBE12E9
:10D7F0007F5F7D83740DACBE127D8D7D9312F4042A
:10D8000019A089ABE419B0898619B0898E19B0893D
:10D810008F598089AC599089AE19B089906D115992
:10D820001089955910899719B089997A15327E27F0
:10D8300065607D627A15347E5765627A5536BD68BB
:10D8400050027D867E3536BD3950027D937A15387B
:10D850007E34001E7A353A7E34002D7A353C12DB58
:10D86000E27A154A7E3400C87A35467A154C7E0431
:10D8700000647A054E12DC646812BE6003680DBE57
:10D8800060026808A5BE0402800221457A15327D37
:10D89000657A15347A25367D287D897D92BE6001B2
:10D8A0006804A5BE03097E25369D297D92800FBEA2
:10D8B00060026804A5BE04067D269D287D82E55190
:10D8C00014681F1BB168292403784012DC557A259F
:10D8D0003C12DBE27A154A7A15467A154C7A154ED7
:10D8E000804212DC557A253C12DBE27A154A801020
:10D8F00012DC467A053C12DBE27A154A7E0400FA15
:10D900007A05467A154C7A054E801912DC467A055E
:10D910003C12DBE27A154A7E2400AA7A25467A1563
:10D920004C7A254EBE60036804A5BE04187CBE7CFC
:10D930007F1282E8F550BEB000280A7E3400967A45
:10D9400035467A354E7EB3594770497E0765627D0C
:10D95000101E14BD19501E7D109E1400C8BD19283C
:10D9600014BE84002D282D7E1765609E14002DBDE9
:10D97000182821801C7D309E3400C8BD395015BE4A
:10D98000840064280F7E3765609E340064BD3828AB
:10D990000312D7C17D360E34E550BEB000284912BF
:10D9A000DC264002413EBD3828057EA00180037E72
:10D9B000A00212DBD87E254C2E2532BD28384C1211
:10D9C000DC155002804512DBF2384F12DC0D50029C
:10D9D000804812DC1D2804BD18405612DC05505941
:10D9E000BD282855804B805112DC265051BD382867
:10D9F000057EA00180037EA00212DBD87E254C2E7E
:10DA00002532BD28380512DC1550057EA00480247F
:10DA100012DBF2380512DC0D500512DC39801F12C2
:10DA2000DC1D2804BD18400912DC05500CBD282857
:10DA3000087EA00612DC2F80056CAA12DBD87E259A
:10DA4000442E2534BD292865BD3828057EA00480D4
:10DA5000037EA00312DBD87E25482E2532BD283850
:10DA6000097D269E2548BD2850057EA00480347E71
:10DA7000154012DBF538097D269E2540BD2850054E
:10DA800012DC3980287E054A2E0532BD082804BDE7
:10DA900018400D7D169E154ABD18500CBD2828084B
:10DAA0007EA00612DC2F80056CAA12DBD87E5039CE
:10DAB000AC5F09B2898660026156BD3828047401E2
:10DAC0008002740219B2898F7E35382E3532BD3806
:10DAD00038097D369E3538BD3850047401806C7E1F
:10DAE000353A2E3532BD38381312DBFD400EBD39C4
:10DAF000380A7E15369E153ABD19503A7EA359470D
:10DB00004CAA780DBD38380512DBFD5049740280EF
:10DB10003ABEA003680FBEA004680ABEA001680553
:10DB2000BEA0027831BD3838097D369E353ABD3801
:10DB30005024740280157E353C2E3532BD383809AC
:10DB40007D369E353CBD385008740319B2898680F5
:10DB500005E419B2898F09B2898670717E35367DE8
:10DB6000830E84BD89280474038002740419B28969
:10DB70008F7E853E2E8534BD8938097D839E853E06
:10DB8000BD895004740180157E85402E8534BD8981
:10DB900038097D839E8540BD895008740219B28979
:10DBA00086802A7E25422E2534BD2938079E35429F
:10DBB000BD39500E7EA0037E7039AC7F19A38986D3
:10DBC000800B6CAA7E7039AC7F19A3898F7439AC35
:10DBD000BF09B58986DA3B227E5039AC5F19A2892C
:10DBE0008E227A153E7A15407A15427A15447A15B6
:10DBF00048227E153A7D212E2532BD28227D169E93
:10DC0000153ABD18227D169E154EBD18227D269E02
:10DC1000253ABD28227D269E254CBD28227E054E14
:10DC20002E0532BD08227E25369E2546BD29227E40
:10DC30005039AC5F19A28986227EA0057E1039ACCE
:10DC40001F19A08986227A15387E04000F7A053ABA
:10DC50007E040032227A15387E24000F7A253A7E1F
:10DC6000240032227E635947BE600122CA69CAF885
:10DC70007CF77CAB7E7039AC7F49F3899F7E500D79
:10DC8000AC5A49E267979DEF493389A149F26799F8
:10DC90009DF37E7039AC7F493389A71205497DD346
:10DCA00012DE35BD3D48477E1039AC1F490089A7BB
:10DCB0007E2400027D3E1203247D437D3012DE412E
:10DCC00008027D0412DE357DD37D30120549BDD3B7
:10DCD00058097E1039AC1F490089A37E5039AC5FCA
:10DCE0002E2489A30B28309D301B283080026D0024
:10DCF0007E7039AC7F493389A91205497DD312DE84
:10DD000029BD3D48477E3039AC3F491189A97E2461
:10DD100000027D3F1203247D437D3112DE41080263
:10DD20007D1412DE297DD37D31120549BDD35809FA
:10DD30007E3039AC3F491189A57E5039AC5F2E2425
:10DD400089A50B28309D311B283080026D117E7013
:10DD500039AC7F4923899B2D2E2D204933899D2D58
:10DD60003F2D31BE24000058026D227EF402921233
:10DD7000DE17BDF238047E276560BE34000058020D
:10DD80006D337EF402A012DE17BDF338047E3765D2
:10DD9000627ED00DACDA49F667977ED039ACDF5998
:10DDA000F6899F7ED00DACDA49F667997ED039AC02
:10DDB000DF59F689A17ED00DACDA592667977E50DF
:10DDC0000DAC5A593267997E700DAC7A493367971A
:10DDD0007E5039AC5F5932899B740DA449356799DF
:10DDE0007439ACBF5935899D7439ACBF493589A7A1
:10DDF00012DE1F493589A3120549BD3F581412A7E9
:10DE0000B512DE1F493589A5120549BD3F580312D9
:10DE1000D585DAF8DA69227EE400FF0B7AF0221267
:10DE200005497DF37439ACBF227E7039AC7F49332C
:10DE300089A50205497E7039AC7F493389A3020563
:10DE4000491205497DD37D34120549BD3D227C5BD5
:10DE50006CAA7E7002AC7519A38972E419B3897338
:10DE600022CA3B7CF47C957CC77CEB6DDD12DF1E07
:10DE7000F53A7CB67C791212E5128A957DC37A91C7
:10DE8000397ED1398026BED000081F12DF041B70F6
:10DE900012DEF35815BEF40010080F12DEFB2F112E
:10DEA0001478FB12DF1050027DD01BD0BCED08D6D9
:10DEB0007CEC7ED1398027E53ABCBD081F12DF0417
:10DEC0000B7012DEF35815BEF40010080F12DEFBC3
:10DED0002F111478FB12DF1050027DD00BD0BCED57
:10DEE00058D5BED400FF28047ED400FF7D3D7CB70A
:10DEF000DA3B221212E57DF3BDCE227D3E1A261AB0
:10DF0000247404227CBF7C7D1212E57DE37C7D229B
:10DF10007D1F1A021A001203727D03BDD0227E7388
:10DF2000699E0A571B54227C6B6CAA7E5002AC5629
:10DF300009728972A5BF010D7EB303D76002800903
:10DF40007EA0048007A5BF02037EA0087CBA227CC5
:10DF5000AB6C7780147E500DAC570962679B5E6096
:10DF60000FBCA67802D3220B707EB3696DBCB738A4
:10DF7000E4C322CA3B7CE77CCB6CFF7CBC7C7E127A
:10DF8000D7DC7CDB7E700DAC7C2E3467977E30391D
:10DF9000AC3E2E1489B0740D1203F77E700DAC7C6C
:10DFA00012D7B81212E57439ACBE593589BD4CDDB3
:10DFB000780302E06B7CBE12E07A7CBE12D5EF5093
:10DFC000057EA004807EBED00178057EA001802B56
:10DFD000BED00278057EA0028021BED00378147CDA
:10DFE000BE12D691400302E06B7EA00312E0707473
:10DFF000028071BED00478087EA00512E0708068AF
:10E00000BED00578257EA00612E0707EF0017E531A
:10E010005947BE500028547E538971BE501E504B44
:10E02000740819B3898874018043BED006783C7E99
:10E03000735947BE700028137E738971BE701E50DD
:10E040000A7EA00812E070740180227CBE12D69174
:10E050007EA0077E7039500712E0737404800512A9
:10E06000E073740219B3898D7EF0017CBFDA3B2224
:10E070007E7039AC7E19A3898822CA3B7C0B7E1343
:10E08000699D0A711B747EB35947706C7ED039ACA0
:10E09000D009168999BE10002802800F0916899AA6
:10E0A000BE101E500D7E100112E0FB7CB012D77620
:10E0B00080467439ACB009158987BE101E50396C82
:10E0C000EE802D7E700DAC7E09D3679B7408ACBDCD
:10E0D00009B5691D701809C3679EBEC000280FBC32
:10E0E000FC280B7E100212E0FB7CB012D7760BE00E
:10E0F0007E13696DBC1E38CBDA3B227439ACB01983
:10E10000158999226CAA80127E700DAC7A09B365CC
:10E11000E6BEB0102802D3220BA07EB3677CBCBA47
:10E1200038E6C322CA3B7F607CF57CE6BCBE500566
:10E13000754601800CBCBE28057546FF80037546F8
:10E1400000BC7F5005754701800CBC7F28057547D2
:10E15000FF80037547007CDB7CC77EE47FFF21F2F4
:10E160007E087FD77E34000C74FF1200267AC37FAE
:10E17000D87AD37FDBBCED6810E5461A2B0A3D2D1B
:10E18000327A737FD77A737FDFBCFC6810E5471A59
:10E190002B0A3C2D327A737FDC7A737FE07EF4D8D1
:10E1A000F07548FF7545007E51457404AC5B09B2BB
:10E1B0007FD7BEB0FF681709727FD8BE70FF680EA8
:10E1C0001212E57DB3BDFB58057DFB85454805452D
:10E1D000E545B403D27EA1487404A409D57FD709CC
:10E1E000C57FD8BDFE580B7DEF7A6BD07E1D417A7E
:10E1F0001BC0BCED68022160BCFC680221607D3E52
:10E20000DA3B22CA3B7E80FF6CFF7EC0FF6CEE755E
:10E210002A006C997EF47FFF6CDD8056128FD51238
:10E220008FE97D03BD0F58027DF0E528BCB850038F
:10E230007E8128E528BCBF28037EF128E529BCBCE7
:10E2400050037EC129E529BCBE28037EE1290A5876
:10E250000A1F9D15BE140007180C0A5C0A1E9D15A6
:10E26000BE140007080A7E1401F47A173959613C7C
:10E270000BD012C6D538A57D3F3E34128FCE7D031C
:10E28000BCEC7812BEC00028021BC012DF1E0A1EA2
:10E29000BD1558020BE0BCF87817BE800028021BA1
:10E2A000807E73699D0A571B540A1FBD1558020BC7
:10E2B000F07CDC801B7CC880117CBC7C7D1212E56C
:10E2C000BD300802052A0B900BC0BCFC50EB0BD0F4
:10E2D000BCED50E17E83696EBE8003400D12E345C4
:10E2E00050280B147A1739598020BE8001381B7EC4
:10E2F000173959BE14000228061B157A173959120E
:10E30000E34E50060B147A1738BA7E836766BE80D8
:10E3100001402F7E3002AC397EA12A7403A4BD5186
:10E32000080F6D117A17395912E34E50150B1480EE
:10E330000D12E34550060B157A1739596D117A17EE
:10E3400038BADA3B227E173959BE1403E8227E1709
:10E3500038BABE1401F422D2057EA36766BEA003BC
:10E360005002C3226C7780390A270B247C65802BEE
:10E370007E5002AC56091265647E3002AC3709B19A
:10E380006564BCB17802800C0952656509B16565A8
:10E39000BCB57805C205A205220B60BCA638D10B1E
:10E3A00070BCA738C3A20522CA797E13699D7E037B
:10E3B000699E6CFF81847E3002AC3F09A165647A5E
:10E3C000A37D2809B16565F5447E4480011A5A1B76
:10E3D00054F5418168854142E541BEB0005812E5DF
:10E3E000411A3B7E537D281A157D519D532D51F5C1
:10E3F00042BE114118127E737D281A37E5411A1B5F
:10E400009D137D539D51F542E5441A1B1B147CE37B
:10E4100080487AE143BEE000580E1A3EE5441A1BDC
:10E420007D519D532D51F543BC0E180CE5441A5BEC
:10E430001A1E9D159D51F5437E737D28BE7142784D
:10E4400007E544BEB1436810E5427E71431212E510
:10E450007DF3BDF408027D4F0BE0E5441A5B0B54DD
:10E460001A1EBD1508AC05417E737D281A370B3482
:10E47000E5411A1BBD13180261D57402ACBF5945A2
:10E48000391A0BF0125F6F280261B6DA79227EB377
:10E490008E912212E48E702E1247E17EB38E8BB4E1
:10E4A000010D7E340FA07A378EC2E47AB38E8B7E54
:10E4B000378EC24D3378047401800512E571740201
:10E4C0007E708102E4C7227C6B7EB38E5DB4814591
:10E4D000A5BE00028039A5BE011CC2AF0A275E247A
:10E4E00000026802D2957A71CDA9D0CEA9C6C9A979
:10E4F000D187D2AF8019A5BE021BC2AF12E48E70C5
:10E500000C7A71CDA9D0CEA9D6C9A9D187D2AF0036
:10E510000000000000E47AB38E5D221247E112E5AC
:10E520006612387BC2011227CEC2081226E712E516
:10E53000785E70EF1220D312E55FA9C4C3C2001247
:10E54000E55174016C7712E4C7D20012E551022143
:10E5500069A9D0CE300004A9D5C922A9C5C9224EC7
:10E5600070101B0A3022D20412294312E48E70FB71
:10E5700022A9D5EAA9C5EA227E0F8ED42E14001056
:10E580000B0A3022CAB8A931CD10A931E50C12E529
:10E590007174017AB38E8BA9C1CDA937CD0DA9377E
:10E5A000E50974017AB38E91A9C7CD75CD00DAB8AB
:10E5B00032D20012E551A9D0CB759F00A9D09EA9F7
:10E5C000D49E7E378E8C0A56F59D7D53F59CA9D33B
:10E5D0009EC28AD2AAA9C19EA9D09EA9D79E22C2B4
:10E5E0008CC2A932CA7BCA6BCA5BCA4BCA2BCA1B74
:10E5F000CA0BC0D0C083C082C28F120040D082D06C
:10E6000083D0D0DA0BDA1BDA2BDA4BDA5BDA6BDA8F
:10E610007B32A200A995CBA200A992CBA200A9921D
:10E62000CAA200A991CB22CAB8CA39A9D09EA9D73B
:10E630009E7E378E570B347A378E577E378E890BF6
:10E64000347A378E897E378EC24D3368061B347A12
:10E65000378EC27EB38E596005147AB38E597EB35D
:10E660008E597002D2127E378EC00B347A378EC02C
:10E670007E378E65BE34000028061B347A378E65DF
:10E680007EB38E92BEB0FF5005047AB38E92DA3913
:10E69000DAB832C288D2A822A9D6CDA9D5CD22A96E
:10E6A000D6EF227E14F7F07E0400FF7E3447527EC0
:10E6B0002455501277747E3445207E2441447930AD
:10E6C0000006792000047E3499337E2466CC7930AC
:10E6D000000A792000087E3441477E24464C793078
:10E6E000000E7920000C227EB38E90047AB38E90B7
:10E6F0007E738E90BE70C8280674C87AB38E90223E
:10E7000075ECFF75EEFF75EB0375ACC0A9D0EA534D
:10E71000EDFEE5AD0A5B0B54F5AD75E10222759A8D
:10E720002FA9D199A9D6DF22D2CBC28C43890175FA
:10E730008C01758A00D2A922D2CBC28E4389207562
:10E740008D01758B00D28ED2AB221257806808E4FF
:10E750007AB38E5A0246B52275B70075B80075F7C0
:10E760000075F800A9D0B7D2B8A9D5B7D2BDA9D045
:10E77000F7D2F8A9D6F7D2FEA9D1F7C2F9A9C4B742
:10E78000D2BCA9C2B7C2BAA9C1B7C2B9A9C3B7C2DC
:10E79000BBA9C3F7C2FB22D2E9C2C122D2CC12E785
:10E7A000D612E7C978FB7E3400031B0A307E3400A2
:10E7B000817E0F8ECF79300002D2EBC2C36D117E05
:10E7C0001F8ECF1B1A10C2CC227E0F8ECF69300055
:10E7D000045E340002227E3400027E0F8ECF793038
:10E7E000000422A9D099A9C6DF22C28DC28F7591DB
:10E7F00000C290C291A9C09322CA39CA0B7E0F8E63
:10E80000CF693000025E3400016822693000045E86
:10E810003400016818D2CC7E34000179300004D273
:10E82000CC7E0F8ECF0B0A3012E834C2CCC2C3DAD2
:10E830000BDA39324E70041B0A3022A9D2EAA9C27F
:10E84000EA7E3470437E0F8ED47930000E7E340021
:10E850004E7E0F8ED4793000101227F679300012D8
:10E860007E0F8ED4793000247E0F8ED47930001440
:10E870007E3480127E0F8ED4793000267E3401D013
:10E880001209712E3400097E0F8ED47930001612D1
:10E8900027F6793000187E34FFFF7E0F8ED4793052
:10E8A000001A7E0F8ED47930001C7E3400147E0F47
:10E8B0008ED47930001E7E0F8ED47930002012273E
:10E8C000F6793000227E34001F7E0F8ED47930001E
:10E8D000287E3408307E0F8ED4793000487E34078D
:10E8E000037E0F8ED47930004A7E347F557E0F8EA2
:10E8F000D47930004C1244847E34FFFF1221607EB4
:10E9000034F07F7E0F8ED479300004D20412285761
:10E9100075C200A9D6C2A9D5C253C3F843C30375B3
:10E92000C40075C50075C69075C700A9D2C2D2AC27
:10E93000A9C7EA900202E4937AB38E5F22A9D5CBED
:10E94000A9D1CBA9D2CAA9D2CB226CAA7E303CAC29
:10E950003A12E9697E34003CE41200260BA0BEA006
:10E960000440E9227E303CAC3F2E1479526D0022E7
:10E970000247FCC2EDC2C5327EB38D6FB4013D7E4D
:10E98000A38D6D7AA38D6E7EB38D77047AB38D7768
:10E990006C776C66800D7E5009AC5609B28D822C66
:10E9A0007B0B60BCA650EF0A271B247EB38D770A31
:10E9B0003BBD3248077CBA047AB38D6D2274027A6B
:10E9C000B38D552212578478507E378E654D33783B
:10E9D000F812EA1A7EB35960B401087E7359440AEA
:10E9E00037800C7E7359430A277E3400648D321BB6
:10E9F000347A378E657E7359670A277E378E65AD08
:10EA0000327E2400188D327A378E657E378E60BE56
:10EA1000378E6550047A378E65227E7359457EB3F2
:10EA20005960702A7EB38E8F704B7E635943BE60EF
:10EA30001428057E60148007A5BE00037E60010ACD
:10EA4000267E3400641203247C67804580277E0F75
:10EA50008ED4692000065E240001780E7E6359443E
:10EA6000BE607F282C7E607F80277EB38EBFBEB0C5
:10EA70003C680270100A277E3401F48D329E340007
:10EA8000057C67800C0A277E3403E88D321B367CB8
:10EA9000677E735967AC677E2400181203247A736B
:10EAA0008E59C2126D337A378E5722C204124645F0
:10EAB0003804C20480107EA38D6D7409A449558D5D
:10EAC0007A1222169204A20422C214C217221256EB
:10EAD000397EB38E8F70051247508003124717029C
:10EAE00057917EB3598B70033018082010082018F6
:10EAF000058000025769227CA47C957DF3BEB00698
:10EB00005077BEB00650726DEE806612EB839D3F6B
:10EB10001205497DD37DCE3EC47E1D312D3C0B1A9E
:10EB2000309D3F1205497DC3BDCD402A7DAE3EA438
:10EB300049BA0E66BEB537281DBEB53950187E1DC0
:10EB4000312D3A1B1AB012EB7A2D3E09B35A007FD1
:10EB5000102D3E7A1BB012EB83BD3F50127C896EA4
:10EB600080FF12EB7A2D3E12EB8C5CB87A39B00B39
:10EB7000E47E376F96BD3E3892220A2A7E3402D850
:10EB8000AD32227D3E3E3449330E66222E345A0089
:10EB90007E39B022E47AB303E6227EB3696DBEB05B
:10EBA0000138097EA3696EBEA0012804D237800710
:10EBB0003037047002C2377EB3598B700C6D337AD4
:10EBC00037894512ED3E02EB9412EBE27C7B303745
:10EBD000026C774C77680A7A73598E74017AB3693C
:10EBE0007322CAD8CA796CFF6DDD7DED7DFD7ED3C1
:10EBF000696D7EE3696E7EB303E660187EC703EF3E
:10EC00004DCC780281DFBED001280281DF3036068C
:10EC1000C23681DFC236BED001781DBEB004780294
:10EC200081DF7EE768197EF7681B7D3E7D2F1277B6
:10EC3000C6BEB001780281DF7EA303E67CBA146809
:10EC40002914685414682314780281DC0BB268021A
:10EC500081DFBED001680281EE4CEE680281EE7465
:10EC6000017AB303E612ECF580654CDD781DBEA099
:10EC700001780C74027AB303E67E3402F480547493
:10EC8000047AB303E67E3402F8804812ECFE900268
:10EC9000E712ED0768498056BED00178514CEE78F6
:10ECA0004D12ECFE7E3402F01209717E1402F47EE5
:10ECB0000400FF0B0AC09DC3BEC703EF40219002B2
:10ECC000E612ED07681912ECF574037AB303E67ED9
:10ECD0003402F41209717A3703EF80127EF024E4D3
:10ECE0007AB303E66D337A3703EF7CBF80027CBFD3
:10ECF000DA79DAD8227AE703E77AF703E9227AE7C2
:10ED000003EB7AF703ED22E4930A3B12ED130ADBDF
:10ED10004DDD227D133E143E143E147E3703EB9EE0
:10ED20003703E7120549BD3138127E3703ED9E37B0
:10ED300003E9120549BD313803740122E422E47A63
:10ED4000B38947220B0A306C771B0A300A2B0B243D
:10ED50000223580B0A303002055E60F780034E60D4
:10ED6000081B0A30222D233E240A3B9D23E52C0A52
:10ED70003B9D23BE2400002803123AE4220B0A50D4
:10ED80004EA0101B0A500B1A504E54400A1B1A502A
:10ED90000B0A5030090C4EA00812EDB04E1420059D
:10EDA000800A5EA0F712EDB05E14DFFA1B1A102283
:10EDB0001B0A500B1A10220B0A505EA0EF12EDB086
:10EDC0005E14BFF51B1A10220B0A405E80C71B0A97
:10EDD0004054070A5B7D457C896C991286730B0A47
:10EDE000504D5412EDB05E20E31B1A10E52A540773
:10EDF0000A1B7D017C016C113E043E040B1A104D70
:10EE0000101B1A10220B0A305E60DF1B0A30300123
:10EE1000090B0A304E60201B0A30220B0A3012EE1A
:10EE20002CA201E4330A2B3E240223585E70FD1B02
:10EE30000A30227D537E7D2C0B7A405E80077E3522
:10EE4000302D342D259E25323E242D231B24023ABD
:10EE5000E412EE33752C2C7E303CAC3F2E147984BA
:10EE60006D00221220D64E608012EE794E70101284
:10EE7000EE8A5E70DF1B0A30221B0A307E0F8ED4B2
:10EE80002E1400140B0A305E70FE1B0A307E0F8EAB
:10EE9000D42E1400260B0A3022A9D6CA22A9D6CB1A
:10EEA000693000047E278EE3593200046930000681
:10EEB0007E278EE359320006693000087E278EE3F4
:10EEC00059320008227E2F8ED80B2A305E70FD1B2F
:10EED0002A307E3400017E2F8ED8793200047E2FB6
:10EEE0008ED80B2A3022123FFD7E303CAC3F7D3164
:10EEF0002E34797E6D227A1D2C7E0400127A053024
:10EF00007E0400997A05322E1479826D00220B5608
:10EF10000B2A305E70FC4D321B2A307CB154030A40
:10EF20002B5E2400037D52030354C07C4B6C55229E
:10EF30007DF33EF42DF17DE00B7AD07DC33EC47F9E
:10EF4000722DFC1B7AD00B3422A9D6CB7E14002163
:10EF50007E078EE3591000027C2B6C330A372D316B
:10EF60007E178EE3227AB38D707AB38D717AB38D6A
:10EF7000727AB38D7674FF7AB38D77E47AB38D7835
:10EF800022791200067D5E6D447DF55EF400035E1D
:10EF9000F400037D1F7C236C337DF1227F707D1292
:10EFA000D2CC7E0400037E2F8ECF1B2A007E2F8EB4
:10EFB000CF79320006220B560B2A305E603F4D326D
:10EFC0001B2A307CB12354010A2B5E24000122123B
:10EFD000000E7D3E2E340007743CACBF492579609D
:10EFE0001226D90BF0227408A47DF50BF674EEAC52
:10EFF000BF7DE52EE401007E303CAC3F227E2F8EAB
:10F00000CF693200045E34000222D2CC7E24000399
:10F010007E0F8ECF1B0A207E0F8ECF793000062206
:10F020007E0F8ED4693000065E340001221212E594
:10F030007A353B0E340E347A353E753A00BE3400D4
:10F0400078227E0B707C476C55297000010A372DA1
:10F05000327E278EE322E53D7E1D357A1BB07E157C
:10F060003B7E1D311B1A10E53A220A373E343E34EE
:10F070003E343E34227C2E0BE07E300DAC232E1429
:10F080007D62740D0203F73E242E247D560B28303A
:10F090004D311B28300BA4227DF33EF42DF57DE489
:10F0A0000B7AD07DC33EC422E47AB37D2A7AB37D45
:10F0B0002B6D337A377D32227E500DAC5E2D2822A7
:10F0C0002D197D0879200002494467997E50082255
:10F0D000053A7E353BBD372254030A3B7D237C45F0
:10F0E0006C553E243E2422791200087D325E2400B5
:10F0F000035E240003227E1400497D5FAD517DF53F
:10F10000AD1E7DE1227E1D310B1A307D730E747DA4
:10F11000232D27227D3D2E340019743CACBF492598
:10F120007984227D3D2E340018743CACBF4925798A
:10F1300082227D3D2E340016743CACBF4925797E79
:10F1400022D2011227CED2061226BD7E34000A2218
:10F150007E0F8ED42E1400120B0A304D35227E34D1
:10F160008D4B7E14003E740B0203F77E0BA07C4A8D
:10F170006C5529A000010A3A22E47AB38ED37E2F7F
:10F180008ED86932000422E47AB38ED37E1F8ED8E3
:10F1900069310004227E278EE349320038220B5663
:10F1A0000B2A105E30FC1B2A107D1F227E340520A6
:10F1B000E40200267D451E441E441E441E44227A5D
:10F1C0003767839002BFE4937AB36785223E347D2C
:10F1D00021120324BD3422E40A3F19B3785B227E56
:10F1E000377D357E277D37227E7008AC7C7F072DEA
:10F1F0001329B00001227E087D287E240001120D13
:10F200009E7DB3227E3400027E2F8ECF79320004A1
:10F21000227E1F8ECF693100045E340002227E27D9
:10F220008EE3593200066930000622AC672E34594D
:10F23000AB6D227E088DE1227402ACB309256564B2
:10F2400009156565227402ACBF09E5656409D565D9
:10F2500065227E7008AC7C2D3F7D2E7A1BA0227E1D
:10F26000900DAC9A492467977E30082285393D7A03
:10F27000753B229DCD7F472D9C7E4BB00ACB227ED5
:10F280003006AC3F2E1478C46D00227E303CAC3F7B
:10F290002E14797E6D00227E303CAC3F2E147956C0
:10F2A0006D00227AB38D6D74FF7AB38D6EE4220BFC
:10F2B0002830492200027404ACBF227E300DAC3CE1
:10F2C0007D312E347D62227F161203677D1F02037B
:10F2D000700B28305D311B28300BA42274017AB3E7
:10F2E00059627AB38EC9221205497DA37EA039AC3A
:10F2F000AF22AD326D227C767C651A2422C2AC7EB0
:10F300000F8ED42229B000035401227E2400017CF8
:10F31000BF22900205E4937AB3697B227E7008AC29
:10F3200075094359B0227ED002ACDA7DF63EF42254
:10F330007CB87C711212E5BD3F227CB17C7F121239
:10F34000E5BD3F227E7002AC7F09B37D2822741791
:10F35000A47E1D2E2D35220B160B0A305E60EF2287
:10F360007E178EE35921000E227E0879207E1878C0
:10F37000EE227E0878E07E1878EE220A125E1400F3
:10F380000FBD01224925689D740DACBE221E040AE2
:10F390001CAD107DD1227E340017E4020026AD1092
:10F3A0006D007C327C21227E088BC17E34000A22D3
:10F3B0007408ACBC7F072D15227F042D1279400004
:10F3C00004227408ACBF097559AB227E738DB67ADE
:10F3D000736F93224D1F1B2A107D1322A9D6CB6970
:10F3E000300004224E70011B2A30E4227E278EE377
:10F3F0000B2830227EB38D6FBEB001227E738E92B9
:10F40000BE7064226CAA7E1039AC1F227CAB7E7069
:10F4100003AC75227E73696DBE700122E40AEF1998
:10F42000BE785B227F072D137A0BB0227E5002AC90
:10F430005A3E24220E340E34BE353B227E353BBE6E
:10F44000340078227E3400787A353E227A1D357C6D
:10F45000BC7C7D22FFFFFFFFFFFFFFFFFFFFFFFFE1
:10F46000FFFFFFFFFFFFFFFFFFFFFFFFFFFFFFFFAC
:10F47000FFFFFFFFFFFFFFFFFFFFFFFFFFFFFFFF9C
:10F48000FFFFFFFFFFFFFFFFFFFFFFFFFFFFFFFF8C
:10F49000FFFFFFFFFFFFFFFFFFFFFFFFFFFFFFFF7C
:020000021000EC
:10000000020A2B02DAE3010212972202DAB0D322AB
:1000100002250702DB567D2302227502DAB57EB384
:1000200087F922023A407D437F1080071B447A0BF8
:10003000B00B144D4478F5220001010000010100CD
:10004000222222026806B28622FFFF020E00000072
:1000500000000000000000000000FF02DCCF01FFF4
:100060000000000001FFA9D6EF22FF02DD5EA9D645
:10007000CA22FF023D2C0102040810204080010228
:100080000304040302010102030404030201010248
:100090000304050403020101020304050403020131
:1000A000CAF87F20800A7E1BF07A2BF00B340B54A9
:1000B00069FFFFFC7DEF1BE479EFFFFC4DFF78E665
:1000C0007F10DAF822FF00010200FF01020001FFA9
:1000D00002000102FF7D23BE24000048037D32227E
:1000E0006D339D322200000000000000000000007F
:1000F0000000000000000000000000000002544763
:10010000E7F4180BE5371AC8EB0C14F3847B1BE4F7
:10011000FFFFFFFF0BF4FFFFFFFFC639FFFFF006F5
:10012000708F00FF847B01AA486302A900000000D1
:1001300000000000000000000000000000000000BF
:100140004A32320000000000000000000000000001
:10015000000000000000000000000000000000009F
:100160005869616F6D690000000000000000000028
:100170000100010101010101010101000101010171
:1001800001010101010000000808102410240000F2
:10019000010000000000000000000000000000005E
:1001A000000000000000000000000000000000004F
:1001B00000000000000102030405060708090A0BFD
:1001C0000C0D0E0F00000120012000000000012492
:1001D00001200048009100DA01230048009100DA74
:1001E00001231A050707000804001A05070701087C
:1001F00004001A050707020604001A05070703088A
:100200000301010A1E081400640DAC00C80190012E
:100210002C012C012C09C407D007D0019001900AB1
:1002200000022601050C213C000000000000000037
:10023000000000000000000000000000190B000199
:100240008701001B01840007001801020100010161
:100250000000000000000000000000001D00000081
:100260000000FF0064000000000000000000FFFF2D
:10027000000000000000000000000000000000017D
:10028000C6A50200000000000000000000000240BF
:1002900004800438021C3C3C019A01E0010001008A
:1002A000092404924141020801A401000100100048
:1002B000B40168021C000007A800640048000201A5
:1002C0000500960BB80A05060078015E01C21F40C2
:1002D00028025800C80014001A0018001103200159
:1002E00090064005DC040F0F005003E8005008D4CE
:1002F000000A019A019A032000C80043001E0080F2
:10030000021C00DC003C03E80492021C003C03E8F1
:100310000020041800000924006400A000A006408A
:10032000012C00000001000200030004000500068B
:10033000000700080009000A000B000C000D000E69
:10034000000F001000110012001300140015001619
:10035000001700180019001A001B001C001D001EC9
:10036000001F0020002100220023006C006B006AA7
:100370000069006800670066006500640063006251
:1003800000610060005F005E005D005C005B005A81
:1003900000590058005700560055005400530052B1
:1003A00000510050004F004E004D004C004B004AE1
:1003B000004900B500B400B300B200B100B000AF16
:1003C00000AE00AD00AC00AB00AA00A900A800A7D9
:1003D00000A600A500A400A300A200A100A0009F09
:1003E000009E009D009C009B009A00990098009739
:1003F0000096009500940093009200FE00FD00FC22
:1004000000FB00FA00F900F800F700F600F500F430
:1004100000F300F200F100F000EF00EE00ED00EC60
:1004200000EB00EA00E900E800E700E600E500E490
:1004300000E300E200E100E000DF00DE00DD00DCC0
:1004400000DB0047004600450044004300420041F5
:100450000040003F003E003D003C003B003A0039B8
:1004600000380037003600350034003300320031E8
:100470000030002F002E002D002C002B002A002918
:10048000002800270026002500240090008F008E01
:10049000008D008C008B008A008900880087008610
:1004A000008500840083008200810080007F007E40
:1004B000007D007C007B007A007900780077007670
:1004C000007500740073007200710070006F006EA0
:1004D000006D00D900D800D700D600D500D400D3D5
:1004E00000D200D100D000CF00CE00CD00CC00CB98
:1004F00000CA00C900C800C700C600C500C400C3C8
:1005000000C200C100C000BF00BE00BD00BC00BBF7
:1005100000BA00B900B800B700B6012201210120DD
:10052000011F011E011D011C011B011A01190118E7
:100530000117011601150114011301120111011017
:10054000010F010E010D010C010B010A0109010847
:100550000107010601050104010301020101010077
:1005600000FF012201210120011F011E011D011CAC
:10057000011B011A011901180117011601150114B7
:100580000113011201110110010F010E010D010CE7
:10059000010B010A01090108010701060105010417
:1005A000010301020101010000FF00D900D800D7BA
:1005B00000D600D500D400D300D200D100D000CFA7
:1005C00000CE00CD00CC00CB00CA00C900C800C7D7
:1005D00000C600C500C400C300C200C100C000BF07
:1005E00000BE00BD00BC00BB00BA00B900B800B737
:1005F00000B60090008F008E008D008C008B008A6A
:1006000000890088008700860085008400830082BE
:1006100000810080007F007E007D007C007B007AEE
:10062000007900780077007600750074007300721E
:1006300000710070006F006E006D004700460045BD
:1006400000440043004200410040003F003E003DA6
:10065000003C003B003A00390038003700360035D6
:1006600000340033003200310030002F002E002D06
:10067000002C002B002A0029002800270026002536
:10068000002400FE00FD00FC00FB00FA00F900F869
:1006900000F700F600F500F400F300F200F100F0BE
:1006A00000EF00EE00ED00EC00EB00EA00E900E8EE
:1006B00000E700E600E500E400E300E200E100E01E
:1006C00000DF00DE00DD00DC00DB00B500B400B3BD
:1006D00000B200B100B000AF00AE00AD00AC00ABA6
:1006E00000AA00A900A800A700A600A500A400A3D6
:1006F00000A200A100A0009F009E009D009C009B06
:10070000009A009900980097009600950094009335
:100710000092006C006B006A006900680067006668
:10072000006500640063006200610060005F005EBD
:10073000005D005C005B005A0059005800570056ED
:10074000005500540053005200510050004F004E1D
:10075000004D004C004B004A00490000000100021F
:100760000003000400050006000700080009000A55
:10077000000B000C000D000E000F00100011001205
:100780000013001400150016001700180019001AB5
:10079000001B001C001D001E001F00200021002265
:1007A0000023000000000000000000000000000026
:1007B0000000000000000000000000000000000039
:1007C0000000000000000000000000000000000029
:1007D0000000000000000000000000000000000019
:1007E0000000000000000000000000000000000009
:1007F00000000000000000000000000000000000F9
:1008000000000000000000000000000000000000E8
:1008100000000000000000000000000000000000D8
:1008200000000000000000000000000000000000C8
:1008300000000000000000000000000000000000B8
:1008400000000000000000000000000000000000A8
:100850000000000000000000000000000000000098
:100860000000000000000000000000000000000088
:100870000000000000000000000000000000000078
:100880000000000000000000000000000000000068
:100890000000000000000000000000000000000058
:1008A0000000000000000000000000000000000048
:1008B0000000000000000000000000000000000038
:1008C0000000C2D57CB430E708B2D56E24FFFF0B20
:1008D000247CB630E712B2D56E34FFFF0B348D3274
:1008E0006E24FFFF0B2480028D3230D5066E34FF5C
:1008F000FF0B34227D51AD037D027D21AD052D120C
:10090000AD352D21227D02AD31AD102D21226D009E
:1009100074104D00780B4D2278278D317D126D2299
:10092000227D437D326D222F112D445002A50FBF31
:100930001040049F100B901478ED7F016D227D34E0
:10094000227D417D138D247D022F004004BD044093
:10095000049D040B141478F17D237D317D106D000E
:1009600022C2D57CB030E708B2D59F229F207F02FB
:100970007CB430E713B2D59F229F217F1212091059
:100980009F229F207F02800312091030D5069F22EC
:100990009F217F12226CAA4D11681A1E54680E0BFB
:1009A00038201B18200B350B151B5478F250067E8F
:1009B00039407A1940226CAABE08000068201E54F3
:1009C0000B5450167E1B807A0B800B1C0B0C800A7C
:1009D0000B1A401B0A400B1D0B0D1B5478F2226CA6
:1009E000AA4D11681E1E54500C7E1B007A19006817
:1009F000120B1C0B140B1A001B18000B1D0B151BE4
:100A00005478F2226CAABE080000681E1E54500CD6
:100A10007E39407A0B4068120B340B0C0B38201BCC
:100A20000A200B350B0D1B5478F2227584017E448D
:100A30009FFFE47A49B01B4478F97EF88814751E4C
:100A400000751F00C220C221C222C231C223C224AB
:100A5000C225C214C215C216C217755800C226C2DA
:100A600027C228C232D233C229C22AC218C219C22E
:100A70001AD21BC22BC22C755906C234C20BC20C2F
:100A8000C20DC20EC20FC210D211C212C213C235A1
:100A9000C22DC22ED22FC2307E0400FF7E140AC4A3
:100AA0000B0A405D44681A692000020B0E0B44805B
:100AB0000A7E0BB07A29B00B240B0C1B4478F28011
:100AC000DF020FF7000187300500018732000001C7
:100AD000873A000001873D0C000187410300018730
:100AE00045000002875144400001875A00000187F9
:100AF0006300000187640000018773000002877CA7
:100B000000000001877E010001877F00000139FF9E
:100B1000010001872F0000015939FF000201000088
:100B2000000001019E000001027600000102770032
:100B3000001459CB01010101010101010101010072
:100B40000000000202020202001459EB030300003D
:100B50000003030000000303000000010101010184
:100B60000001881200003C878100000000000000A6
:100B70000000000000000000000000000000000075
:100B80000000000000000000000000000000000065
:100B90000000000000000000000000000000000055
:100BA0000000000000000187BD00000187BE1100A9
:100BB000018635000001715AFF000177C400000270
:100BC00078150000000278210000000187FF010075
:100BD000018809000001880A010001880B0000015A
:100BE00039F800000139560000013957FF0001397A
:100BF00058FF0001395B640001395C00000187C5C2
:100C000000000287C80021000187CC01000187CFC6
:100C100004000187F001000187F300000287F4005F
:100C200020000187F600000187F700000187F90026
:100C3000000187FA00000103F5FF000203F900003C
:100C4000000480D20000C120000480DB0000C1004D
:100C50000002001280DF0002001482DF0004001A8C
:100C6000000000000001880F0100028810C300008E
:100C70000488000000C500000479A10000D0000035
:100C80000479A50000A00000047C830000B00000EF
:100C90000403FC0000C400000488050000C200003A
:100CA000000014006800AC00EF0131017401B701CD
:100CB000FA023D028002C303060349038C03D004F9
:100CC00024001D006700AA00EB012B016C01AC01A0
:100CD000ED022D026E02AE02EF032F037003B0038C
:100CE000F10431047204B204F30533057405B4054C
:100CF000F50635067606B606F70737077807B8070C
:100D0000F90839087A08BC09100014006F00AC001B
:100D1000EF0131017401B701FA023D028002C30301
:100D2000060349038C03CF042300220100230B0197
:100D300001020123010E23FF0F01FF0F22FF0F23EA
:100D4000F50001050023F60100F90101050F010579
:100D50000F23F6001108090110070A020F060B0302
:100D60000E050C040D040D000F0708010E06090204
:100D70000D050A030C040B000000000BB80BB80BA8
:100D8000B80BB80BB80BB80BB80BB80BB80BB80B4B
:100D9000B80BB80BB80BB80BB80BB80BB80BB8F452
:100DA00048F448F448F448F448F448F448F448F463
:100DB00048F448F448F448F448F448F448F448F453
:100DC00048F4480000006C00B500FE012200D90084
:100DD0009000470047009000D9012200FE00B500B6
:100DE0006C000012DF0AE47AB386CE7AB3872F0252
:100DF0000DF5123838740F7AB36F947AB36F952269
:100E0000CA7BCA6BCA5BCA4BCA2BCA1BCA0B120F5E
:100E1000C25E340040685B0B0A305E3400406852AA
:100E20007E34004079300002302105120FCBC22100
:100E30007EB387CABEB0016803B40413120FCB306F
:100E40000D087E7387C37A7387C1E47AB387CA7E3D
:100E50001F03FC6931000A5E340FC01214331E34C4
:100E60007A7387C6E47AB303F57EB38814047AB341
:100E70008814120FC25E34000868110B0A305E3409
:100E8000000868087E34000879300002120FC25E44
:100E900034001068170B0A305E340010680E7E3480
:100EA00000107930000274027AB303F5120FC25EAB
:100EB00034002068170B0A305E340020680E7E3440
:100EC00000207930000274017AB303F5120FC25E7C
:100ED000344000682E0B0A305E34400068257E34B2
:100EE000400079300002D20C7EB387C2BEB0C85039
:100EF00005047AB387C27EB387C2B40103120DF52D
:100F0000120FDB120FC25E34200068160B0A305E2F
:100F1000342000680D7E34200079300002D20C129B
:100F20000FDB120FC25E34100068660B0A307D239F
:100F30005E241000685B5E3408002E34FFFF920FC1
:100F4000693000067D235E240001680C5E340400D5
:100F50002E34FFFF720F920F7E34080079300002AA
:100F60007EB38764B4010F74027AB387647E341051
:100F700000120FE5803DC23012DD63124B607EB37C
:100F800039FEBEB003680A123FC77805C208123F97
:100F9000FF120FC25E34000468190B0A305E340081
:100FA0000468107E340004793000027EB35960700A
:100FB00002D212DA0BDA1BDA2BDA4BDA5BDA6BDAF3
:100FC0007B327E0F03FC6930000422120FEE0B0A05
:100FD00030020FD44E70021B0A302230300612DB72
:100FE0002102DB3A227E0F03FC79300002227E0FC1
:100FF00003FC2E14001422124E4A1267711213764B
:10100000121799128FFE120DE31210251263B17E92
:10101000B3596224FD68090BB178F41211E980EF2D
:1010200012307280EACA797EB3875ABEB001780264
:1010300021597E1F03FC69A100065EA40800680216
:10104000214A6CEE1211C17E34F4B17E087C877E99
:1010500024000612115C7DB3BEB4000678040BE0D8
:1010600080070BF0BEF00340DEBEB4000678106CC3
:10107000FF1211D0197A87650BF0BEF00678F212D4
:1010800011C17E34F3127E087C877E240009121180
:101090005C7DB3BEB4000978040BE080070BF0BEA2
:1010A000F00340DEBEB4000978106CFF1211D019B5
:1010B0007A87460BF0BEF00978F21211C17E34D265
:1010C000027E087C877E24000212115C7DB3BEB4D0
:1010D000000278040BE080070BF0BEF00340DEBE98
:1010E000B4000278106CFF1211D0197A876D0BF0E2
:1010F000BEF00278F21211C17E34F3901211D7784B
:10110000040BE080070BF0BEF00340ECBEB400011E
:1011100078087E737C877A7387451211C17E34F319
:10112000B31211D778040BE080070BF0BEF0034038
:10113000ECBEB4000178087E737C877A738732BE78
:10114000E005780674017AB3875A7EB3875AB401F2
:10115000087E7387457A73596CDA792212E33C80F2
:10116000496D337E2F88007932000A12E29E12E721
:10117000C27AB38804800A12E3F0680512E524807D
:101180000512E39368F112E5177E6F880069360057
:10119000045E34000278F27EB38804701169360070
:1011A0000A6C667A7B700BF41B144D1178B3021134
:1011B000B16D337E2F88001B2A30C2CC7D329D3129
:1011C000227E087C877E340009E41200266CFF2210
:1011D0000AAF097A7C87227E087C877E2400011270
:1011E000115C7DB3BEB400012230260C7EB359A938
:1011F000B4010512483A8003123936C226D286124B
:1012000010257EB339FEB401028002418C1267B909
:1012100012622CE412702612DE05123F461234BA16
:101220007E34020B1212D81237BB128ADF1233340B
:10123000126CC212174A40CA12C8507EB3595FB42A
:101240000102D2867EB36993700612143E12DFF952
:101250001294F212999312174A40A774011212A025
:10126000122C5012A6A412A73074021212A012A8B7
:101270004774031212A012AC7674041212A01277F3
:10128000B71261FA1247301200074102D20412313C
:101290004B1261DA0212977E7359627A7339FE2219
:1012A00024FD680A0BB1781CE47AB369772212B185
:1012B0008912BBC812BED87AB3697912BFA612755B
:1012C000E9027F94227E3402157E2400FF0B1A303F
:1012D0007A3769827E3402177E2400FF0B1A30228F
:1012E000900203E4937AB3697A12E6407E34020DE9
:1012F0001212D87A37697C7E34020F1212D87A37EC
:10130000697E7E3402111212D812153A7A3769803A
:101310001212C57A3769847E3402191212D8121556
:101320003A7A3769867E34021B1212D812E694127A
:1013300012D812153A7A37698A90024FE4937AB339
:10134000698E900206E4937AB3698FBEB01450069A
:1013500074147AB3698F7E3402071212D87A37690F
:10136000907E34021F1212D87A37698CE47AB369FE
:10137000927AB36993227E34020D1212D81214337A
:101380007A73593B7E34020F1212D812171A7A73ED
:10139000593C7E3402151212D81214337A73593D17
:1013A0001212D412171A7A73593EE47AB3593F7E57
:1013B00034021F1212D81214337A7359407E34004B
:1013C0006ACA397E3402237E2400FF7E0859411206
:1013D00000A01BFD74557AB3596FE47AB359587461
:1013E000037AB3595974027AB35957227E34020DE5
:1013F0001212D87A37697C7E3402211212D87A37D9
:10140000010012E6407E34020F1212D87A37697E4C
:101410007E34021B1212D812E6941212D812153A18
:1014200012142B1217127A73593C227A37698A7E6A
:1014300037697C1E341E341E341E341E34227EB3A3
:10144000598B600A1213ECE47AB388138034126D5E
:101450002B7E3402111212D812153A7A3769807E27
:10146000B36998701D7EB3881370177E3402211201
:1014700012D8BE37676C280A7EB3696E70047A375B
:10148000697C7EB3594760447EB359581BB1680DDF
:101490000478397E37697C7D133E14800A7E376973
:1014A0007C7E140003AD137E04000A8D109D317AFA
:1014B00037697C7D232E2400327A2701009E340078
:1014C000327A37697E12153A7A3769807EB3594687
:1014D00060577E27697C7E34000AAD321214377A59
:1014E00037697C7D232E2400647A2701007E5769AA
:1014F0007E7E04000AAD507D250E240E240E247A33
:1015000027697E7E176988AD107D210E240E240E7A
:10151000247A2769886D229E2769887A27698A122A
:1015200014331217127A73593C7EB3593FBEB0AAD6
:1015300068071212C57A376984226E34FFFF0B34B4
:1015400022CA797E9769D77A977C897EF3699C6DE8
:10155000AA7404ACBF7A577C8B7D852E877C897AF0
:10156000877C8D7E1F03FC698100187A877C877ECB
:10157000E369991237EB6D88C1B17E087C8F12E662
:10158000D31267E66DBB0A3FAD3B2D3A1217367E8C
:1015900024000160053E241478FB7D3F12143512AF
:1015A0001725BEB4000478DE6DBB0A3FAD3B2E3775
:1015B0007C8B1217367E24000160053E241478FBD4
:1015C0007D3F121435121725BEB4000578DC6DBBC3
:1015D0000A3FAD3B2D391217367E24000160053ECF
:1015E000241478FB7D3F1214353E342E347CBD121A
:1015F000172BBEB4000478D86DBB0A3FAD3B2E3725
:101600007C8D1217367E24000160053E241478FB81
:101610007D3F1214353E342E347CBD12172BBEB4E0
:10162000000578D612E4387E087C8F12230312E47A
:10163000387E087CBD1224F1125849300F0F7E0805
:101640003A007E34052074FF120026806CA9D7EA88
:101650006DBB0A3FAD3B7D232D2A12E36F2D0A128D
:10166000E4262D2912E6680BB4BEB4000478E36DBD
:10167000BB0A3FAD3B7D232E277C8B12E36F2E07E9
:101680007C8B12E4262E277C8D12E6680BB4BEB448
:10169000000578DDA9C7EA0BA47E377C8B0B347A72
:1016A000377C8B0B947E377C8D0B347A377C8D0B9B
:1016B000840A3FBD382802A17A6D887DA80A2E1BB6
:1016C000240A3FAD327D932E977C89803C6DBB8090
:1016D0002C0A5FAD5B7D152D1A3E1449313A007D11
:1016E000299D253E2449223A0059213A000A5FAD3E
:1016F0005B7D199D153E1459313A000BB40A1EBD8D
:101700001B38CE0BA40B940B840A3FBD3838BEDACD
:1017100079227A73593B7E37697E0E340E340E344B
:101720000E340E34223E342E347C8F0B38E04DE2E2
:101730001B38E00BB4223E342E3403227E2400FFFB
:101740000B1AF07D5F5E54000F227EB32E7470146E
:101750007EB35960BEB003680B12C8101212971204
:10176000DF20D322C3227E3402B91212D87A37671F
:101770007F7E3402BB1212D87A3767817E3402BD75
:101780001212D812E4EA9002C0E4937AB36786E4B6
:101790007AB3678A7AB3678B221248841284D5128F
:1017A00084A31287FA1217661212E012857F127450
:1017B0009912CFF3123FD41239D30217BDD227D2D8
:1017C0002812A0027E182E7A7A1F03E67E18339A1A
:1017D0007A1F03EA22CA3B7EF387F07E3008AC3FD3
:1017E00009C159AB09D159AC7E040008CA092E14AD
:1017F00059AB6D007E1886FF1200A01BFD7408AC6B
:10180000BF09E559AF74EEACBE7D952E940100740E
:1018100003121FA21219735E340100680D5E84FE6C
:10182000FF7A8787587CBF121FFC1219735E340041
:101830000168355E84FFFE7A8787587EB386FF1283
:10184000000E50187EB386FF12D798500F7EB386D5
:10185000FF12665A1257F5121EE7800C7408ACBFCF
:1018600019C559AB7AC386FF1219735E340002683A
:101870002C5E84FFFD7A8787587EB387001227F895
:10188000500F7EB387001267031257F5121EE780D0
:101890000C7408ACBF19D559AC7AD38700121973F0
:1018A0005E340004684F5E84FFFB7A8787584E845D
:1018B00002007A8787587CBF1247147E303CAC3ECA
:1018C0001222A97403ACBF12E24D7E303CAC3E1232
:1018D000E62F7408ACBF12E18B7D392E34000674FC
:1018E0003CACBE121FED7D390B35743CACBE4925B6
:1018F00078B512197E12196C5E24001068125E70A1
:10190000EF7A3787587EB387017E7387021290077C
:1019100012196C5E24004068115E70BF7A378758D8
:101920007CBF0A0F1252E812257212196C5E240055
:1019300080680A5E707F7A37875812250712196C03
:101940005E240400680E5E60FB7A3787587EB3869B
:10195000D812D6E012196C5E242000680C5E60DF9D
:101960007A3787587CBF12494ADA3B227E3787583C
:101970007D23227E8787587D3822492578E37D1292
:1019800012E6A61B1A1022CA3B300002A173740390
:10199000121FA27E347C877E2415157E7400B91B2D
:1019A00038200B351B7478F712E7A97E2400B91292
:1019B000230712E7A91224F17EB387F7B401417E11
:1019C0000F03FC6930001C7A3787366930001A7AB9
:1019D00037873B693000127A378755693000147AAF
:1019E0003787617E34003F7930001A124E15793006
:1019F000001C7E34002012E6827E34000112E4BA1C
:101A0000E47AB3874074037AB387417AB387307E30
:101A10009387F74C99781DE5C27AB3873F12E46C3F
:101A200043C3201237C643C3C01237C643C2401255
:101A300037C68008BE9001780312E46C7EB387F746
:101A4000B40106A9D09EA9D49E124E157930001675
:101A50007E3401CE1212D82E3400097E0F03FC7999
:101A600030001812253C7403121FA27E34001F128E
:101A70001EE07A373F7612E7A04E5001121EC37E59
:101A8000340025121EE07A373F2E12E7975E2400BD
:101A90009F4E4076121EC37E340027121EE07A3716
:101AA0003F3212E78E5E24F64F4E24600F121EC3A3
:101AB0007E340001121EE07A373F3612E7855E243D
:101AC000C0004E50C2121EC37E34002A121EE07A9D
:101AD000373F3812E77C5E500F4E5020121EC37EF7
:101AE0000F03FC6930004C7A37875D7E5387300ADC
:101AF000557D25123C4B2D256C774D327930004CAD
:101B0000121EDC7D035E040002121F8A7D135E1428
:101B10000002121EDC7A373F2A12E773121FF44DBF
:101B20002112197E121F8A7A373F2C12E76A121F80
:101B3000F44D20121ED37E340028121EE07A373F67
:101B40003412E7615E24F7EF4E4008121EC37E3464
:101B5000001B121EE07A373F4412E7585E40DF1246
:101B60001FDB121EE07A373F487E3400177EB387B2
:101B700031543F0A2B121EC37E340026121EE07A17
:101B8000373F3012E74F5E24F1DF121EC36D331270
:101B90001EE07A373F4A6D337E273F4A5E247FFD41
:101BA000121EC37E340021121EE07A373F4C12E72A
:101BB000465E40EF12197E7E340021121F8E7A3766
:101BC0003F4E12E73D5E40EF121ED37E34001412EA
:101BD0001EE07A373F4612E7345E24FC00121FD322
:101BE000121EE07A373F5C7E3400027E5387330A50
:101BF00055124ADD7E273F5C5E2408004D254E507D
:101C00002E121EC37E340016121EE07A373F521287
:101C1000E72B5E24F8004E50C4121EC37E34001819
:101C2000121EE07A373F5812E7225E24FC004E5025
:101C3000DA121EC37E340019121EE07A373F5A12A0
:101C4000E7195E24FC004E240190121FCB121EE007
:101C50007A373F567E34001A6D22121EC36D777D8F
:101C6000672E640006121FBA59323F3A7D273E2480
:101C700049323F3A59323F200B74BE74000578DF79
:101C80007EB387F77E083F26700712E66F740180E7
:101C90000512E66F74027E7001124A787E083F28B2
:101CA0007401124A5F7E083F287401124A247E7331
:101CB00087570A377A373F207E3400067E273F2039
:101CC000121EC37E3400097E273F26121EC37E34B7
:101CD000000A7E273F28121EC36D777D672E6400A1
:101CE0000B121FBA59323F5E121FE359323F641282
:101CF0001F8378E77E34000B7E241111121EC37EF1
:101D000034000C7E240001121EC37E3401FB121E1F
:101D1000E07D737E34000D7D27121EC36D777D67D5
:101D20002E640039121FBA59323F6A121FE359322A
:101D30003F70121F8378E77E340039121FC47E344F
:101D4000003A121FC47E34003B7E24500512197ED7
:101D50007E3400397E241234121ED37E34003A7E43
:101D6000242345121ED37E34003B7E241005121E10
:101D7000D3C1C07EA387F74CAA78247EB3873FF5F2
:101D8000C27E7387427CB754C04CB7F5C37CB7544E
:101D9000204CB7F5C37CB754074CB7F5C3800BBED6
:101DA000A00178067EB38742F5C312E38612E7A04E
:101DB000121EC312E797121EC312E78E121EC31221
:101DC000E785121EC312E77C121EC312E38612E7D8
:101DD0007312197E12E76A121ED312E761121EC334
:101DE00012E758121FDB7E273F48121EC312E74F2F
:101DF000121EC36D337E273F4A121EC312E74612DE
:101E0000197E12E73D121ED312E734121FD37E272C
:101E10003F5C121EC37E3400107E273F50121EC34B
:101E200012E72B121FCB7E273F56121EC312E7224A
:101E3000121EC312E719121EC37E3401D01212D82B
:101E4000124E09793000187EB387F7B4011C7E3733
:101E5000873612E6797E37873B12E6DB7E37875579
:101E600012E6827E37876112E4BA6D777D672E6451
:101E70000006121F9B49223F3A121EC30B74BE7408
:101E8000000578E86D77121F9549223F5E12197E92
:101E9000121F9549223F64121F8078EA6D777D6793
:101EA0002E640039121F9B49223F6A12197E121FAD
:101EB0009B49223F70121F8078E412231D122507D0
:101EC000DA3B227D027D537D2012197E7D357D20F7
:101ED000021ED37D1212E69D1B1A10227E340020B2
:101EE00012E6A60B1A3022CAF86CFF74EEACBF7D66
:101EF000D52ED40100128FE00AC73EC43EC43EC4B2
:101F00000BC6097559AC0AB73EB43EB43EB40BB625
:101F10007EA4002C7AA52F7EA400087AA53112E5B4
:101F2000A07D3C7D2B12E20D7D3C7D2B1222DC7DC1
:101F30003C7D2B742A12E1B012E61D492578DD1292
:101F4000197E12E612492578E112197E12906DACC5
:101F5000BF12197A12E61D492578DD121ED312E64A
:101F600012492578E1121ED312906DACBF49257835
:101F7000E3121ED30BF0BEF0045002C1EBDAF822DC
:101F8000121ED30B74BE740003227E34002012E6AE
:101F90009D0B1A30227D672E64000B7D367D273E17
:101FA00024227CAB7E08783F7CBA12E1C87E087898
:101FB0007F12E1C81247D3021ED37D36121EE07D88
:101FC000273E24227E24432102197E121EC37E3422
:101FD000001A22121EC37E34000222121EC37E3457
:101FE0000017227D36121F8E7D273E242249257838
:101FF000BD02197E5E247DFD4E405822CA797CEBDD
:102000001227EF7E738705197559B17E340005CA12
:10201000397E3005AC3E2E1459CB6D007E18870EEC
:102020001200A01BFD1227B91222BC12E5522E3459
:10203000000B7E303CAC3F2E1478C76D007E240030
:10204000031222EE1224F1DA7922124A9A79500010
:102050000422CA3B7CEBBEE004400241721227EF2F
:10206000BEF00440024172097559AB0A473E443E36
:10207000443E440B467A4527097559AC0A673E64CD
:102080003E643E640B667E503CAC5F2E2478B10B00
:1020900028304E70011B28307408ACBE097559B247
:1020A0002E70FF920112229A6D0012E2357E900886
:1020B000AC9E09B459AEF5297E703CAC7F7D1312FD
:1020C00022B52E3478E36D2209B459AD1290761200
:1020D00022B07E35271222851222A47D3612228B51
:1020E0007E303CAC3F12E62F7408ACBE12E18B127E
:1020F00022A47403ACBE12E24D1266C36D3312000B
:10210000167E303CAC3F124A1D7E7005AC7E09B392
:1021100059EB097359EC124A787E303CAC3F124AB5
:102120001D7405ACBE09B559ED124A4A1222CC09FC
:10213000B559EE124A5F1222CC09B559EF124A2462
:102140001266A2120016D2011222E212E1E0122758
:10215000B91222BC7E503CAC5F2E2478C50B2830CF
:102160007E340002743CACBF593578CD743CACBFB2
:10217000593578CF6D33743CACBF593578D17E3446
:102180002205743CACBF593578D37E340006743CCC
:10219000ACBF593578D57E340012743CACBF59358C
:1021A00078D7743CACBF593578D9743CACBF59353D
:1021B00078DB7E340808743CACBF593578DD6D336C
:1021C000743CACBF593578E57E340001743CACBF3B
:1021D000593578DF7E340C1C743CACBF593578E13E
:1021E0007E503CAC5F2E2478E30B28304E34419671
:1021F0001B28307E341F00743CACBF593578E7BED5
:10220000E00378197E340351743CACBF593578C172
:102210007E3404041222917E34042980077E340A1D
:1022200019122291743CACBF593578EB7E34002CE6
:102230007A352F7E3400087A353112E5A07E3527B5
:102240007D2612E20D7E35277D261222DC7E352783
:102250007D26742A12E1B07403121FA212E55212F5
:10226000229A6D007E24001E1222EE7E24000312AC
:1022700024F1DA3B220B0A305E34FC001B0A304D9D
:10228000321B0A302212E20302227C12E2030222F3
:102290007C743CACBF593578E9227E303CAC3F2E93
:1022A0001478B1227E303CAC3F2E1478B56D0022FC
:1022B0007E303CAC3F2E1478B36D00227408ACBE67
:1022C00009B559B1124A9A79500004227E303CACCB
:1022D0003F2E1478C56D007405ACBE2212279B7585
:1022E0002F2C7E303CAC3F2E1478E36D002212235D
:1022F000077D3B2E34000B7E3006AC3F2E14782336
:102300006D00227E2400177D533E542E54A0006D94
:10231000446D33800312E2E1BD3240F922CA796D87
:10232000EE7403121FA27EC769D97ED769D72DDC50
:102330007E087DF912E6D36DAA801E7DBA3EB449AF
:10234000BB69F31224EA7E14000160053E14147880
:10235000FB7D2B1224E112E44ABDCA38DE7DAC803D
:102360002B7DCA3EC449BC69F31224EA7E240001D5
:1023700060053E241478FB7D3B1214353E342E3428
:102380007DF90B38C04DC21B38C00BA4BDDA38D163
:102390006DAA801E7D3A3E342E34019212E4146000
:1023A000053E341478FB1224DB3E242E247DF912E2
:1023B000E5FC900191E4930A3BBD3A38D76DAA80C1
:1023C0001E7D3A3E342E3401A312E41460053E34DF
:1023D0001478FB1224DB3E242E247E2712E5FC9089
:1023E00001A2E4930A3BBD3A38D76D337DF37DE318
:1023F0007DA37DBA1EB41EB47D2A7CB57E1778718C
:1024000060051E141478FB5E14000F7E2778751289
:10241000E6CA78027DFB7D2A7CB57E17788360054D
:102420001E141478FB5E14000F7E27788712E6CA0C
:1024300078027DEB0BA6BEA4000F40B612E55F7DCF
:10244000E17DA37DBA2EB401247D5A2D5F12E4AF45
:102450003E4449747DF95E54000F60051E74147883
:10246000FB1224EA0A1F60053E141478FB7D2B1230
:1024700024E13E242E247DF90B28304D311B2830D9
:102480007D5A2D5E12E4AF3E4449747E275E5400AF
:102490000F60051E741478FB1224EA0A1F60053EC3
:1024A000141478FB7D2B1224E112E44ABEA400240C
:1024B00078916DAA7E9400EEAD9A2E94011E7D391E
:1024C0007E087DF91223037D397E087E271224F1D0
:1024D0000BA4BEA4000440DCDA79227D136E14FF45
:1024E000FF1E241E241E241E24227D5B5E54000F2A
:1024F000227D533E542E54B0006D446D3380031240
:10250000E2E1BD3240F9227EB769D77EA769D912D0
:10251000E56C6D221224F17E3401007E0869F37DA2
:102520002A1224F112E6C12E1469F36D007D2B12DC
:10253000230712E5F17E24000402230712E6B812F5
:10254000E56C7E2400041223077E3401047E14030C
:10255000227E0400FF7D2A12230712E6C12E1403F7
:10256000227E0400FF7D2B1224F112E5F16D220280
:1025700024F1CA3B7F607CAB6DEEBEA0044002C17B
:10258000807408A409B559AFF5347403121FA21260
:10259000E6B82DBA7E0879A97E34016D74FF120069
:1025A000267E087B167E34016D1200266D77801121
:1025B0007D373E34492369F312276E19727B160B5F
:1025C00074BDA738EB7D7A80117DA73EA4492A69A6
:1025D000F312276E197279A90B74BDB738EB6D33FE
:1025E0007DF37DE37D737D271E241E247CAF7E0753
:1025F00078717CBA60051E041478FB5E04000F7EBF
:1026000017787512E6AF78027DF27E0778837CBA80
:1026100060051E041478FB5E04000F7E1778871295
:10262000E6AF78027DE20B76BE74000F40B812E58B
:102630005F7DE17D737D372D3F097379A919777A25
:10264000CD7D372D3E09737B1619777C3A0B74BE0E
:1026500074002478E07ED13474EEACDB2E6401008B
:102660002E6400357E087F5F7E1879A912274612F6
:1026700023077E087F5F7E187B161227461224F1FF
:10268000DA3B22CA797F717EA0256C776C666C5527
:102690006C44E1227C97AC9A0AD42D4D7EF049AC73
:1026A000F77DD7A5BC000B7EC401241227347DC75B
:1026B000802AA5BC12127EC401471227347DB77E42
:1026C000C401481227768014A5BC24157EC4016B72
:1026D0001227347DB77EC4016C12277612275F80E3
:1026E0003FBE4012501E7EB401259DBD0AC62DCBB3
:1026F0001227367DB77EA401269DAD0AC612275447
:102700000B61801C7EB401499DBD0AC52DCB1227EB
:10271000367DB77EA4014A9DAD0AC51227540B51E0
:102720000B40BCA42802C1940B70BE70055002C1BE
:102730008CDA79229DCD7F572DBC7E5BB00ABB7DA4
:102740007B7CEF6CFF221226837D367E087F5F7EC6
:102750002400B9222DCA7F472D9C7E4BB00ACB2D79
:10276000CB7EF002ACF97F502DB71B5AC0227F06FA
